S02100004156523634444433322D4D41494E2D436F6E74726F6C6C65722E7372656320
S11300000C9448000C9465000C9465000C946500F5
S11300100C9465000C9465000C9465000C946500C8
S11300200C9465000C9465000C9465000C946500B8
S11300300C9465000C9465000C9465000C946500A8
S11300400C9465000C9465000C9465000C94650098
S11300500C9465000C9465000C9465000C94650088
S11300600C9465000C9465000C9465000C94650078
S11300700C9465000C9465000C9465000C94650068
S11300800C9465000C9465000C9465000C94650058
S113009011241FBECFEFCDBFDFE7DEBF15E6A0E022
S11300A0B0E6E2EDF7E202C005900D92A636B10784
S11300B0D9F725E6A6E6B5E601C01D92A23EB20731
S11300C0E1F70E94A1060C94E7130C94000068E683
S11300D071E00E94990E992314F488599E4F089553
S11300E09C01261B370BC901992324F488279927DF
S11300F0821B930B68E671E00E94990E853B910583
S113010034F028E631E0A901481B590BCA010895CF
S1130110CF92DF92EF92FF920F931F93CF93DF93CF
S1130120C091C0652DE2C29FE0011124CE01865A20
S11301309F4F0E9467008C01CE018A5591090E944D
S11301406700EC01C8014E979E012E5131098D3292
S113015041E09407E8F42D323140D0F4E0906C652E
S1130160F0906D65B801C7010E9470006C01BE017A
S1130170C7010E9470008C159D051CF0902F812FE3
S113018002C09C2F8D2F90934F60809350600CC0C1
S11301908D32914028F400934F601093506004C056
S11301A0C0934F60D0935060DF91CF911F910F9116
S11301B0FF90EF90DF90CF9008958F929F92AF922F
S11301C0BF92CF92DF92EF92FF920F931F93CF9340
S11301D0DF93EC0180917B65882339F0EF81F8850A
S11301E00995EB81FC81099519C1EF85F889208176
S11301F03181EF89F88D808191812817390781F445
S1130200EF81F8850995EB81FC810995EB89FC89DF
S11302101082E98DFA8D81E080831B8E1C8EFEC0D6
S113022009A11AA1EB85FC850995F80180839183C6
S11302300BA11CA1ED85FE850995F80180839183AE
S1130240EF85F88980819181A0E0B0E0EF89F88D95
S11302504081518160E070E00D8D1E8D2F8D38A19D
S11302606A017B01C01AD10AE20AF30A8C159D05C2
S1130270AE05BF055CF0400F511F621F731F481786
S113028059076A077B0724F490E003C090E001C09B
S113029091E0892F817029F0E98DFA8D8081811197
S11302A009C0ED81FE810995E981FA810995E98DFD
S11302B0FA8D1082E989FA89C080D180E12CF12C71
S11302C0ED89FE8980819181C81AD90AE108F10873
S11302D0D701C6014396A11DB11D8797A105B1059C
S11302E018F4C12CD12C7601EF85F8892081318155
S11302F0EF89F88D808191812817390728F4E985E1
S1130300FA8581E0099507C08217930720F4E985EF
S1130310FA8580E00995EF85F88980819181A0E0D4
S1130320B0E0EF89F88D4081518160E070E00D8D7F
S11303301E8D2F8D38A14A015B01801A910AA20AF1
S1130340B30A88159905AA05BB05FCF4FCEECF1683
S1130350FFEFDF06EF06FF0684F48B8D8F5F8B8F34
S1130360823058F0EB89FC8981E08083EF81F88545
S11303700995EB81FC8109952FC085E1C816D1044C
S1130380E104F1044CF11B8E27C0400F511F621F82
S1130390731F481759076A077B07F4F4E5E1CE1683
S11303A0D104E104F10484F08B8D8F5F8B8F823054
S11303B058F0EB89FC8981E08083EF81F885099509
S11303C0EB81FC81099508C0FCEECF16FFEFDF0638
S11303D0EF06FF060CF41B8ECD28CE28CF28A9F4F7
S11303E0E98DFA8D8081811110C08C8D8F5F8C8F87
S11303F0823060F0EB89FC8981E08083EF81F885AD
S11304000995EB81FC81099501C01C8EED89FE895B
S1130410A989BA898D919C9180839183DF91CF9131
S11304201F910F91FF90EF90DF90CF90BF90AF900E
S11304309F908F9008958091BF65803148F00E940D
S1130440880084E190E080934A6090934B60089523
S11304508091C1659091C2658C32914080F0A9EB86
S1130460B5E68D919C911197EAE4F0E68583968335
S113047012968D919C911397808391830CC0EAE42A
S1130480F0E684EB90E0858396838091BD6590913E
S1130490BE658083918385E290E60E94DD0080E062
S11304A090E60E94DD000895E0E0F6E087E08183B5
S11304B081E082838083089595E09093B0008093D7
S11304C008060895813039F482E08093B00081E019
S11304D080930806089581E08093B0008FE18093B3
S11304E008060895813039F482E08093B00080E1F9
S11304F080930806089581E08093B00086E080939D
S1130500080608951092B00084E4809308060895C4
S113051081E080930A0680910D0680FFFCCFE0E025
S1130520F6E081E0858780899189929582958F7024
S113053089279F70892708950E9482020E94880259
S1130540BC0180E090E00E949E0D20E030E040E895
S11305505EE30E942C0E0E946F0DCB0108956BE0A8
S113056080E890E00E94951363E080E690E00E94AA
S113057095138091650080FDFCCF08952F923F92E2
S11305804F925F926F927F928F929F92AF92BF929F
S1130590CF92DF92EF92FF920F931F93CF93DF934B
S11305A0CDB7DEB72B97CDBFDEBFC22EB32EA42EA0
S11305B0952E862E772E682E592EF22E032F142F69
S11305C05A876983B72FD82EE92EE0E0F0E014C0F3
S11305D031962F2D302F412F5A8569817B2F8D2DF8
S11305E09E2D08E00E94180FF22E032F142F5A8715
S11305F06983B72FD82EE92E2F2D302F412F5A85FE
S113060069817B2F8D2D9E2DA0E00E94340F01F770
S11306108FEF8A87CB86B9824A2C392C282C1AC0B2
S11306208D01000F111F000F111F000F111F2B85CB
S11306303981442D532D622D772D862D952D0E94C1
S1130640180F8A848226912CF401E354FC4980819A
S11306508A87FD01DF011197EF2B11F78A852B960D
S1130660CDBFDEBFDF91CF911F910F91FF90EF902F
S1130670DF90CF90BF90AF909F908F907F906F90BE
S11306805F904F903F902F9008950F93CF93C22F78
S11306900E94BE02801302C08C2F01C080E0CF9163
S11306A00F9108950F93CF93DF93FC0120E030E086
S11306B040E050E060E070E080E090E03AC004E0A8
S11306C00E94FD0EE0EDEC0FEA3070F4D0E0E0970C
S11306D0ED2FEE0FEE0B2C2B3D2B4E2B5E2B6E2BAA
S11306E07E2B8E2B9E2B24C0EFEBEC0FE63070F4A8
S11306F0D0E0E797ED2FEE0FEE0B2C2B3D2B4E2B7E
S11307005E2B6E2B7E2B8E2B9E2B12C0EFE9EC0FF3
S1130710E630A8F4D0E0C755D109ED2FEE0FEE0B6B
S11307202C2B3D2B4E2B5E2B6E2B7E2B8E2B9E2B40
S1130730FD01DF011196C081C111C1CF08C020E0C5
S113074030E040E050E060E070E080E090E0DF9175
S1130750CF910F9108957F928F929F92AF92BF9203
S1130760CF92DF92EF92FF920F931F93CF93DF9379
S1130770CDB7DEB7A097CDBFDEBF6C014EE050E031
S11307806DEB74E60E949110892B21F481E0809333
S11307907865DCC086E0E3E9F3E6DE015B96019070
S11307A00D928A95E1F74FE050E0B601CE01019633
S11307B00E949F10188ACE0101960E945203722E45
S11307C0832E942EA52EB62EE72EF82E192F42E056
S11307D050E0B601615F7F4FCE0101960E949F10E9
S11307E01B8240E150E060E070E0CE0101960E947F
S11307F0540F062F272D382D492D5A2D6B2D7E2D64
S11308008F2D912F0E944503811169C09CC05E0108
S113081081E1A80EB11C8AE0F50111928A95E9F7ED
S1130820EBE1F0E0EC0FFD1FE10FF11DE080F12C96
S1130830A701B601C5010E947810F501EE0DFF1D58
S11308401082123029F128F4112341F0113099F06B
S113085042C0133051F11430A9F13DC040E150E0E1
S113086060E070E0CE0141960E94540F60936A6587
S113087070936B6530C040E150E060E070E0CE0101
S113088041960E94540F60936E6570936F6523C008
S113089040E150E060E070E0CE0141960E94540FC8
S11308A0609370657093716516C040E150E060E03C
S11308B070E0CE0141960E94540F6093726570936C
S11308C0736509C040E150E060E070E0CE014196FC
S11308D00E94540F062FCE0CDF1C1F5F02C010E0D5
S11308E000E0163008F493CFE8E6F5E62281338180
S11308F03695279536952795ABE7B4E10E94EE0E21
S1130900969587958083918326813781369527959F
S1130910369527950E94EE0E969587958483958348
S1130920802F8170848701FB882780F9858702FBEB
S1130930882780F9868703FB002700F90787108A38
S1130940128A118A03C081E080937A65A096CDBF94
S1130950DEBFDF91CF911F910F91FF90EF90DF9059
S1130960CF90BF90AF909F908F907F900895FF920B
S11309700F931F93CF93DF93CDB7DEB76497CDBFAB
S1130980DEBFFE01319684E1DF011D928A95E9F70D
S11309901092796510E0F12C00E003C0FF24F39479
S11309A000E00E94310A90917965992339F01F5F24
S11309B0133021F481E080937B652CC0FF2039F152
S11309C08E33D9F4E1E0F0E0EC0FFD1FE00FF11DF0
S11309D010826FE775E6CE0101960E948110892B83
S11309E021F0CE0101960E94AB03BE016F5F7F4FE1
S11309F08FE795E60E948A100DC0043140F4E1E0CF
S1130A00F0E0EC0FFD1FE00FF11D80830F5F8C33CE
S1130A1041F6C4CF6496CDBFDEBFDF91CF911F9165
S1130A200F91FF900895E0EEF5E081E18283168254
S1130A3083E0878382E08187E0E0F4E08CED8183CA
S1130A4082E2828388E0818B848B858BE0E4F4E00E
S1130A509189987F918B91899460918B9189977FEB
S1130A60918B9289987F928B92899460928B9289D0
S1130A70977F928B91E091839CE290936104E0EAEA
S1130A80F4E09EE0918390E39283848B858B0895B8
S1130A90E0E0F9E082E0808385E0868381E083837F
S1130AA08583089590E0880F991F862B809307090A
S1130AB048E853E160E070E009C041505109610920
S1130AC0710921F483E08093040905C0809105092C
S1130AD0807C99F380E09091050994FD81E09091E8
S1130AE005099C7009F082E0882319F093E0909343
S1130AF004098093A7650895282F9091050994FD12
S1130B0002C080E001C081E0909105099C7009F069
S1130B1082E0882319F093E090930409811114C0B2
S1130B202093080948E853E160E070E009C04150AF
S1130B3051096109710921F483E08093040904C017
S1130B409091050996FFF3CF8093A7650895CF93FD
S1130B50DF93C62FD42F60E00E945205811108C094
S1130B608C2F0E947C05811103C08D2F0E947C056F
S1130B70E0E0F9E0848183608483DF91CF9108957C
S1130B8080910804869591E08927817008950F93D8
S1130B901F93CF93DF938EE10E945C020E94880230
S1130BA0985004EF11E0B8010E94990EC8EAD5E606
S1130BB0688379838DE10E945C020E9488029850C8
S1130BC0B8010E94990E6A837B830E94C0058C83BE
S1130BD0DF91CF911F910F9108958091AA65909113
S1130BE0AB65181619061CF421E02093CE659923F1
S1130BF014F41092CE6508958091B16581110BC0F3
S1130C0084E08093660488E28A95F1F7EEEAF5E6DB
S1130C1081E08383148208958091B26581110BC0B1
S1130C2084E08093650488E28A95F1F7EEEAF5E6BC
S1130C3081E08483138208958091AF6581110DC092
S1130C40E0E0FAE08181806181838081816080833A
S1130C50EEEAF5E681E08183128208958091B06521
S1130C60811119C0E0E0FAE081818F7E8183808167
S1130C708E7F808388E0809366042FEF8EE994E270
S1130C80215080409040E1F700C00000EEEAF5E614
S1130C9081E0828311820895CF939091AE65981775
S1130CA099F0C82F0E942E06CC2321F080E2809375
S1130CB0650403C080E28093660488E28A95F1F7B4
S1130CC00E941C06C093AE65CF91089562E380E252
S1130CD09EE40E94170984E080936504089580E0EF
S1130CE00E9462020E948802BC0180E090E00E949F
S1130CF09E0D2AE939E949E95DE30E942C0E23E8B7
S1130D003DED4CE75FE30E942C0E0E946F0DCB017A
S1130D100895CF93DF9381E00E9462020E948802CB
S1130D20EC010E949C029E01281B390BC9019923E6
S1130D300CF403969595879595958795DF91CF91BA
S1130D4008950E94AF020E9413050E9466060E9445
S1130D50DD080E9448050E9454020E94060A0E946F
S1130D60260A0E9474070E94BB070E941C070E9467
S1130D70B7040E94C7050E941B020E94ED050E9451
S1130D80150BF3CF813051F028F0823059F08330C5
S1130D9069F0089581E080934504089581E080938B
S1130DA04604089580E480930504089580E48093C4
S1130DB006040895EF92FF921F93CF93DF93CDB76C
S1130DC0DEB72C97CDBFDEBF2CE0E9E9F3E6DE0108
S1130DD0119601900D922A95E1F76CEC74E60E944D
S1130DE0731010E01CC0E12FF0E0EE0FFF1F21E0B4
S1130DF030E02C0F3D1FE20FF31FE080F1804AE04A
S1130E0050E060E070E00E94540FF701608371834A
S1130E106CEC74E680E090E00E9473101F5F009712
S1130E2011F0163000F32C96CDBFDEBFDF91CF91C9
S1130E301F91FF90EF900895EF92FF920F931F93ED
S1130E40CF93DF93CDB7DEB76B97CDBFDEBFFE0187
S1130E5031968BE1DF011D928A95E9F708EE13E0E4
S1130E60E12CF12C0E94130A0150110939F1EE20F2
S1130E70E1F08D3779F481E00E94C206E1E0F0E010
S1130E80EC0FFD1FEF0DF11D1082CE0101960E94A3
S1130E90DA0614C0BAE1BF1540F0E1E0F0E0EC0F6F
S1130EA0FD1FEF0DF11D8083F3948B37D9F680E09D
S1130EB00E94C206EE24E394F12CD4CF6B96CDBFEE
S1130EC0DEBFDF91CF911F910F91FF90EF900895B6
S1130ED0482F60E08CE30E94A7050895482F60E442
S1130EE08CE30E94A7050895CF9360E08CE30E94F1
S1130EF05205C0E008C0EC2FF0E0E758FC498081BF
S1130F000E947C05CF5FCA31B0F3CF9108951F933F
S1130F10CF93DF93D82F80EE8D0F803628F0D03B0F
S1130F2019F0D03C08F4D0E2D03B21F0D03C20F4BE
S1130F3010E203C010E501C01FE5C0E013C08D2F0F
S1130F4090E0811B9109FC01EE0FFF1FEE0FFF1FC4
S1130F50E80FF91FEC5AFF49EC0FF11D80810E9444
S1130F606E07CF5FC53058F380E00E946E07DF91B3
S1130F70CF911F9108950F931F93CF93DF9300E0B8
S1130F8010E016C080EB800F0E94680780E00E948A
S1130F90680780E10E946807C0E0D0E004C080E0F8
S1130FA00E946E072196C038D105CCF30F5F1F4F06
S1130FB0083011053CF3DF91CF911F910F910895F3
S1130FC00F931F93CF93DF938C01D62FC0E005C0FE
S1130FD00E9487070F5F1F4FCF5FF801808188232E
S1130FE039F0CD17A8F304C080E20E948707CF5FD1
S1130FF0CD17D0F3DF91CF911F910F9108950F93E7
S11310001F93CF93DF938C01262FC42F80E890E0A9
S1131010841B910966E070E00E94990ED62F822FFE
S1131020806B0E9468078C2F82958F7080610E946C
S113103068078C2F8F700E9468076D2FC8010E946B
S1131040E007DF91CF911F910F910895AC0190E0DB
S113105001C09F5FFA01E90FF11D20812111F9CF31
S1131060892F880F980F292F220F613019F06230D1
S113107069F00FC080E890E0AC01421B5109CA013D
S113108099230CF4019695958795089580E8821B21
S1131090089580E008951F93CF93DF93EC01162FFA
S11310A0642F0E942608482F612FCE010E94FF075B
S11310B0DF91CF911F910895CF93DF93CDB7DEB722
S11310C0E297CDBFDEBF9E01255C3F4F4FA958ADCF
S11310D062E370E0CE0101960E94D5104AAD69AD7D
S11310E0CE0101960E944B08E296CDBFDEBFDF9190
S11310F0CF9108958091C665811111C082E08093DB
S1131100A6042FEF8BE49DE1215080409040E1F74D
S113111000C00000E3ECF5E681E0838314820895C7
S11311208091C765811108C082E08093A504E3EC37
S1131130F5E681E08483138208958091C46581116A
S11311400EC080918E0B80FFFCCFE0E8FBE0808135
S113115081608083E3ECF5E681E081831282089567
S11311608091C56581110EC080918E0B80FFFCCFEC
S1131170E0E8FBE080818E7F8083E3ECF5E681E0AC
S1131180828311820895CF939091C365981799F043
S1131190C82F0E94B008CC2321F088E08093A504D6
S11311A003C088E08093A60480E28A95F1F70E9448
S11311B09D08C093C365CF91089542E360E079E14F
S11311C080E090E00E94A709089580E00E947202E6
S11311D00E948802BC0180E090E00E949E0D2FE8EE
S11311E032EC45E35EE30E942C0E26E636E646E842
S11311F05FE30E942C0E0E946F0DCB010895CF93E4
S1131200DF9381E00E9472020E948802EC010E9436
S11312109C029E01281B390BC90199230CF40396E7
S11312209595879595958795DF91CF9108958F92A0
S11312309F92AF92BF92CF92DF92EF92FF920F9361
S11312401F93CF93DF93CDB7DEB76897CDBFDEBFD3
S11312507C01C62E80E1E5EAF3E6DE0111960190F9
S11312600D928A95E1F788E0E5EBF3E6DE0151960D
S113127001900D928A95E1F7D12C38C00D2D10E024
S1131280F801EE0FFF1F81E090E08C0F9D1FE80F27
S1131290F91F2081318140E050E060E076E38EE682
S11312A091E00E94CF0E4701A12CB12CCA01B901D3
S11312B0A50194010E94AD0EDA01C9010197A109AB
S11312C0B109BA01A90142505109610971094F3F9D
S11312D051056105710548F4F82EE1E1F0E0EC0FE9
S11312E0FD1FE00FF11F108106C0D39497E09D15F8
S11312F028F6F12C10E02F2D30E0AC2DB0E00E9448
S1131300EE0E24E630E040E050E00E94AD0EF2160E
S113131008F42F2D83E08093E705E0E0FAE081E014
S1131320838380E18183F7A221A7116010836896EB
S1131330CDBFDEBFDF91CF911F910F91FF90EF9052
S1131340DF90CF90BF90AF909F908F900895CF92F1
S1131350DF92EF92FF920F931F93CF93DF93142F9B
S1131360DC01CB01880F991FAA1FBB1F880F991F8F
S1131370AA1FBB1F9C01AD01220F331F441F551F21
S113138060E076E38EE691E00E94AD0EE9012197DC
S1131390612F70E080E090E00E94A00D20E030E03A
S11313A048EC52E40E94FD0C6B017C01BE0180E01C
S11313B090E00E949E0DA70196010E942C0E0E94AF
S11313C06F0D6F5F7F4FCE01861B970B019700E86F
S11313D01BE0F801C6A7D7A784A795A760A771A7A4
S11313E060E482E99BE00E94951383E0F801818325
S11313F068E680E89BE00E949513DF91CF911F91EE
S11314000F91FF90EF90DF90CF900895E0E0F8E027
S113141083E896E08087918781E0858382EC8683E8
S113142083E08783089580E88093040888EE93E03E
S1131430A0E0B0E004C00197A109B10921F0209116
S113144004082223C4F7809100080895E0E2F8E03C
S113145081EA91E08087918782E8868383E08783AD
S1131460089580E88093240880E990EDA3E0B0E03B
S113147008C00197A109B10921F481E0809379653D
S113148004C0209124082223A4F780912008089501
S11314901F93CF93DF93CDB7DEB76097CDBFDEBF89
S11314A0182FFE01319680E1DF011D928A95E9F73C
S11314B08091CF6581130E94BB07112321F0113065
S11314C009F451C0A8C0A9EBB5E612968D919C9180
S11314D0139789839A83E8E6F5E6808191818B836B
S11314E09C838D919C918D839E83848195818F8330
S11314F0988720E018C0822F90E0FC013196EE0F0F
S1131500FF1FE253FA4940815181880F991FE1E09E
S1131510F0E0EC0FFD1FE80FF91F8081918148175F
S1131520590729F42F5F243030F380E001C081E0B3
S113153090E016C0292F30E0F901EE0FFF1F41E0C3
S113154050E04C0F5D1FE40FF51F40815181F901FC
S11315503196EE0FFF1FE253FA49408351839F5F98
S1131560943040F359C0E8E6F5E680859185898397
S11315709A83828593858B839C83E3ECF5E685814E
S113158096818D839E83878190858F839887EEEAE9
S1131590F5E68581968189879A87878190858B87EF
S11315A09C8720E018C0822F90E0FC013196EE0F5A
S11315B0FF1FE253FA4940815181880F991FE1E0EE
S11315C0F0E0EC0FFD1FE80FF91F808191814817AF
S11315D0590729F42F5F263030F380E001C081E001
S11315E090E016C0292F30E0F901EE0FFF1FA1E0B3
S11315F0B0E0AC0FBD1FEA0FFB1F40815181F90120
S11316003196EE0FFF1FE253FA49408351839F5FE7
S1131610963040F301C080E01093CF656096CDBF53
S1131620DEBFDF91CF911F910895CF92DF92EF92A9
S1131630FF920F931F93CF93DF938091CE658823FE
S113164021F0813009F452C0CFC180E00E94480AE1
S1131650882309F4C9C11F9212E01F938EEC94E60B
S11316609F938F930E945C080F2EF8E6CF2EF5E629
S1131670DF2EF02DD60111968C9111978F938C91BA
S11316808F930F2EF9EBEF2EF5E6FF2EF02DF701D9
S113169083818F9382818F931F931F93C9EDD4E627
S11316A0DF93CF930E945C081F9203E00F9382EEB6
S11316B094E69F938F930E945C08D60115968C91B3
S11316C015978F9314968C918F93F70181818F9343
S11316D080818F931F930F93DF93CF930E945C08B5
S11316E08DB79EB748968DBF9EBF7EC181E00E9494
S11316F0480A882309F478C11F921F928BEE94E65E
S11317009F938F930E945C08C8E6D5E64885598567
S11317109A01ADECBCEC0E94EE0E969587959695D9
S11317208795969587959C01220F331F880F991FE3
S1131730880F991F880F991F820F931FDA01A81B26
S1131740B90BCD019F93AF939A01ADECBCEC0E9411
S1131750EE0E9695879596958795969587959F9382
S11317608F9382E08F931F9288EF94E69F938F93D9
S11317700E945C081F9281E08F9381E095E69F931D
S11317808F930E945C084A855B859A01369527955C
S113179036952795ABE7B4E10E94EE0E96958795B2
S11317A064E6689F9001699F300D1124CA01821B71
S11317B0930B9C0122F422273327281B390B3F93D8
S11317C02F939A013695279536952795ABE7B4E183
S11317D00E94EE0E969587959F938F93C2E0CF93C8
S11317E081E08F938EE095E69F938F930E945C082F
S11317F01F92CF9387E195E69F938F930E945C0895
S11318001F92D3E0DF938DE295E69F938F930E941E
S11318105C0803EC15E6F801458156812DB73EB707
S1131820205E3F4F2DBF3EBF9A01ADECBCEC0E9441
S1131830EE0E9695879596958795969587959C0136
S1131840220F331F880F991F880F991F880F991F24
S1131850820F931FDA01A81BB90BCD019F93AF939D
S11318609A01ADECBCEC0E94EE0E96958795969588
S11318708795969587959F938F93CF93DF9388EF62
S113188094E69F938F930E945C081F9284E08F9349
S11318908BE395E69F938F930E945C08D80117967B
S11318A0ED91FC911897CF0164E670E00E94990EC7
S11318B09C01992324F422273327281B390B3F93B7
S11318C02F93C4E6D0E0CF01BE010E94990E7F930E
S11318D06F936894EE24E1F8EF9284E08F938EE0A6
S11318E095E69F938F930E945C081F9285E08F93E7
S11318F087E195E69F938F930E945C081F920F2EB9
S1131900F6E0FF2EF02DFF928AE495E69F938F93E5
S11319100E945C080EEA15E6F801458156819A0199
S1131920ADECBCEC0E94EE0E969587959695879546
S1131930969587959C01220F331F880F991F880F56
S1131940991F880F991F820F931F9A01281B390B27
S1131950C9019F932F939A010E94EE0E9695879545
S113196096958795969587959F938F93EF92FF927F
S113197088EF94E69F938F930E945C088DB79EB77F
S113198084968DBF9EBF1F9287E08F9387E595E66F
S11319909F938F930E945C08D8011796ED91FC9158
S11319A01897CF01BE010E94990E9C01992324F43B
S11319B022273327281B390B3F932F93CF0164E64B
S11319C070E00E94990E7F936F9382E08F9387E07B
S11319D08F938EE095E69F938F930E945C08EDB7FA
S11319E0FEB73C96EDBFFEBFDF91CF911F910F91E3
S11319F0FF90EF90DF90CF9008950E94110D0C940A
S1131A00F20D0E94EB0D58F00E94E40D40F029F411
S1131A105F3F29F00C94DB0D51110C94260E0C94AD
S1131A20E10D0E94030E68F39923B1F3552391F35A
S1131A30951B550BBB27AA2762177307840738F039
S1131A409F5F5F4F220F331F441FAA1FA9F335D096
S1131A500E2E3AF0E0E832D091505040E695001C4A
S1131A60CAF72BD0FE2F29D0660F771F881FBB1F04
S1131A70261737074807AB07B0E809F0BB0B802DE2
S1131A80BF01FF2793585F4F3AF09E3F510578F00E
S1131A900C94DB0D0C94260E5F3FE4F3983ED4F3D4
S1131AA0869577956795B795F7959F5FC9F7880FE2
S1131AB0911D9695879597F90895E1E0660F771F34
S1131AC0881FBB1F621773078407BA0720F0621BC5
S1131AD0730B840BBA0BEE1F88F7E09508950E94F0
S1131AE00B0E88F09F5798F0B92F9927B751B0F093
S1131AF0E1F0660F771F881F991F1AF0BA95C9F78E
S1131B0014C0B13091F00E94250EB1E008950C94F8
S1131B10250E672F782F8827B85F39F0B93FCCF3AB
S1131B20869577956795B395D9F73EF4909580950A
S1131B30709561957F4F8F4F9F4F0895E89409C02A
S1131B4097FB3EF490958095709561957F4F8F4FEC
S1131B509F4F9923A9F0F92F96E9BB279395F69502
S1131B60879577956795B795F111F8CFFAF4BB0F80
S1131B7011F460FF1BC06F5F7F4F8F4F9F4F16C0E4
S1131B80882311F096E911C0772321F09EE8872F6E
S1131B90762F05C0662371F096E8862F70E060E02A
S1131BA02AF09A95660F771F881FDAF7880F9695A3
S1131BB0879597F9089597F99F6780E870E060E04A
S1131BC008959FEF80EC089500240A9416161706D2
S1131BD018060906089500240A941216130614061A
S1131BE005060895092E0394000C11F4882352F07D
S1131BF0BB0F40F4BF2B11F460FF04C06F5F7F4F35
S1131C008F4F9F4F089557FD9058440F551F59F01B
S1131C105F3F71F04795880F97FB991F61F09F3FD5
S1131C2079F087950895121613061406551FF2CFFE
S1131C304695F1DF08C0161617061806991FF1CF4E
S1131C4086957105610508940895E894BB27662775
S1131C507727CB0197F908950E943F0E0C94F20D5B
S1131C600E94E40D38F00E94EB0D20F0952311F052
S1131C700C94DB0D0C94E10D11240C94260E0E949F
S1131C80030E70F3959FC1F3950F50E0551F629FAB
S1131C90F001729FBB27F00DB11D639FAA27F00DC1
S1131CA0B11DAA1F649F6627B00DA11D661F829FE8
S1131CB02227B00DA11D621F739FB00DA11D621FCD
S1131CC0839FA00D611D221F749F3327A00D611DEA
S1131CD0231F849F600D211D822F762F6A2F1124CC
S1131CE09F5750409AF0F1F088234AF0EE0FFF1FFF
S1131CF0BB1F661F771F881F91505040A9F79E3F56
S1131D00510580F00C94DB0D0C94260E5F3FE4F338
S1131D10983ED4F3869577956795B795F795E795AB
S1131D209F5FC1F7FE2B880F911D9695879597F9B4
S1131D30089597FB072E16F4009407D077FD09D079
S1131D400E94400F07FC05D03EF4909581959F4F6B
S1131D500895709561957F4F0895A1E21A2EAA1BEC
S1131D60BB1BFD010DC0AA1FBB1FEE1FFF1FA21747
S1131D70B307E407F50720F0A21BB30BE40BF50B44
S1131D80661F771F881F991F1A9469F760957095CD
S1131D90809590959B01AC01BD01CF010895052E5E
S1131DA097FB1EF400940E94E60E57FD07D00E9494
S1131DB0AD0E07FC03D04EF40C94E60E50954095FE
S1131DC0309521953F4F4F4F5F4F089590958095E3
S1131DD0709561957F4F8F4F9F4F0895A29FB001DB
S1131DE0B39FC001A39F700D811D1124911DB29F4B
S1131DF0700D811D1124911D08950F93083090F0EA
S1131E00982F872F762F652F542F432F322F222779
S1131E100850F4CF220F331F441F551F661F771F2E
S1131E20881F991F0A95B2F70F91089597FB10F830
S1131E30169400080F93083098F00850232F342F7D
S1131E40452F562F672F782F892F902DF4CF059487
S1131E5097958795779567955795479537952795DE
S1131E600A95AAF70F9108950024A7FD00942A1754
S1131E7030054005500560057005800590050895FE
S1131E80AA1BBB1B51E107C0AA1FBB1FA617B7079C
S1131E9010F0A61BB70B881F991F5A95A9F78095B8
S1131EA09095BC01CD010895A0E0B0E0EAE5FFE023
S1131EB00C94B7135C016B017A016115710519F07B
S1131EC0FB0180839183E114F10429F0C701029797
S1131ED0839708F0E5C0E5012196F5011081812F73
S1131EE090E00E946A10892B11F05E01F4CF1D323C
S1131EF029F42196F501118101E007C01B3221F478
S1131F00E5012296F501118100E0E114F10409F1E3
S1131F10F0E1EF16F10429F43FC010E3E114F104F9
S1131F2021F128E0E216F10401F154F4E2E0EE16A6
S1131F30F10421F5812C912CA12CB0E4BB2E3EC0E0
S1131F40FAE0EF16F10439F020E1E216F104B1F4FD
S1131F5030C0103319F1FAE0EF2EF12CACEC8A2EDC
S1131F60982CA82CACE0BA2E29C078E0E72EF12CEE
S1131F70812C912CA12CE0E1BE2E20C060E070E009
S1131F8080E090E897010F2C000C440B550B0E9445
S1131F90AD0E49015A0112C0103359F488818F7D66
S1131FA0883509F0BACF19812296026080E1E82EC3
S1131FB0F12C812C912CA12C68E0B62E40E060E03D
S1131FC070E0CB0127010F2C000C66087708FE0196
S1131FD050ED352E310E29E0231570F42FEB210F2F
S1131FE02A3118F439EC332E06C02FE9210F2A3197
S1131FF018F529EA322E310E232D30E02E153F0537
S1132000DCF447FD16C086169706A806B90670F0DC
S1132010A30192010E949B13630D711D811D911DEB
S113202061307105810520E8920710F04FEF01C07F
S113203041E021961081CBCF202F2170C114D1040F
S113204071F0442329F02197F601C083D18307C09E
S113205001FF19C02297F601C083D18314C047FF42
S113206012C0222329F060E070E080E090E804C010
S11320706FEF7FEF8FEF9FE722E230E02093E06580
S11320803093E16509C0222381F090958095709585
S113209061957F4F8F4F9F4F462F372F282F12C0A8
S11320A040E030E020E090E00DC097FFF5CF82E201
S11320B090E08093E0659093E1656FEF7FEF8FEFA1
S11320C09FE7EACF642F732F822FCDB7DEB7E1E10C
S11320D00C94D01391110C94E212803219F08950AF
S11320E08550C8F7089546E655E60E94AE10089557
S11320F0FB01DC0102C001900D9241505040D8F721
S11321000895FB01DC018D91019080190110D9F330
S1132110990B0895FB01DC0101900D920020E1F779
S11321200895FB01DC014150504030F08D91019045
S1132130801919F40020B9F7881B990B0895FB0145
S1132140DC014150504048F001900D920020C9F745
S113215001C01D9241505040E0F70895FA01A19149
S1132160B081009719F41097E1F0CD01DC01CD01A5
S11321700D90002011F4C00113C0FB012191222312
S113218019F02015D9F7F3CFFB012191201519F48B
S11321901E92119606C02223C1F70D900020A1F7CC
S11321A0D001FA01A193B0830895AEE0B0E0EBED65
S11321B0F0E10C94C4138C01FA0186E08C8309834A
S11321C01A8377FF02C060E070E8CB0101978D832A
S11321D09E83A901BF01CE0101960E9401114D8188
S11321E05E8157FD0AC02F813885421753070CF4CE
S11321F09A01F801E20FF31F10822E96E4E00C948A
S1132200DD13ABE0B0E0E7E0F1E10C94B6136C0150
S11322107B018A01FC0116821782838181FFCCC174
S1132220CE0101963C01F6019381F70193FD85915E
S113223093FF81917F01882309F4BAC1853239F46F
S113224093FD859193FF81917F01853229F4B60135
S113225090E00E94FB12E7CF912C212C312CFFE15E
S1132260F315D8F08B3279F038F4803279F0833278
S1132270A1F4232D20611DC08D3261F0803369F4F7
S1132280232D216016C0832D8260382EE32DE46057
S11322903E2E2AC0F32DF8601DC037FC2DC020ED62
S11322A0280F2A3040F08E32B9F436FC81C1232D38
S11322B02064322E19C036FE06C08AE0989E200D96
S11322C01124922E11C0EAE02E9E200D1124222EFC
S11322D0F32DF0623F2E08C08C3621F4832D8068E4
S11322E0382E02C0883641F4F70193FD859193FF9F
S11322F081917F018111B3CF982F9F7D95549330A5
S113230028F40C5F1F4F9FE399830DC0833631F08F
S1132310833771F0833509F059C021C0F8018081F9
S113232089830E5F1F4F88248394912C530113C01B
S11323302801F2E04F0E511CF801A080B18036FE56
S113234003C0692D70E002C06FEF7FEFC5010E94EA
S1132350F0124C018201F32DFF773F2E16C02801A5
S113236022E0420E511CF801A080B18036FE03C069
S1132370692D70E002C06FEF7FEFC5010E94E51286
S11323804C01F32DF0683F2E820133FC1BC0822DDB
S113239090E088169906B0F4B60180E290E00E94BD
S11323A0FB122A94F4CFF50137FC859137FE819115
S11323B05F01B60190E00E94FB1221102A9421E0F3
S11323C0821A91088114910471F7E8C0843611F0DF
S11323D0893641F5F80137FE07C060817181828139
S11323E093810C5F1F4F08C060817181072E000C20
S11323F0880B990B0E5F1F4FF32DFF763F2E97FF2F
S113240009C090958095709561957F4F8F4F9F4F30
S1132410F0683F2E2AE030E0A3010E943713882E93
S1132420861845C0853731F4232D2F7EB22E2AE03D
S113243030E025C0932D997FB92E8F36C1F018F462
S1132440883579F0B5C0803719F0883721F0B0C0ED
S1132450E92FE061BE2EB4FE0DC0FB2DF460BF2E4B
S113246009C034FE0AC0292F2660B22E06C028E017
S113247030E005C020E130E002C020E132E0F801A4
S1132480B7FE07C060817181828193810C5F1F4F09
S113249006C06081718180E090E00E5F1F4FA30150
S11324A00E943713882E8618FB2DFF773F2E36FEA9
S11324B00DC0232D2E7FA22E891458F434FE0BC098
S11324C032FC09C0832D8E7EA82E05C0B82CA32C07
S11324D003C0B82C01C0B92CA4FE0FC0FE01E80D46
S11324E0F11D8081803321F49A2D997EA92E09C093
S11324F0A2FE06C0B394B39404C08A2D867809F072
S1132500B394A3FC11C0A0FE06C0B21488F4280C36
S1132510922C9B180EC0B21460F4B60180E290E0D5
S11325200E94FB12B394F7CFB21418F42B1802C014
S1132530982C212CA4FE10C0B60180E390E00E94E8
S1132540FB12A2FE17C0A1FC03C088E790E002C002
S113255088E590E0B6010CC08A2D867859F0A1FE7A
S113256002C08BE201C080E2A7FC8DE2B60190E0DC
S11325700E94FB12891438F4B60180E390E00E94B3
S1132580FB129A94F7CF8A94F301E80DF11D808130
S1132590B60190E00E94FB128110F5CF222009F4CD
S11325A042CEB60180E290E00E94FB122A94F6CF5C
S11325B0F6018681978102C08FEF9FEF2B96E2E1AF
S11325C00C94CF13992788270895FC010590615036
S11325D070400110D8F7809590958E0F9F1F089535
S11325E0FC016150704001900110D8F780959095DE
S11325F08E0F9F1F08950F931F93CF93DF93FB01BB
S1132600238121FD03C08FEF9FEF2CC022FF16C052
S113261046815781248135814217530744F4A081B0
S1132620B1819D012F5F3F4F208331838C9326819D
S113263037812F5F3F4F2683378314C08B01EC0112
S1132640FB010084F185E02D0995892BE1F6D80181
S113265016968D919C911797019616968D939C933F
S11326601797CE01DF91CF911F910F910895FA0131
S1132670AA27283051F1203181F1E8946F936E7FBD
S11326806E5F7F4F8F4F9F4FAF4FB1E03ED0B4E0AE
S11326903CD0670F781F891F9A1FA11D680F791FEF
S11326A08A1F911DA11D6A0F711D811D911DA11D00
S11326B020D009F468943F912AE0269F1124301910
S11326C0305D3193DEF6CF010895462F4770405DAB
S11326D04193B3E00FD0C9F7F6CF462F4F70405D5A
S11326E04A3318F0495D31FD4052419302D0A9F7B5
S11326F0EACFB4E0A6959795879577956795BA95AF
S1132700C9F700976105710508959B01AC010A2E74
S113271006945795479537952795BA95C9F7620F4B
S1132720731F841F951FA01D0895DC0128ED2093BD
S113273034006C930895DB018F939F930E94AB1335
S1132740BF91AF91A29F800D911DA39F900DB29F49
S1132750900D112408950E94EE0EA59F900DB49F34
S1132760900DA49F800D911D112408952F923F92E6
S11327704F925F926F927F928F929F92AF92BF928D
S1132780CF92DF92EF92FF920F931F93CF93DF9339
S1132790CDB7DEB7CA1BDB0BCDBFDEBF09942A88D9
S11327A0398848885F846E847D848C849B84AA8461
S11327B0B984C884DF80EE80FD800C811B81AA81EE
S11327C0B981CE0FD11DCDBFDEBFED010895F894C0
S10527D0FFCF35
S11327D2017A0890089D08B008C308E508FF086C50
S11327E2656E657D6552604F6051600000040000B3
S11327F200C865CA6500FC050C061C062E064C06BC
S11328026F06890668656A657C654D604A604C603E
S1132812000002000000B365B5651E00010000B4AB
S113282200010000000000000000005F000000073B
S1132832000700147F147F14242A7F2A122313080A
S1132842646236495522500005030000001C2241EF
S1132852000041221C0014083E081408083E08081F
S113286200503000000808080808006060000020DA
S1132872100804023E5149453E00427F4000426135
S11328825149462141454B311814127F10274545C1
S113289245393C4A494930017109050336494949D8
S11328A236064949291E0036360000005636000015
S11328B208142241001414141414004122140802AE
S11328C201510906324979413E7E1111117E7F4937
S11328D24949363E414141227F4141221C7F4949B7
S11328E249417F090909013E4149497A7F0808089B
S11328F27F00417F41002040413F017F0814224173
S11329027F404040407F020C027F7F0408107F3EDC
S11329124141413E7F090909063E4151215E7F0939
S1132922192946464949493101017F01013F404085
S1132932403F1F2040201F3F4038403F631408148B
S11329426307087008076151494543007F4141000C
S113295202040810200041417F00040201020440E5
S113296240404040000307000020545454787F48FC
S11329724444383844444420384444487F38545406
S11329825418087E090102081454543C7F080404B4
S11329927800447D40002040443D007F10284400DC
S11329A200417F40007C041804787C0804047838D1
S11329B2444444387C14141408081414187C7C0805
S11329C20404084854545420043F4440203C4040EA
S11329D2207C1C2040201C3C4030403C44281028D1
S11329E2440C5050503C4464544C4400083641005A
S11329F200007F0000004136080008082A1C08086D
S1132A021C2A080806090906007E1111917E00415C
S1132A127FC1007E1111917E3E414141227E1111FE
S1132A22917E7E1111917E7F4949C9417F4949C9ED
S1132A327F3C434243247E4A4B4A4162534A4742C3
S1132A427E4A4B4A423E4149497A7F081422410058
S1132A52417F41007F40404040444B4A4B327F0417
S1132A6208107F7F0408107F3E4141413E3E4141B0
S1132A72413E3E4141413E3E4141413E44281028AF
S1132A82443F4040C03F7F40404040444B4A4B3269
S1132A923C4141413C3C4141413C62534A474262D0
S1132AA2534A47423649494936205454D47800445B
S1132AB27DC0002054545478384444442020545453
S1132AC254782054545478385454D418385455549F
S1132AD218384546452038545554184465564D44D3
S1132AE23854555418081454543C7F102844000098
S1132AF2447D400000417F400048555655207C08E3
S1132B020404787C0804047838444444383844443F
S1132B12443838444444383844444438003636004F
S1132B2200384040A07800417F400048545454206B
S1132B32384242227838424222784465564D44440F
S1132B4265564D44000503000000AEA83FD3004083
S1132B522000D9F1DB40A1C8DA1281FFA4A6D5F086
S1132B628D14AF040403030102B965BB65BD65BFDF
S1132B7265C065C165010002000400080010004040
S1132B82000001000400020406080A0C0E009BADBA
S1132B9236C15A6CF71982B42FD84375EE32A99F05
S1132BA204F3685EC52BB0861DEA7147DC64FFC975
S1132BB252A53E08937DE6D04BBC27118A56CDFB25
S1132BC260970C3AA14FD4E2798E1523B8C85365A5
S1132BD2FE0992A43FD14A7CE7108BBD26FA6157C5
S1132BE2CC3BA0960DE3784ED522B98F14AC3701B5
S1132BF29A6DF6C05BB52E188374EFD9429E0533E5
S1132C02A85FC4F269871C2AB146DDEB700B90A65B
S1132C123DCA5167FC1289BF24D3487EE539A29488
S1132C220FF86355CE20BB8D16E17A4CD76FF4C2F0
S1132C3259AE35039876EDDB40B72C1A815DC6F0A8
S1132C426B9C0731AA44DFE972851E28B3C3586E10
S1132C52F50299AF34DA4177EC1B80B62DF16A5C48
S1132C62C730AB9D06E87345DE29B2841FA73C0A30
S1132C729166FDCB50BE2513887FE4D249950E3868
S1132C82A354CFF9628C1721BA4DD6E07B30303091
S1132C923030303030303030303030007C00456CF1
S1132CA265766174696F6E3A002533642F2025338B
S1132CB26400417A696D7574683A00532E502E206F
S1132CC2566F6C74616765002533642E2530316458
S1132CD200532E502043757272656E743A00253388
S1132CE2642E25303264002D2D2D2D2D2D2D2D2DCC
S1132CF22D2D2D2D2D2D2D2D2D2D2D2D0053742EBD
S1132D024D2E20566F6C746167650053742E4D2EE0
S1132D122043757272656E743A004C2E4D2E205605
S1132D226F6C74616765004C2E4D2E204375727270
S1092D32656E743A000016
S9030000FC
