:100000000C9448000C9465000C9465000C946500F9
:100010000C9465000C9465000C9465000C946500CC
:100020000C9465000C9465000C9465000C946500BC
:100030000C9465000C9465000C9465000C946500AC
:100040000C9465000C9465000C9465000C9465009C
:100050000C9465000C9465000C9465000C9465008C
:100060000C9465000C9465000C9465000C9465007C
:100070000C9465000C9465000C9465000C9465006C
:100080000C9465000C9465000C9465000C9465005C
:1000900011241FBECFEFCDBFDFE7DEBF14E6A0E027
:1000A000B0E6E8E0F0E202C005900D92A63DB1078F
:1000B000D9F724E6A6EDB4E601C01D92A83FB20729
:1000C000E1F70E9449050C9402100C94000068E6C8
:1000D00071E00E94C40A992314F488599E4F089530
:1000E0009C01261B370BC901992324F488279927E3
:1000F000821B930B68E671E00E94C40A853B910560
:1001000034F028E631E0A901481B590BCA010895D3
:10011000CF92DF92EF92FF920F931F93CF93DF93D3
:10012000C091EE642DE2C29FE0011124CE01865AF7
:100130009F4F0E9467008C01CE018A5591090E9451
:100140006700EC01C8014E979E012E5131098D3296
:1001500041E09407E8F42D323140D0F4E09008609B
:10016000F0900960B801C7010E9470006C01BE01E7
:10017000C7010E9470008C159D051CF0902F812FE7
:1001800002C09C2F8D2F90930260809303600CC05F
:100190008D32914028F4009302601093036004C0F4
:1001A000C0930260D0930360DF91CF911F910F91B4
:1001B000FF90EF90DF90CF900895209104603091F0
:1001C000056080910060909101602817390729F43B
:1001D0000E9408050E94E30427C0AC014250510967
:1001E0002417350720F0029682179307E8F40E943F
:1001F000D0040E94F6042091046030910560809143
:10020000006090910160AC014250510924173507FC
:1002100020F481E00E94260507C00296821793070A
:1002200018F480E00E942605209108603091096052
:1002300080910260909103602817390729F40E9489
:10024000CD070E94A7070895AC0145505109241716
:10025000350720F0059682179307E8F40E9494076B
:100260000E94BA0720910860309109608091026075
:1002700090910360AC01455051092417350720F4D3
:1002800081E00E94E307089505968217930718F40A
:1002900080E00E94E307089580911560882321F093
:1002A00080911460811132C08091ED64803148F0FA
:1002B0000E94880084E190E0809300609093016048
:1002C00008958091EF649091F0648C32914080F0B9
:1002D000A7EEB4E68D919C911197E0E0F0E6828361
:1002E000938312968D919C911397808391830CC078
:1002F000E0E0F0E684EB90E0828393838091EB640E
:100300009091EC64808391830E94DD000895E0E089
:10031000F6E087E0818381E082838083089595E021
:100320009093B00080930806089581E080930A06B8
:1003300080910D0680FFFCCFE0E0F6E081E085874C
:1003400080899189929582958F7089279F708927DE
:1003500008956BE080E890E00E94B00F63E080E6D3
:1003600090E00E94B00F8091650080FDFCCF089561
:100370002F923F924F925F926F927F928F929F92B5
:10038000AF92BF92CF92DF92EF92FF920F931F93A3
:10039000CF93DF93CDB7DEB72B97CDBFDEBFC22E95
:1003A000B32EA42E952E862E772E682E592EF22E41
:1003B000032F142F5A876983B72FD82EE92EE0E038
:1003C000F0E014C031962F2D302F412F5A856981CE
:1003D0007B2F8D2D9E2D08E00E94430BF22E032FC4
:1003E000142F5A876983B72FD82EE92E2F2D302F3F
:1003F000412F5A8569817B2F8D2D9E2DA0E00E9473
:100400005F0B01F78FEF8A87CB86B9824A2C392C94
:10041000282C1AC08D01000F111F000F111F000F93
:10042000111F2B853981442D532D622D772D862D5B
:10043000952D0E94430B8A848226912CF401E0586A
:10044000FC4980818A87FD01DF011197EF2B11F7AD
:100450008A852B96CDBFDEBFDF91CF911F910F9183
:10046000FF90EF90DF90CF90BF90AF909F908F90D4
:100470007F906F905F904F903F902F9008950F93D3
:10048000CF93C22F0E94B801801302C08C2F01C0ED
:1004900080E0CF910F9108950F93CF93DF93FC01EC
:1004A00020E030E040E050E060E070E080E090E08C
:1004B0003AC004E00E94280BE0EDEC0FEA3070F443
:1004C000D0E0E097ED2FEE0FEE0B2C2B3D2B4E2BBB
:1004D0005E2B6E2B7E2B8E2B9E2B24C0EFEBEC0F16
:1004E000E63070F4D0E0E797ED2FEE0FEE0B2C2BFB
:1004F0003D2B4E2B5E2B6E2B7E2B8E2B9E2B12C0FC
:10050000EFE9EC0FE630A8F4D0E0C755D109ED2FA4
:10051000EE0FEE0B2C2B3D2B4E2B5E2B6E2B7E2BE2
:100520008E2B9E2BFD01DF011196C081C111C1CF21
:1005300008C020E030E040E050E060E070E080E0A3
:1005400090E0DF91CF910F9108957F928F929F92CB
:10055000AF92BF92CF92DF92EF92FF920F931F93D1
:10056000CF93DF93CDB7DEB7A097CDBFDEBF6C01D1
:100570004EE050E060E874E60E94AC0C892B21F458
:1005800081E080931460DCC086E0E6E5F3E6DE01FE
:100590005B9601900D928A95E1F74FE050E0B6012D
:1005A000CE0101960E94BA0C188ACE0101960E94D3
:1005B0004C02722E832E942EA52EB62EE72EF82EE8
:1005C000192F42E050E0B601615F7F4FCE010196E6
:1005D0000E94BA0C1B8240E150E060E070E0CE0166
:1005E00001960E947F0B062F272D382D492D5A2D5D
:1005F0006B2D7E2D8F2D912F0E943F02811169C09E
:100600009CC05E0181E1A80EB11C8AE0F501119247
:100610008A95E9F7EBE1F0E0EC0FFD1FE10FF11D2A
:10062000E080F12CA701B601C5010E94A30CF501E1
:10063000EE0DFF1D1082123029F128F4112341F034
:10064000113099F042C0133051F11430A9F13DC07E
:1006500040E150E060E070E0CE0141960E947F0BE7
:10066000609306607093076030C040E150E060E046
:1006700070E0CE0141960E947F0B60930A607093F8
:100680000B6023C040E150E060E070E0CE01419695
:100690000E947F0B60930C6070930D6016C040E168
:1006A00050E060E070E0CE0141960E947F0B6093C5
:1006B0000E6070930F6009C040E150E060E070E0B0
:1006C000CE0141960E947F0B062FCE0CDF1C1F5FD0
:1006D00002C010E000E0163008F493CFE4E0F0E64A
:1006E000228133813695279536952795ABE7B4E17E
:1006F0000E94190B96958795808391832681378177
:1007000036952795369527950E94190B96958795CE
:1007100084839583802F8170848701FB882780F9EB
:10072000858702FB882780F9868703FB002700F96D
:100730000787108A128A118A03C081E080931660AD
:10074000A096CDBFDEBFDF91CF911F910F91FF909B
:10075000EF90DF90CF90BF90AF909F908F907F9061
:100760000895EF92FF920F931F93CF93DF93CDB72E
:10077000DEB76497CDBFDEBFFE01319684E1DF01B5
:100780001D928A95E9F704EF11E0E12CF12C03C0EA
:10079000EE24E394F12C0E9415090150110921F473
:1007A00081E0809315601EC0EE20C9F08E3361F4A5
:1007B000E1E0F0E0EC0FFD1FEF0DF11D1082CE0126
:1007C00001960E94A5020EC0B3E1BF1540F0E1E022
:1007D000F0E0EC0FFD1FEF0DF11D8083F3948C33DF
:1007E000D1F6D6CF6496CDBFDEBFDF91CF911F91FA
:1007F0000F91FF90EF900895E0EEF5E081E18283A4
:10080000168283E0878382E08187E0E0F4E08CED6C
:10081000818382E2828388E0818B848B858BE0E414
:10082000F4E09189987F918B91899460918B928962
:10083000987F928B92899460928B91E091839CE255
:1008400090936104E0EAF4E09EE0918390E3928368
:10085000848B858B0895E0E0F9E082E0808385E079
:10086000868381E083838583089590E0880F991FB4
:10087000862B8093070948E853E160E070E009C0E7
:10088000415051096109710921F483E08093040901
:1008900005C080910509807C99F380E0909105095D
:1008A00094FD81E0909105099C7009F082E0882315
:1008B00019F093E0909304098093D8640895282F49
:1008C0009091050994FD02C080E001C081E0909103
:1008D00005099C7009F082E0882319F093E0909359
:1008E0000409811114C02093080948E853E160E02D
:1008F00070E009C0415051096109710921F483E098
:100900008093040904C09091050996FFF3CF80936A
:10091000D8640895CF93DF93C62FD42F60E00E9450
:100920003504811108C08C2F0E945F04811103C01F
:100930008D2F0E945F04E0E0F9E08481836084836E
:10094000DF91CF91089580910804869591E08927E1
:10095000817008950F931F93CF93DF938EE10E94D0
:100960008F010E949501985004EF11E0B8010E9498
:10097000C40AC9EDD4E6688379838DE10E948F01B2
:100980000E9495019850B8010E94C40A6A837B8333
:100990000E94A3048C83DF91CF911F910F91089542
:1009A0008091E16481110EC084E0809366048FE53C
:1009B0009AEE0197F1F700C00000EEEDF4E681E059
:1009C0008383148208958091E26481110EC084E0D3
:1009D000809365048FE59AEE0197F1F700C000005F
:1009E000EEEDF4E681E08483138208958091DF6464
:1009F00081110DC0E0E0FAE0818180618183808116
:100A000081608083EEEDF4E681E0818312820895B7
:100A10008091E064811119C0E0E0FAE081818F7E6D
:100A2000818380818E7F808388E0809366042FEFAE
:100A30008EE994E2215080409040E1F700C0000030
:100A4000EEEDF4E681E0828311820895CF939091D8
:100A5000DE64981781F0C82F0E940805CC2321F08E
:100A600080E28093650403C080E2809366040E9464
:100A7000F604C093DE64CF91089562E380E29EE4C1
:100A80000E94FB07E0E6F4E088E0868384E085834B
:100A900008950E94A9010E94FC030E943D050E9446
:100AA000F3070E942B040E9487010E94EA080E941B
:100AB0000A090E948E060E94D5060E9436060E94F0
:100AC000B1030E94AA040E944C0100E010E6F80164
:100AD00081818F9380818F93C4E0D0E689818F9349
:100AE00088818F931F921F928FE894E69F938F9334
:100AF0000E947607F80183818F9382818F938D8185
:100B00008F938C818F931F9211E01F938DE994E650
:100B10009F938F930E9476078B858F938A858F93FF
:100B200089858F9388858F931F9282E08F938BEABC
:100B300094E69F938F930E947607C7EED4E68B814D
:100B40008F938A818F9389818F9388818F931F934D
:100B500084E08F938BEB94E69F938F930E947607AC
:100B60009F818E812DB73EB7205E3F4F2DBF3EBF88
:100B700029852F9328852F931F929F931F928F93E0
:100B80008D818F938C818F931F9385E08F9385EC5C
:100B900094E69F938F930E9476073FEF82E597E05C
:100BA000315080409040E1F700C00000EDB7FEB743
:100BB0003C96EDBFFEBF81CF813051F028F08230EE
:100BC00059F0833069F0089581E0809345040895D9
:100BD00081E080934604089580E48093050408959D
:100BE00080E4809306040895EF92FF921F93CF93C1
:100BF000DF93CDB7DEB72C97CDBFDEBF2CE0ECE5A1
:100C0000F3E6DE01119601900D922A95E1F763ED6E
:100C100074E60E949E0C10E01CC0E12FF0E0EE0F85
:100C2000FF1F21E030E02C0F3D1FE20FF31FE0809B
:100C3000F1804AE050E060E070E00E947F0BF70135
:100C40006083718363ED74E680E090E00E949E0C07
:100C50001F5F009711F0163000F32C96CDBFDEBF5A
:100C6000DF91CF911F91FF90EF900895EF92FF9247
:100C70000F931F93CF93DF93CDB7DEB76B97CDBFA5
:100C8000DEBFFE0131968BE1DF011D928A95E9F707
:100C900008EE13E0E12CF12C0E94F7080150110935
:100CA00039F1EE20E1F08D3779F481E00E94DC0526
:100CB000E1E0F0E0EC0FFD1FEF0DF11D1082CE0121
:100CC00001960E94F40514C0BAE1BF1540F0E1E0BE
:100CD000F0E0EC0FFD1FEF0DF11D8083F3948B37D7
:100CE000D9F680E00E94DC05EE24E394F12CD4CF09
:100CF0006B96CDBFDEBFDF91CF911F910F91FF901B
:100D0000EF900895482F60E08CE30E948A040895D4
:100D1000482F60E48CE30E948A040895CF9360E03A
:100D20008CE30E943504C0E008C0EC2FF0E0E45CE6
:100D3000FC4980810E945F04CF5FCA31B0F3CF913C
:100D400008951F93CF93DF93D82F80EE8D0F8036B9
:100D500028F0D03B19F0D03C08F4D0E2D03B21F091
:100D6000D03C20F410E203C010E501C01FE5C0E054
:100D700013C08D2F90E0811B9109FC01EE0FFF1F26
:100D8000EE0FFF1FE80FF91FE95EFF49EC0FF11DA1
:100D900080810E948806CF5FC53058F380E00E94B2
:100DA0008806DF91CF911F9108950F931F93CF93E2
:100DB000DF9300E010E016C080EB800F0E948206F7
:100DC00080E00E94820680E10E948206C0E0D0E0BE
:100DD00004C080E00E9488062196C038D105CCF37B
:100DE0000F5F1F4F083011053CF3DF91CF911F912A
:100DF0000F9108950F931F93CF93DF938C01D62FFC
:100E0000C0E005C00E94A1060F5F1F4FCF5FF80131
:100E10008081882339F0CD17A8F304C080E20E94B6
:100E2000A106CF5FCD17D0F3DF91CF911F910F9126
:100E300008950F931F93CF93DF938C01262FC42F18
:100E400080E890E0841B910966E070E00E94C40A8B
:100E5000D62F822F806B0E9482068C2F82958F70F6
:100E600080610E9482068C2F8F700E9482066D2FF7
:100E7000C8010E94FA06DF91CF911F910F9108954A
:100E8000AC0190E001C09F5FFA01E90FF11D2081E4
:100E90002111F9CF892F880F980F292F220F613048
:100EA00019F0623069F00FC080E890E0AC01421B9D
:100EB0005109CA0199230CF40196959587950895D7
:100EC00080E8821B089580E008951F93CF93DF93FD
:100ED000EC01162F642F0E944007482F612FCE018E
:100EE0000E941907DF91CF911F910895CF93DF934F
:100EF000CDB7DEB7E297CDBFDEBF9E01255C3F4F89
:100F00004FA958AD62E370E0CE0101960E94F00C4B
:100F10004AAD69ADCE0101960E946507E296CDBF4C
:100F2000DEBFDF91CF9108958091F46481110EC0EE
:100F300082E08093A6048FE59AEE0197F1F700C056
:100F40000000E1EFF4E681E083831482089580914C
:100F5000F56481110EC082E08093A5048FE59AEEBE
:100F60000197F1F700C00000E1EFF4E681E084832F
:100F7000138208958091F26481110EC080918E0BCE
:100F800080FFFCCFE0E8FBE0808181608083E1EFBF
:100F9000F4E681E08183128208958091F3648111E7
:100FA00011C0E0E8FBE080818E7F808380918E0B12
:100FB00080FFFCCF84E08093A604E1EFF4E681E0BB
:100FC0008283118208959091F164981759F08823D3
:100FD00021F098E09093A50403C098E09093A604B4
:100FE0008093F164089542E360E078EC80E090E063
:100FF0000E948B0808958F929F92AF92BF92CF92DA
:10100000DF92EF92FF920F931F93CF93DF93CDB7B1
:10101000DEB76897CDBFDEBF7C01C62E80E1E8E673
:10102000F3E6DE01119601900D928A95E1F788E0D2
:10103000E8E7F3E6DE01519601900D928A95E1F71B
:10104000D12C38C00D2D10E0F801EE0FFF1F81E00C
:1010500090E08C0F9D1FE80FF91F2081318140E047
:1010600050E060E076E38EE691E00E94FA0A4701E4
:10107000A12CB12CCA01B901A50194010E94D80A82
:10108000DA01C9010197A109B109BA01A9014250C8
:101090005109610971094F3F51056105710548F416
:1010A000F82EE1E1F0E0EC0FFD1FE00FF11F1081E1
:1010B00006C0D39497E09D1528F6F12C10E02F2D53
:1010C00030E0AC2DB0E00E94190B24E630E040E0A7
:1010D00050E00E94D80AF21608F42F2D83E0809386
:1010E000E705E0E0FAE081E0838380E18183F7A215
:1010F00021A7116010836896CDBFDEBFDF91CF912D
:101100001F910F91FF90EF90DF90CF90BF90AF9025
:101110009F908F900895CF92DF92EF92FF920F935E
:101120001F93CF93DF93142FDC01CB01880F991FFE
:10113000AA1FBB1F880F991FAA1FBB1F9C01AD01CF
:10114000220F331F441F551F60E076E38EE691E0C7
:101150000E94D80AE9012197612F70E080E090E0B9
:101160000E94CB0920E030E048EC52E40E942809BC
:101170006B017C01BE0180E090E00E94C909A701DB
:1011800096010E94570A0E949A096F5F7F4FCE0115
:10119000861B970B019700E81BE0F801C6A7D7A7AD
:1011A00084A795A760A771A760E482E99BE00E94ED
:1011B000B00F83E0F801818368E680E89BE00E943D
:1011C000B00FDF91CF911F910F91FF90EF90DF90C3
:1011D000CF900895E0E0F8E083E896E0808791877B
:1011E00081E0858382EC868383E08783089580E8AD
:1011F0008093040888EE93E0A0E0B0E004C001977B
:10120000A109B10921F0209104082223C4F780919B
:1012100000080895E0E2F8E081EA91E08087918794
:1012200082E8868383E08783089580E8809324089A
:1012300084EF91E0A0E0B0E004C00197A109B109FA
:1012400021F0209124082223C4F7809120080895DA
:101250000E943C090C941D0A0E94160A58F00E9434
:101260000F0A40F029F45F3F29F00C94060A51114F
:101270000C94510A0C940C0A0E942E0A68F39923CC
:10128000B1F3552391F3951B550BBB27AA27621782
:101290007307840738F09F5F5F4F220F331F441F8F
:1012A000AA1FA9F335D00E2E3AF0E0E832D09150C3
:1012B0005040E695001CCAF72BD0FE2F29D0660FB0
:1012C000771F881FBB1F261737074807AB07B0E8F3
:1012D00009F0BB0B802DBF01FF2793585F4F3AF0F9
:1012E0009E3F510578F00C94060A0C94510A5F3F1A
:1012F000E4F3983ED4F3869577956795B795F7957F
:101300009F5FC9F7880F911D9695879597F9089566
:10131000E1E0660F771F881FBB1F62177307840702
:10132000BA0720F0621B730B840BBA0BEE1F88F711
:10133000E09508950E94360A88F09F5798F0B92FDB
:101340009927B751B0F0E1F0660F771F881F991FFA
:101350001AF0BA95C9F714C0B13091F00E94500A42
:10136000B1E008950C94500A672F782F8827B85F52
:1013700039F0B93FCCF3869577956795B395D9F752
:101380003EF490958095709561957F4F8F4F9F4F5C
:101390000895E89409C097FB3EF490958095709568
:1013A00061957F4F8F4F9F4F9923A9F0F92F96E9B1
:1013B000BB279395F695879577956795B795F11126
:1013C000F8CFFAF4BB0F11F460FF1BC06F5F7F4FC3
:1013D0008F4F9F4F16C0882311F096E911C07723D5
:1013E00021F09EE8872F762F05C0662371F096E8DE
:1013F000862F70E060E02AF09A95660F771F881FAD
:10140000DAF7880F9695879597F9089597F99F676A
:1014100080E870E060E008959FEF80EC089500247C
:101420000A941616170618060906089500240A9449
:1014300012161306140605060895092E0394000CCF
:1014400011F4882352F0BB0F40F4BF2B11F460FF5E
:1014500004C06F5F7F4F8F4F9F4F089557FD905887
:10146000440F551F59F05F3F71F04795880F97FB68
:10147000991F61F09F3F79F0879508951216130622
:101480001406551FF2CF4695F1DF08C01616170651
:101490001806991FF1CF8695710561050894089586
:1014A000E894BB2766277727CB0197F908950E9418
:1014B0006A0A0C941D0A0E940F0A38F00E94160A4C
:1014C00020F0952311F00C94060A0C940C0A1124B8
:1014D0000C94510A0E942E0A70F3959FC1F3950F48
:1014E00050E0551F629FF001729FBB27F00DB11DA8
:1014F000639FAA27F00DB11DAA1F649F6627B00D38
:10150000A11D661F829F2227B00DA11D621F739F20
:10151000B00DA11D621F839FA00D611D221F749F2E
:101520003327A00D611D231F849F600D211D822F75
:10153000762F6A2F11249F5750409AF0F1F088239C
:101540004AF0EE0FFF1FBB1F661F771F881F9150C9
:101550005040A9F79E3F510580F00C94060A0C9468
:10156000510A5F3FE4F3983ED4F3869577956795EB
:10157000B795F795E7959F5FC1F7FE2B880F911DF3
:101580009695879597F9089597FB072E16F4009482
:1015900007D077FD09D00E946B0B07FC05D03EF405
:1015A000909581959F4F0895709561957F4F08950F
:1015B000A1E21A2EAA1BBB1BFD010DC0AA1FBB1F57
:1015C000EE1FFF1FA217B307E407F50720F0A21BC9
:1015D000B30BE40BF50B661F771F881F991F1A9436
:1015E00069F760957095809590959B01AC01BD0160
:1015F000CF010895052E97FB1EF400940E94110B55
:1016000057FD07D00E94D80A07FC03D04EF40C9473
:10161000110B50954095309521953F4F4F4F5F4F9F
:10162000089590958095709561957F4F8F4F9F4F4E
:101630000895A29FB001B39FC001A39F700D811DAB
:101640001124911DB29F700D811D1124911D0895CB
:101650000F93083090F0982F872F762F652F542FF7
:10166000432F322F22270850F4CF220F331F441F5D
:10167000551F661F771F881F991F0A95B2F70F9194
:10168000089597FB10F8169400080F93083098F00F
:101690000850232F342F452F562F672F782F892F4F
:1016A000902DF4CF059497958795779567955795E5
:1016B0004795379527950A95AAF70F910895002425
:1016C000A7FD00942A1730054005500560057005F8
:1016D000800590050895AA1BBB1B51E107C0AA1FF6
:1016E000BB1FA617B70710F0A61BB70B881F991FC3
:1016F0005A95A9F780959095BC01CD010895A0E079
:10170000B0E0E5E8FBE00C94D20F5C016B017A01DC
:101710006115710519F0FB0180839183E114F104D7
:1017200029F0C7010297839708F0E5C0E5012196EB
:10173000F5011081812F90E00E94950C892B11F00A
:101740005E01F4CF1D3229F42196F501118101E0EB
:1017500007C01B3221F4E5012296F501118100E05A
:10176000E114F10409F1F0E1EF16F10429F43FC0AE
:1017700010E3E114F10421F128E0E216F10401F193
:1017800054F4E2E0EE16F10421F5812C912CA12C09
:10179000B0E4BB2E3EC0FAE0EF16F10439F020E1D0
:1017A000E216F104B1F430C0103319F1FAE0EF2E73
:1017B000F12CACEC8A2E982CA82CACE0BA2E29C0C7
:1017C00078E0E72EF12C812C912CA12CE0E1BE2EAB
:1017D00020C060E070E080E090E897010F2C000CE2
:1017E000440B550B0E94D80A49015A0112C010330C
:1017F00059F488818F7D883509F0BACF19812296F6
:10180000026080E1E82EF12C812C912CA12C68E063
:10181000B62E40E060E070E0CB0127010F2C000CF9
:1018200066087708FE0150ED352E310E29E02315AC
:1018300070F42FEB210F2A3118F439EC332E06C047
:101840002FE9210F2A3118F529EA322E310E232DE6
:1018500030E02E153F05DCF447FD16C086169706CE
:10186000A806B90670F0A30192010E94B60F630D9D
:10187000711D811D911D61307105810520E8920760
:1018800010F04FEF01C041E021961081CBCF202F07
:101890002170C114D10471F0442329F02197F6017D
:1018A000C083D18307C001FF19C02297F601C0830E
:1018B000D18314C047FF12C0222329F060E070E0FA
:1018C00080E090E804C06FEF7FEF8FEF9FE722E2A8
:1018D00030E02093F6643093F76409C0222381F04E
:1018E00090958095709561957F4F8F4F9F4F462FB4
:1018F000372F282F12C040E030E020E090E00DC0EC
:1019000097FFF5CF82E290E08093F6649093F764BE
:101910006FEF7FEF8FEF9FE7EACF642F732F822F58
:10192000CDB7DEB7E1E10C94EB0F91110C94FD0EF5
:10193000803219F089508550C8F7089546ED54E675
:101940000E94C90C0895FB01DC0102C001900D92B8
:1019500041505040D8F70895FB01DC014150504000
:1019600030F08D910190801919F40020B9F7881B8F
:10197000990B0895FB01DC014150504048F0019063
:101980000D920020C9F701C01D9241505040E0F770
:101990000895FA01A191B081009719F41097E1F030
:1019A000CD01DC01CD010D90002011F4C00113C068
:1019B000FB012191222319F02015D9F7F3CFFB0168
:1019C0002191201519F41E92119606C02223C1F709
:1019D0000D900020A1F7D001FA01A193B0830895E2
:1019E000AEE0B0E0E6EFFCE00C94DF0F8C01FA0112
:1019F00086E08C8309831A8377FF02C060E070E879
:101A0000CB0101978D839E83A901BF01CE01019671
:101A10000E941C0D4D815E8157FD0AC02F813885C3
:101A2000421753070CF49A01F801E20FF31F1082DA
:101A30002E96E4E00C94F80FABE0B0E0E2E2FDE0BB
:101A40000C94D10F6C017B018A01FC011682178274
:101A5000838181FFCCC1CE0101963C01F6019381C7
:101A6000F70193FD859193FF81917F01882309F40C
:101A7000BAC1853239F493FD859193FF81917F013D
:101A8000853229F4B60190E00E94160FE7CF912C21
:101A9000212C312CFFE1F315D8F08B3279F038F49A
:101AA000803279F08332A1F4232D20611DC08D3264
:101AB00061F0803369F4232D216016C0832D82608C
:101AC000382EE32DE4603E2E2AC0F32DF8601DC0B1
:101AD00037FC2DC020ED280F2A3040F08E32B9F4AB
:101AE00036FC81C1232D2064322E19C036FE06C07B
:101AF0008AE0989E200D1124922E11C0EAE02E9EBD
:101B0000200D1124222EF32DF0623F2E08C08C36BA
:101B100021F4832D8068382E02C0883641F4F70105
:101B200093FD859193FF81917F018111B3CF982F10
:101B30009F7D9554933028F40C5F1F4F9FE399834A
:101B40000DC0833631F0833771F0833509F059C009
:101B500021C0F801808189830E5F1F4F8824839400
:101B6000912C530113C02801F2E04F0E511CF801D3
:101B7000A080B18036FE03C0692D70E002C06FEF17
:101B80007FEFC5010E940B0F4C018201F32DFF77FF
:101B90003F2E16C0280122E0420E511CF801A08001
:101BA000B18036FE03C0692D70E002C06FEF7FEF99
:101BB000C5010E94000F4C01F32DF0683F2E8201F9
:101BC00033FC1BC0822D90E088169906B0F4B60154
:101BD00080E290E00E94160F2A94F4CFF50137FCC2
:101BE000859137FE81915F01B60190E00E94160F4A
:101BF00021102A9421E0821A91088114910471F72E
:101C0000E8C0843611F0893641F5F80137FE07C087
:101C100060817181828193810C5F1F4F08C0608158
:101C20007181072E000C880B990B0E5F1F4FF32D4F
:101C3000FF763F2E97FF09C090958095709561952E
:101C40007F4F8F4F9F4FF0683F2E2AE030E0A30177
:101C50000E94520F882E861845C0853731F4232DF7
:101C60002F7EB22E2AE030E025C0932D997FB92E29
:101C70008F36C1F018F4883579F0B5C0803719F087
:101C8000883721F0B0C0E92FE061BE2EB4FE0DC050
:101C9000FB2DF460BF2E09C034FE0AC0292F266038
:101CA000B22E06C028E030E005C020E130E002C0DE
:101CB00020E132E0F801B7FE07C0608171818281C6
:101CC00093810C5F1F4F06C06081718180E090E0BE
:101CD0000E5F1F4FA3010E94520F882E8618FB2D06
:101CE000FF773F2E36FE0DC0232D2E7FA22E8914A6
:101CF00058F434FE0BC032FC09C0832D8E7EA82E12
:101D000005C0B82CA32C03C0B82C01C0B92CA4FE6C
:101D10000FC0FE01E80DF11D8081803321F49A2D62
:101D2000997EA92E09C0A2FE06C0B394B39404C044
:101D30008A2D867809F0B394A3FC11C0A0FE06C0DA
:101D4000B21488F4280C922C9B180EC0B21460F4C4
:101D5000B60180E290E00E94160FB394F7CFB21460
:101D600018F42B1802C0982C212CA4FE10C0B60128
:101D700080E390E00E94160FA2FE17C0A1FC03C0F2
:101D800088E790E002C088E590E0B6010CC08A2D9B
:101D9000867859F0A1FE02C08BE201C080E2A7FC68
:101DA0008DE2B60190E00E94160F891438F4B60156
:101DB00080E390E00E94160F9A94F7CF8A94F30183
:101DC000E80DF11D8081B60190E00E94160F811090
:101DD000F5CF222009F442CEB60180E290E00E94C5
:101DE000160F2A94F6CFF6018681978102C08FEFF5
:101DF0009FEF2B96E2E10C94EA0F9927882708952C
:101E0000FC010590615070400110D8F780959095C5
:101E10008E0F9F1F0895FC016150704001900110CA
:101E2000D8F7809590958E0F9F1F08950F931F935D
:101E3000CF93DF93FB01238121FD03C08FEF9FEF41
:101E40002CC022FF16C0468157812481358142175C
:101E5000530744F4A081B1819D012F5F3F4F208340
:101E600031838C93268137812F5F3F4F26833783C1
:101E700014C08B01EC01FB010084F185E02D099574
:101E8000892BE1F6D80116968D919C9117970196B2
:101E900016968D939C931797CE01DF91CF911F914A
:101EA0000F910895FA01AA27283051F1203181F1CC
:101EB000E8946F936E7F6E5F7F4F8F4F9F4FAF4F52
:101EC000B1E03ED0B4E03CD0670F781F891F9A1F65
:101ED000A11D680F791F8A1F911DA11D6A0F711D19
:101EE000811D911DA11D20D009F468943F912AE025
:101EF000269F11243019305D3193DEF6CF0108950D
:101F0000462F4770405D4193B3E00FD0C9F7F6CF3D
:101F1000462F4F70405D4A3318F0495D31FD405205
:101F2000419302D0A9F7EACFB4E0A695979587959B
:101F300077956795BA95C9F700976105710508957A
:101F40009B01AC010A2E0694579547953795279526
:101F5000BA95C9F7620F731F841F951FA01D0895BE
:101F6000DC0128ED209334006C930895DB018F93FE
:101F70009F930E94C60FBF91AF91A29F800D911DAC
:101F8000A39F900DB29F900D112408950E94190BEC
:101F9000A59F900DB49F900DA49F800D911D1124BD
:101FA00008952F923F924F925F926F927F928F92FD
:101FB0009F92AF92BF92CF92DF92EF92FF920F93D8
:101FC0001F93CF93DF93CDB7DEB7CA1BDB0BCDBF1B
:101FD000DEBF09942A88398848885F846E847D84AE
:101FE0008C849B84AA84B984C884DF80EE80FD80C1
:101FF0000C811B81AA81B981CE0FD11DCDBFDEBF5F
:08200000ED010895F894FFCFF3
:102008001E00B400000000000000000000000000F6
:1020180000000000010100000000000000005F0057
:10202800000007000700147F147F14242A7F2A1257
:102038002313086462364955225000050300000046
:102048001C2241000041221C0014083E0814080804
:102058003E080800503000000808080808006060C2
:10206800000020100804023E5149453E00427F40CE
:102078000042615149462141454B311814127F10E5
:1020880027454545393C4A49493001710905033618
:1020980049494936064949291E0036360000005686
:1020A80036000008142241001414141414004122AC
:1020B80014080201510906324979413E7E11111175
:1020C8007E7F494949363E414141227F4141221C98
:1020D8007F494949417F090909013E4149497A7FB8
:1020E8000808087F00417F41002040413F017F08E8
:1020F8001422417F404040407F020C027F7F040849
:10210800107F3E4141413E7F090909063E41512168
:102118005E7F09192946464949493101017F010174
:102128003F4040403F1F2040201F3F4038403F6312
:102138001408146307087008076151494543007F74
:1021480041410002040810200041417F00040201BF
:10215800020440404040400003070000205454540B
:10216800787F484444383844444420384444487FBD
:102178003854545418087E090102081454543C7FFA
:102188000804047800447D40002040443D007F104E
:1021980028440000417F40007C041804787C08042F
:1021A800047838444444387C141414080814141867
:1021B8007C7C080404084854545420043F444020BC
:1021C8003C4040207C1C2040201C3C4030403C448B
:1021D800281028440C5050503C4464544C44000887
:1021E80036410000007F0000004136080008082A38
:1021F8001C08081C2A080806090906007E11119106
:102208007E00417FC1007E1111917E3E41414122F5
:102218007E1111917E7E1111917E7F4949C9417FBE
:102228004949C97F3C434243247E4A4B4A41625351
:102238004A47427E4A4B4A423E4149497A7F0814FE
:10224800224100417F41007F40404040444B4A4B7F
:10225800327F0408107F7F0408107F3E4141413ED1
:102268003E4141413E3E4141413E3E4141413E4465
:10227800281028443F4040C03F7F40404040444BE6
:102288004A4B323C4141413C3C4141413C62534A0A
:10229800474262534A47423649494936205454D442
:1022A8007800447DC0002054545478384444442075
:1022B80020545454782054545478385454D41838EA
:1022C80054555418384546452038545554184465D3
:1022D800564D443854555418081454543C7F10280B
:1022E800440000447D400000417F40004855565559
:1022F800207C080404787C08040478384444443872
:102308003844444438384444443838444444380011
:1023180036360000384040A07800417F40004854DD
:102328005454203842422278384242227844655632
:102338004D444465564D44000503000000AEA83FD7
:10234800D300402000D9F1DB40A1C8DA1281FFA4F4
:10235800A6D5F08D14AF040403030102E764E96411
:10236800EB64ED64EE64EF64010002000400080011
:10237800100040000001000400020406080A0C0EC8
:10238800009BAD36C15A6CF71982B42FD84375EE4D
:1023980032A99F04F3685EC52BB0861DEA7147DC3D
:1023A80064FFC952A53E08937DE6D04BBC27118A2D
:1023B80056CDFB60970C3AA14FD4E2798E1523B81D
:1023C800C85365FE0992A43FD14A7CE7108BBD260D
:1023D800FA6157CC3BA0960DE3784ED522B98F14FD
:1023E800AC37019A6DF6C05BB52E188374EFD942ED
:1023F8009E0533A85FC4F269871C2AB146DDEB70DD
:102408000B90A63DCA5167FC1289BF24D3487EE5CC
:1024180039A2940FF86355CE20BB8D16E17A4CD7BC
:102428006FF4C259AE35039876EDDB40B72C1A81AC
:102438005DC6F06B9C0731AA44DFE972851E28B39C
:10244800C3586EF50299AF34DA4177EC1B80B62D8C
:10245800F16A5CC730AB9D06E87345DE29B2841F7C
:10246800A73C0A9166FDCB50BE2513887FE4D2496C
:10247800950E38A354CFF9628C1721BA4DD6E07B5C
:102488003030303030303030303030303030005351
:10249800453A2533642054453A2533640053413A7C
:1024A8002533642054413A253364005343553A2573
:1024B8003464205343493A25346400253033647C1E
:1024C8002530336400253033647C25647C25647CA6
:0624D8002564007C0000F9
:00000001FF
