S02100004156523634444433322D4D41494E2D436F6E74726F6C6C65722E7372656320
S11300000C9448000C9465000C9465000C946500F5
S11300100C9465000C9465000C9465000C946500C8
S11300200C9465000C9465000C9465000C946500B8
S11300300C9465000C9465000C9465000C946500A8
S11300400C9465000C9465000C9465000C94650098
S11300500C9465000C9465000C9465000C94650088
S11300600C9465000C9465000C9465000C94650078
S11300700C9465000C9465000C9465000C94650068
S11300800C9465000C9465000C9465000C94650058
S113009011241FBECFEFCDBFDFE7DEBF15E6A0E022
S11300A0B0E6ECE4FFE202C005900D92A23FB10776
S11300B0D9F726E6A2EFB5E601C01D92A237B20732
S11300C0E1F70E9461070C94A4170C94000068E601
S11300D071E00E947612992314F488599E4F089572
S11300E09C01261B370BC901992324F488279927DF
S11300F0821B930B68E671E00E947612853B9105A2
S113010034F028E631E0A901481B590BCA010895CF
S1130110CF92DF92EF92FF920F931F93CF93DF93CF
S1130120C09135662DE2C29FE0011124CE01865AAA
S11301309F4F0E9467008C01CE018A5591090E944D
S11301406700EC01C8014E979E012E5131098D3292
S113015041E09407E8F42D323140D0F4E090F665A4
S1130160F090F765B801C7010E9470006C01BE01F0
S1130170C7010E9470008C159D051CF0902F812FE3
S113018002C09C2F8D2F90935760809358600CC0B1
S11301908D32914028F4009357601093586004C046
S11301A0C0935760D0935860DF91CF911F910F9106
S11301B0FF90EF90DF90CF9008958F929F92AF922F
S11301C0BF92CF92DF92EF92FF920F931F93CF9340
S11301D0DF93882319F0C0E0D0E602C0C9E2D0E67C
S11301E080910566882339F0EF81F8850995EB81C4
S11301F0FC81099516C1EF85F889C080D180EF890B
S1130200F88DE080F18081E0CE14DF0408F080E016
S1130210E985FA850995EB8DFC8D9081ED8DFE8D38
S11302208081CE14DF0410F4811105C0CE14DF04E4
S113023068F0992359F0EF81F8850995EB81FC81E9
S11302400995E98DFA8D81E08083EBC0EF85F8890B
S113025080819181EF89F88D4081518184179507C0
S113026081F4EF81F8850995EB81FC810995EB898F
S1130270FC891082E98DFA8D81E080831F8E18A29B
S1130280D0C0A0E0B0E060E070E009A11AA12BA109
S11302903CA16A017B01C01AD10AE20AF30A8C1557
S11302A09D05AE05BF055CF0400F511F621F731F13
S11302B0481759076A077B0724F490E003C090E0CD
S11302C001C091E0892F817029F0E98DFA8D808138
S11302D0811109C0E981FA810995ED81FE810995B1
S11302E0E98DFA8D1082E989FA89C080D180E12CE8
S11302F0F12CED89FE8980819181C81AD90AE1081F
S1130300F108D701C601C196A11DB11D833691051F
S1130310A105B10518F4C12CD12C7601EF85F8891B
S113032080819181A0E0B0E0EF89F88D4081518116
S113033060E070E009A11AA12BA13CA14A015B0174
S1130340801A910AA20AB30A88159905AA05BB0561
S1130350FCF48EECC8168FEFD806E806F80684F491
S11303608F8D8F5F8F8F843058F0EB89FC8981E00B
S11303708083EF81F8850995EB81FC8109952FC075
S113038083E3C816D104E104F1044CF11F8E27C0A5
S1130390400F511F621F731F481759076A077B07D5
S11303A0F4F483E3C816D104E104F10484F08F8DDE
S11303B08F5F8F8F843058F0EB89FC8981E08083D4
S11303C0EF81F8850995EB81FC81099508C08EECD5
S11303D0C8168FEFD806E806F8060CF41F8ECD2851
S11303E0CE28CF28A9F4E98DFA8D8081811110C01F
S11303F088A18F5F88A3843060F0EB89FC8981E059
S11304008083EF81F8850995EB81FC81099501C012
S113041018A2ED89FE89A989BA898D919C9180835E
S11304209183DF91CF911F910F91FF90EF90DF9017
S1130430CF90BF90AF909F908F900895EF92FF92CE
S11304400F931F93CF93DF93182F882319F0C0E0E5
S1130450D0E602C0C9E2D0E6113019F4EBE1F6E6C9
S113046002C0EDE1F6E601E0113009F000E0E080C1
S1130470F180E114F10439F4EF81F8850995EB81F9
S1130480FC81099525C01E141F0424F4ED8DFE8DF6
S1130490808103C0EB8DFC8D8081882339F0EF814E
S11304A0F8850995EB81FC81099512C0E981FA81EF
S11304B00995E985FA851E141F042CF081E011309A
S11304C019F480E001C0802F0995ED81FE81099522
S11304D0DF91CF911F910F91FF90EF9008950F93AB
S11304E01F93CF93DF93882319F0C0E0D0E602C0B6
S11304F0C9E2D0E60DA11EA1EB85FC850995F801A2
S1130500808391830FA118A5ED85FE850995F801D7
S113051080839183DF91CF911F910F91089581E0A2
S11305200E946F0280E00E946F02809121668823FE
S113053039F081E00E941E0280E00E941E020895AC
S113054080913866811136C080913466803148F0DC
S11305500E94880084E190E08093526090935360FD
S1130560089580913666909137668C32914080F080
S1130570AEE2B6E68D919C911197E2E5F0E68583B3
S1130580968312968D919C911397808391830CC0CE
S1130590E2E5F0E684EB90E0858396838091326611
S11305A0909133668083918380E00E94DD0081E036
S11305B00E94DD000895E0E0F6E087E0818381E0B9
S11305C082838083089595E09093B0008093080619
S11305D00895813039F482E08093B00081E0809303
S11305E00806089581E08093B0008FE180930806A7
S11305F00895813039F482E08093B00080E18093E3
S11306000806089581E08093B00086E08093080690
S113061008951092B00084E480930806089581E060
S113062080930A0680910D0680FFFCCFE0E0F6E09F
S113063081E0858780899189929582958F70892739
S11306409F70892708950E9409030E940F03BC012B
S113065080E090E00E947B1120E030E040E85EE31F
S11306600E9409120E944C11CB0108956BE080E8AE
S113067090E00E94521763E080E690E00E945217D7
S11306808091650080FDFCCF08952F923F924F9298
S11306905F926F927F928F929F92AF92BF92CF920E
S11306A0DF92EF92FF920F931F93CF93DF93CDB717
S11306B0DEB72B97CDBFDEBFC22EB32EA42E952E50
S11306C0862E772E682E592EF22E032F142F5A873A
S11306D06983B72FD82EE92EE0E0F0E014C03196FC
S11306E02F2D302F412F5A8569817B2F8D2D9E2DE3
S11306F008E00E94F512F22E032F142F5A87698303
S1130700B72FD82EE92E2F2D302F412F5A856981EE
S11307107B2F8D2D9E2DA0E00E941D1301F78FEFDE
S11307208A87CB86B9824A2C392C282C1AC08D0191
S1130730000F111F000F111F000F111F2B8539818E
S1130740442D532D622D772D862D952D0E94F51263
S11307508A848226912CF401E254FC4980818A87A0
S1130760FD01DF011197EF2B11F78A852B96CDBF81
S1130770DEBFDF91CF911F910F91FF90EF90DF903B
S1130780CF90BF90AF909F908F907F906F905F902D
S11307904F903F902F900895AC0120E030E0EFEFB0
S11307A00BC0DA01A20FB31F9C91E927F0E0E254D9
S11307B0FC49E0812F5F3F4F2930310590F3E61764
S11307C011F080E008958E2F08950F93CF93DF9357
S11307D0FC0120E030E040E050E060E070E080E0C8
S11307E090E03AC004E00E94DA12E0EDEC0FEA3047
S11307F070F4D0E0E097ED2FEE0FEE0B2C2B3D2B99
S11308004E2B5E2B6E2B7E2B8E2B9E2B24C0EFEB60
S1130810EC0FE63070F4D0E0E797ED2FEE0FEE0B1F
S11308202C2B3D2B4E2B5E2B6E2B7E2B8E2B9E2B3F
S113083012C0EFE9EC0FE630A8F4D0E0C755D109B7
S1130840ED2FEE0FEE0B2C2B3D2B4E2B5E2B6E2B38
S11308507E2B8E2B9E2BFD01DF011196C081C111D1
S1130860C1CF08C020E030E040E050E060E070E03C
S113087080E090E0DF91CF910F9108957F928F9265
S11308809F92AF92BF92CF92DF92EF92FF920F931B
S11308901F93CF93DF93CDB7DEB76A97CDBFDEBF8B
S11308A08C01E2EFF5E61586148617861686128A01
S11308B0108A118A85E0EBE9F3E6DE0111960190D6
S11308C00D928A95E1F74FE050E0B801CE0106960B
S11308D00E9483141D8ACE0106960E94E503822E8F
S11308E0932EA42EB52EE62EC72ED82EF92E40E137
S11308F050E060E070E0C8010F960E943D13762E30
S1130900282D392D4A2D5B2D6E2D7C2D8D2D9F2D5F
S11309100E944503F82E4EE050E06EEB74E6C801E9
S11309200E947514892BB9F481E0809302667F10CC
S11309300EC0F80186858D8B1E8A40E150E060E090
S113094070E0CE0145960E943D13E62E96C081E0EC
S113095080930466A3C07F108CC068C0E1E0F0E01F
S1130960EC0FFD1FEF0DF11DC080D12CA601B801C5
S1130970CE0145960E945C14E5E1F0E0EC0FFD1F0A
S1130980EC0DFD1D10820C0D1D1DF2E0FF1649F14A
S1130990FF1530F0FF2059F081E0F816A9F044C0AB
S11309A0E3E0FE1659F1F4E0FF16A9F13DC040E181
S11309B050E060E070E0CE0145960E943D136093E4
S11309C0F4657093F56530C040E150E060E070E09C
S11309D0CE0145960E943D136093F8657093F965C6
S11309E023C040E150E060E070E0CE0145960E94F3
S11309F03D136093FA657093FB6516C040E150E0C7
S1130A0060E070E0CE0145960E943D136093FC6562
S1130A107093FD6509C040E150E060E070E0CE01F4
S1130A2045960E943D13E62EF39402C0F12CE12C6E
S1130A3084E08F1508F092CFE2EFF5E6228133814E
S1130A403695279536952795ABE7B4E10E94CB12EE
S1130A50969587958083918326813781369527954E
S1130A60369527950E94CB12969587958483958316
S1130A7004C081E08093046611C08E2D8170E2EF82
S1130A80F5E68487E1FA882780F98587E2FA8827E2
S1130A9080F98687E3FAEE24E0F8E7866A96CDBF0C
S1130AA0DEBFDF91CF911F910F91FF90EF90DF9008
S1130AB0CF90BF90AF909F908F907F900895FF92BA
S1130AC00F931F93CF93DF93CDB7DEB76197CDBF5D
S1130AD0DEBFFE01319681E1DF011D928A95E9F7BF
S1130AE0E2EFF5E6118A138A10E0F12C00E003C06E
S1130AF0FF24F39400E00E941B0C90910366992359
S1130B0039F01F5F133021F481E0809305662CC017
S1130B10FF2039F18E33D9F4E1E0F0E0EC0FFD1F52
S1130B20E00FF11D108269E076E6CE0101960E9485
S1130B306514892B21F0CE0101960E943E04BE016A
S1130B406F5F7F4F89E096E60E946E140DC00131FD
S1130B5040F4E1E0F0E0EC0FFD1FE00FF11D8083B5
S1130B600F5F8C3341F6C4CF6196CDBFDEBFDF91FA
S1130B70CF911F910F91FF900895E0EEF5E081E190
S1130B808283168283E0878382E08187E0E0F4E059
S1130B908CED818382E2828388E0818B848B858BD8
S1130BA0E0E4F4E09189987F918B91899460918B32
S1130BB09189977F918B9289987F928B9289946087
S1130BC0928B9289977F928B91E091839CE2909390
S1130BD06104E0EAF4E09EE0918390E39283848BE5
S1130BE0858B0895E0E0F9E082E0808385E08683E8
S1130BF081E083838583089590E0880F991F862B75
S1130C008093070948E853E160E070E009C041506F
S1130C1051096109710921F483E08093040905C035
S1130C2080910509807C99F380E09091050994FDF9
S1130C3081E0909105099C7009F082E0882319F005
S1130C4093E09093040980931A660895282F909155
S1130C50050994FD02C080E001C081E0909105097E
S1130C609C7009F082E0882319F093E090930409C2
S1130C70811114C02093080948E853E160E070E052
S1130C8009C0415051096109710921F483E080933D
S1130C90040904C09091050996FFF3CF80931A6666
S1130CA00895CF93DF93C62FD42F60E00E94FC05F4
S1130CB0811108C08C2F0E942606811103C08D2F3C
S1130CC00E942606E0E0F9E0848183608483DF915A
S1130CD0CF91089580910804869591E089278170C9
S1130CE008950E946A06882361F08091206681112C
S1130CF00DC0EBE1F6E6868191E089278683958332
S1130D0008958091206681111092206608950F93B2
S1130D101F93CF93DF938EE10E94E3020E940F039F
S1130D20985004EF11E0B8010E947612CBE1D6E6A8
S1130D30688379838DE10E94E3020E940F03985037
S1130D40B8010E9476126A837B830E946A068C83B0
S1130D50DF91CF911F910F91089580911D6690911D
S1130D601E66181619061CF421E020934666992382
S1130D7014F41092466608958091266681110BC082
S1130D8084E08093660488E28A95F1F7E3E2F6E66C
S1130D9081E08383148208958091276681110BC0BA
S1130DA084E08093650488E28A95F1F7E3E2F6E64D
S1130DB081E08483138208958091246681110DC09B
S1130DC0E0E0FAE0818180618183808181608083B9
S1130DD0E3E2F6E681E0818312820895809125663C
S1130DE0811119C0E0E0FAE081818F7E81838081E6
S1130DF08E7F808388E0809366042FEF8EE994E2EF
S1130E00215080409040E1F700C00000E3E2F6E6A4
S1130E1081E0828311820895CF939091236698177D
S1130E2099F0C82F0E94EE06CC2321F080E2809333
S1130E30650403C080E28093660488E28A95F1F732
S1130E400E94DC06C0932366CF91089560E580E29A
S1130E509EE40E94CF0A84E080936504089580E0B4
S1130E600E94E9020E940F03BC0180E090E00E940E
S1130E707B112AE939E949E95DE30E94091223E873
S1130E803DED4CE75FE30E9409120E944C11CB0137
S1130E900895CF93DF9381E00E94E9020E940F033B
S1130EA0EC010E9423039E01281B390BC9019923DD
S1130EB00CF403969595879595958795DF91CF9139
S1130EC008950E9436030E94BD050E9426070E94D1
S1130ED0950A0E94F2050E94DB020E94C90B0E943F
S1130EE0100C0E9423090E946A092FEF88EF95E1F4
S1130EF0215080409040E1F700C00000C0E00E9413
S1130F00C3080E945F05C1110E948F020E94520D06
S1130F10C1E0F5CF813051F028F0823059F08330B0
S1130F2069F0089581E080934504089581E08093F9
S1130F304604089580E480930504089580E4809332
S1130F4006040895AF92BF92CF92DF92EF92FF9280
S1130F500F931F93CF93DF93CDB7DEB7A697CDBF83
S1130F60DEBF7C0186E0E0EAF3E6DE011196019043
S1130F700D928A95E1F742E150E0B701CE01079660
S1130F800E948314198EFE01799689E0DF011D9277
S1130F908A95E9F7D12C27C00D2D10E0C801880FE0
S1130FA0991FE7E0F0E0EC0FFD1FE80FF91F208127
S1130FB02AA30196E7E0F0E0EC0FFD1FE80FF91F0C
S1130FC080818BA31CA240E150E060E070E0CE0180
S1130FD082960E943D13E9E1F0E0EC0FFD1FE00F63
S1130FE0F11F6083D394B8E0BD15B0F642E050E041
S1130FF0B7016E5E7F4FCE0107960E948314198657
S113100040E150E060E070E0CE0107960E943D139D
S1131010CE0149960E94CC0381119BC0A3C05E01FE
S1131020E2E2AE0EB11C85E0D5011D928A95E9F786
S1131030E1E0F0E0EC0FFD1FE10FF11DC080D12CC9
S1131040A601B701C5010E945C14F501EC0DFD1D5C
S11310501082123009F43FC028F4112361F01130DA
S113106011F173C0143009F459C008F44CC01530A0
S113107009F45FC06AC040E150E060E070E0CE0176
S113108082960E943D139B013695279536952795A8
S1131090ABE7B4E10E94CB129695879580932E66B8
S11310A090932F6652C040E150E060E070E0CE01C2
S11310B082960E943D139B01369527953695279578
S11310C0ABE7B4E10E94CB12969587958093306686
S11310D0909331663AC040E150E060E070E0CE01A8
S11310E082960E943D139B01369527953695279548
S11310F0ABE7B4E10E94CB12969587958093326654
S11311009093336622C040E150E060E070E0CE018D
S113111082960E943D136093346617C040E150E00C
S113112060E070E0CE0182960E943D1360933566C4
S11311300CC040E150E060E070E0CE0182960E9475
S11311403D136093366670933766EC0CFD1C1F5F8D
S113115001C010E0163008F462CFEEE2F6E6148621
S1131160138603C081E080933A66A696CDBFDEBFA6
S1131170DF91CF911F910F91FF90EF90DF90CF906F
S1131180BF90AF900895FF920F931F93CF93DF9377
S1131190CDB7DEB76497CDBFDEBFFE01319684E1E3
S11311A0DF011D928A95E9F7EEE2F6E612861386D0
S11311B010E0F12C00E00E94D60B9091396699233F
S11311C039F01F5F133021F481E08093386626C024
S11311D0FF20D9F08D3779F481E00E948A07E1E09D
S11311E0F0E0EC0FFD1FE00FF11D1082CE0101961F
S11311F00E94A20713C0043140F4E1E0F0E0EC0FD8
S1131200FD1FE00FF11D80830F5F8B37A1F680E097
S11312100E948A07FF24F39400E0CDCF6496CDBFEB
S1131220DEBFDF91CF911F910F91FF900895482F5A
S113123060E08CE30E9451060895482F60E48CE33B
S11312400E9451060895CF9360E08CE30E94FC0550
S1131250C0E008C0EC2FF0E0EF57FC4980810E9409
S11312602606CF5FCA31B0F3CF9108951F93CF9371
S1131270DF93D82F80EE8D0F803628F0D03B19F005
S1131280D03C08F4D0E2D03B21F0D03C20F410E272
S113129003C010E501C01FE5C0E013C08D2F90E02E
S11312A0811B9109FC01EE0FFF1FEE0FFF1FE80FDA
S11312B0F91FE45AFF49EC0FF11D80810E941D09BA
S11312C0CF5FC53058F380E00E941D09DF91CF91B4
S11312D01F9108950F931F93CF93DF9300E010E0C5
S11312E016C080EB800F0E94170980E00E94170946
S11312F080E10E941709C0E0D0E004C080E00E94B1
S11313001D092196C038D105CCF30F5F1F4F08305B
S113131011053CF3DF91CF911F910F9108950F9325
S11313201F93CF93DF938C01D62FC0E005C00E949A
S113133036090F5F1F4FCF5FF8018081882339F092
S1131340CD17A8F304C080E20E943609CF5FCD1701
S1131350D0F3DF91CF911F910F9108950F931F93B5
S1131360CF93DF938C01262FC42F80E890E0841B59
S1131370910966E070E00E947612D62F822F806B6E
S11313800E9417098C2F82958F7080610E94170923
S11313908C2F8F700E9417096D2FC8010E948F092E
S11313A0DF91CF911F910F910895AC0190E001C09E
S11313B09F5FFA01E90FF11D20812111F9CF892FD7
S11313C0880F980F292F220F613019F0623069F0CD
S11313D00FC080E890E0AC01421B5109CA01992377
S11313E00CF4019695958795089580E8821B0895DD
S11313F080E008951F93CF93DF93EC01162F642FA1
S11314000E94D509482F612FCE010E94AE09DF91B9
S1131410CF911F910895CF93DF93CDB7DEB7E297B5
S1131420CDBFDEBF9E01255C3F4F4FA958AD62E39F
S113143070E0CE0101960E9492144AAD69ADCE01CE
S113144001960E94FA09E296CDBFDEBFDF91CF91EB
S1131450089580913E66811111C082E08093A604B4
S11314602FEF88EF95E1215080409040E1F700C0D4
S11314700000EBE3F6E681E0838314820895809113
S11314803F66811111C082E08093A5042FEF88EF9D
S113149095E1215080409040E1F700C00000EBE36B
S11314A0F6E681E084831382089580913C6681117D
S11314B00EC080918E0B80FFFCCFE0E8FBE08081C2
S11314C081608083EBE3F6E681E0818312820895F4
S11314D080913D6681110EC080918E0B80FFFCCF00
S11314E0E0E8FBE080818E7F8083EBE3F6E681E039
S11314F0828311820895CF9390913B66981799F057
S1131500C82F0E94680ACC2321F088E08093A504A8
S113151003C088E08093A60488E18A95F1F70E94CD
S1131520550AC0933B66CF91089542E360E074E6A8
S113153080E090E00E945F0B089580E00E94F90231
S11315400E940F03BC0180E090E00E947B112FE811
S113155032EC45E35EE30E94091226E636E646E8ED
S11315605FE30E9409120E944C11CB010895CF93AE
S1131570DF9381E00E94F9020E940F03EC010E94B4
S113158023039E01281B390BC90199230CF40396EC
S11315909595879595958795DF91CF9108958F922D
S11315A09F92AF92BF92CF92DF92EF92FF920F93EE
S11315B01F93CF93DF93CDB7DEB76897CDBFDEBF60
S11315C07C01C62E80E1E6EAF3E6DE011196019085
S11315D00D928A95E1F788E0E6EBF3E6DE01519699
S11315E001900D928A95E1F7D12C38C00D2D10E0B1
S11315F0F801EE0FFF1F81E090E08C0F9D1FE80FB4
S1131600F91F2081318140E050E060E076E38EE60E
S113161091E00E94AC124701A12CB12CCA01B9017E
S1131620A50194010E948A12DA01C9010197A10956
S1131630B109BA01A90142505109610971094F3F29
S113164051056105710548F4F82EE1E1F0E0EC0F75
S1131650FD1FE00FF11F108106C0D39497E09D1584
S113166028F6F12C10E02F2D30E0AC2DB0E00E94D4
S1131670CB1224E630E040E050E00E948A12F216D9
S113168008F42F2D83E08093E705E0E0FAE081E0A1
S1131690838380E18183F7A221A711601083689678
S11316A0CDBFDEBFDF91CF911F910F91FF90EF90DF
S11316B0DF90CF90BF90AF909F908F900895CF927E
S11316C0DF92EF92FF920F931F93CF93DF93C42F78
S11316D0DC01CB01880F991FAA1FBB1F880F991F1C
S11316E0AA1FBB1F880F991FAA1FBB1F880F991F12
S11316F0AA1FBB1F9C01AD01220F331F441F551F9E
S1131700220F331F441F551F60E076E38EE691E0FD
S11317100E948A128901015011096C2F70E080E047
S113172090E00E947D1120E030E048EC52E40E94F9
S1131730DA106B017C01B80180E090E00E947B111B
S1131740A70196010E9409120E944C116F5F7F4FFE
S1131750C801861B970B0197C0E8DBE00EA71FA703
S11317608CA79DA768A779A760E482E99BE00E9403
S1131770521783E0898360E780E89BE00E94521758
S1131780DF91CF911F910F91FF90EF90DF90CF9059
S11317900895E0E0F8E083E896E08087918781E0AF
S11317A0858382EC868383E087830895FF920F9379
S11317B01F93CF93DF9380E8809304086894FF24F9
S11317C0F6F80DE013E0D0E0C0E0B0E0F0E0E0E0D7
S11317D01BC02F2D302F412F5D2F6C2F7B2F8F2F70
S11317E09E2FAFEF0E941113F22E032F142FD52F2B
S11317F0C62FB72FF82FE92FA0E00E941D1321F464
S113180081E08093396604C08091040888230CF732
S113181080910008DF91CF911F910F91FF9008955F
S1131820E0E2F8E081EA91E08087918782E88683AC
S113183083E08783089580E88093240880E89AE110
S1131840A6E0B0E008C00197A109B10921F481E044
S11318508093036604C0209124082223A4F7809176
S1131860200808951F93CF93DF93CDB7DEB7A897D1
S1131870CDBFDEBF182FFE01319688E2DF011D9235
S11318808A95E9F78091476681130E946A091123BA
S113189021F0113009F4A4C0FBC0A2E5B0E68D919B
S11318A09C91119789839A83E2EFF5E68081918177
S11318B08B839C8315968D919C9116978D839E8323
S11318C0848195818F8398878091216690E08987B0
S11318D09A87828990E08B879C87808990E08D87A6
S11318E09E87838990E08F87988B848990E0898B89
S11318F09A8B858990E08B8B9C8BAEE2B6E61A9628
S11319008C911A9790E08D8B9E8B1C968C9190E015
S11319108F8B988FABE3B6E615968D919C911697B5
S1131920898F9A8F17968D919C9118978B8F9C8F86
S1131930A3E2B6E615968D919C9116978D8F9E8F96
S113194017968D919C9118978F8F98A3868590E018
S113195089A39AA3878590E08BA39CA3848590E0B8
S11319608DA39EA3858590E08FA398A720E018C03F
S1131970822F90E0FC013196EE0FFF1FEA5BF949DC
S113198040815181880F991FE1E0F0E0EC0FFD1FC9
S1131990E80FF91F808191814817590729F42F5FB7
S11319A0243130F380E001C081E090E016C0292F9B
S11319B030E0F901EE0FFF1F41E050E04C0F5D1FD6
S11319C0E40FF51F40815181F9013196EE0FFF1F9D
S11319D0EA5BF949408351839F5F943140F359C0D6
S11319E0E2EFF5E68085918589839A8382859385E4
S11319F08B839C83EBE3F6E6858196818D839E83BE
S1131A00878190858F839887E3E2F6E685819681C6
S1131A1089879A87878190858B879C8720E018C067
S1131A20822F90E0FC013196EE0FFF1FEA5BF9492B
S1131A3040815181880F991FE1E0F0E0EC0FFD1F18
S1131A40E80FF91F808191814817590729F42F5F06
S1131A50263030F380E001C081E090E016C0292FE9
S1131A6030E0F901EE0FFF1FA1E0B0E0AC0FBD1FA5
S1131A70EA0FFB1F40815181F9013196EE0FFF1FE0
S1131A80EA5BF949408351839F5F963040F301C07C
S1131A9080E010934766A896CDBFDEBFDF91CF915B
S1131AA01F910895EF92FF920F931F93CF93DF93AB
S1131AB00E94870680912166811102C00E94AD06B2
S1131AC00E94710680914666882321F0813009F4D2
S1131AD0EBC169C380E00E94320C882309F463C31C
S1131AE080912166882319F08DEC94E602C089ED7B
S1131AF094E69F938F93C1E0CF931F928AE895E673
S1131B009F938F930E940B0ACF93CF938CE095E61B
S1131B109F938F930E940B0A809121662DB73EB745
S1131B20265F3F4F2DBF3EBF882309F4B3C01F92E9
S1131B3082E08F9382E295E69F938F930E940B0A33
S1131B40EBE3F6E6C781D085CE0164E670E00E943F
S1131B5076120580F681E02D9C01992324F4222736
S1131B603327281B390B3F932F9304E610E0CE0153
S1131B70B8010E9476127F936F939F01ADECBCEC89
S1131B800E94CB12969587959695879596958795FD
S1131B909C01220F331F880F991F880F991F880FEC
S1131BA0991F820F931FDF01A81BB90BCD019F93CF
S1131BB0AF939F01ADECBCEC0E94CB129695879538
S1131BC096958795969587959F938F9382E08F93AB
S1131BD08F9388E295E69F938F930E940B0A1F923E
S1131BE083E08F938EE395E69F938F930E940B0A75
S1131BF0E3E2F6E6C781D085CE01B8010E947612F1
S1131C000580F681E02D9C01992324F422273327B3
S1131C10281B390B3F932F93CE0164E670E00E949A
S1131C2076127F936F939F01ADECBCEC0E94CB12B4
S1131C309695879596958795969587959C01220FFD
S1131C40331F880F991F880F991F880F991F820FC0
S1131C50931F9F01281B390BC9019F932F939F0149
S1131C600E94CB129695879596958795969587951C
S1131C709F938F9382E08F9383E08F9388E295E61E
S1131C809F938F930E940B0A8DB79EB780968DBF4A
S1131C909EBF53C080913A66882319F025EE34E63E
S1131CA002C022E535E680913866882319F089EE72
S1131CB094E602C082E595E63F932F939F938F931A
S1131CC01F9282E08F9384E495E69F938F930E9402
S1131CD00B0A80910466ADB7BEB71896ADBFBEBF00
S1131CE0882319F045EE54E602C042E555E680919A
S1131CF00266882319F02DEE34E602C022E535E6AB
S1131D0080910566882319F089EE94E602C082E585
S1131D1095E65F934F933F932F939F938F931F92D7
S1131D2083E08F9386E595E69F938F930E940B0A39
S1131D30EDB7FEB73A96EDBFFEBF81E08F9384E026
S1131D408F938CE095E69F938F930E940B0A1F92CA
S1131D5085E08F9388E695E69F938F930E940B0A04
S1131D60809106662DB73EB7285F3F4F2DBF3EBF1B
S1131D70882319F081EF94E602C083E595E69F93EA
S1131D808F93C2EFD5E689818F9388818F93E2E5A3
S1131D90F0E681818F9380818F9382E08F9385E039
S1131DA08F9383E795E69F938F930E940B0A1F926C
S1131DB086E08F938EE795E69F938F930E940B0A9C
S1131DC08D89ADB7BEB71E96ADBFBEBF882319F0CF
S1131DD081EF94E602C083E595E69F938F93C2EF6B
S1131DE0D5E68D818F938C818F93E2E5F0E6868131
S1131DF08F9385818F9382E08F9386E08F9383E71F
S1131E0095E69F938F930E940B0A8F85EDB7FEB7DB
S1131E103A96EDBFFEBF882319F024EF34E602C0E2
S1131E2020E535E680910066882319F08AEF94E670
S1131E3002C080E595E63F932F939F938F931F9263
S1131E4087E08F9387E895E69F938F930E940B0A10
S1131E508091FF652DB73EB7285F3F4F2DBF3EBF32
S1131E60882319F020E035E602C020E535E68091AC
S1131E70FE65882319F086E095E602C080E595E6C4
S1131E803F932F939F938F9382E08F9387E08F9359
S1131E9087E895E69F938F930E940B0A8DB79EB7B0
S1131EA008968DBF9EBF7FC181E00E94320C8823BB
S1131EB009F479C11F921F928DE895E69F938F9341
S1131EC00E940B0AC2EFD5E6488559859A01ADEC0C
S1131ED0BCEC0E94CB12969587959695879596951E
S1131EE087959C01220F331F880F991F880F991F14
S1131EF0880F991F820F931FDA01A81BB90BCD011C
S1131F009F93AF939A01ADECBCEC0E94CB129695D3
S1131F10879596958795969587959F938F9382E05D
S1131F208F931F928AE995E69F938F930E940B0AE1
S1131F301F9281E08F9383EA95E69F938F930E948B
S1131F400B0A4A855B859A01369527953695279520
S1131F50ABE7B4E10E94CB129695879564E6689F3F
S1131F609001699F300D1124CA01821B930B9C01BF
S1131F7022F422273327281B390B3F932F939A01EE
S1131F803695279536952795ABE7B4E10E94CB1299
S1131F90969587959F938F93C2E0CF93D1E0DF937B
S1131FA080EB95E69F938F930E940B0ADF93CF9368
S1131FB08CE095E69F938F930E940B0A1F92D3E0C7
S1131FC0DF9389EB95E69F938F930E940B0A0BE3B3
S1131FD016E6F801458156812DB73EB7205E3F4F86
S1131FE02DBF3EBF9A01ADECBCEC0E94CB1296957E
S1131FF0879596958795969587959C01220F331F13
S1132000880F991F880F991F880F991F820F931F9C
S1132010DA01A81BB90BCD019F93AF939A01ADECE4
S1132020BCEC0E94CB1296958795969587959695CC
S113203087959F938F93CF93DF938AE995E69F9338
S11320408F930E940B0A1F9284E08F9387EC95E68E
S11320509F938F930E940B0AD8011796ED91FC91E0
S11320601897CF0164E670E00E9476129C019923D0
S113207024F422273327281B390B3F932F93C4E6DC
S1132080D0E0CF01BE010E9476127F936F936894D3
S1132090EE24E1F8EF9284E08F9380EB95E69F9332
S11320A08F930E940B0A81E08F9385E08F938CE0DD
S11320B095E69F938F930E940B0A1F920F2EF6E0D2
S11320C0FF2EF02DFF9286ED95E69F938F930E944D
S11320D00B0A03E216E6F801458156819A01ADEC3C
S11320E0BCEC0E94CB12969587959695879596950C
S11320F087959C01220F331F880F991F880F991F02
S1132100880F991F820F931F9A01281B390BC9014D
S11321109F932F939A010E94CB129695879596953B
S11321208795969587959F938F93EF92FF928AE96F
S113213095E69F938F930E940B0A8DB79EB7849662
S11321408DBF9EBF1F9287E08F9383EE95E69F938A
S11321508F930E940B0AD8011796ED91FC91189762
S1132160CF01BE010E9476129C01992324F42227F8
S11321703327281B390B3F932F93CF0164E670E07C
S11321800E9476127F936F9382E08F9387E08F9300
S113219080EB95E69F938F930E940B0AEDB7FEB7F1
S11321A03C96EDBFFEBFDF91CF911F910F91FF9041
S11321B0EF9008950E94EE100C94CF110E94C81164
S11321C058F00E94C11140F029F45F3F29F00C94AB
S11321D0B81151110C9403120C94BE110E94E01119
S11321E068F39923B1F3552391F3951B550BBB2742
S11321F0AA2762177307840738F09F5F5F4F220F87
S1132200331F441FAA1FA9F335D00E2E3AF0E0E87D
S113221032D091505040E695001CCAF72BD0FE2FC7
S113222029D0660F771F881FBB1F2617370748075B
S1132230AB07B0E809F0BB0B802DBF01FF27935813
S11322405F4F3AF09E3F510578F00C94B8110C940E
S113225003125F3FE4F3983ED4F386957795679530
S1132260B795F7959F5FC9F7880F911D9695879548
S113227097F90895E1E0660F771F881FBB1F621767
S113228073078407BA0720F0621B730B840BBA0B25
S1132290EE1F88F7E09508950E94E81188F09F5793
S11322A098F0B92F9927B751B0F0E1F0660F771F76
S11322B0881F991F1AF0BA95C9F714C0B13091F06C
S11322C00E940212B1E008950C940212672F782F35
S11322D08827B85F39F0B93FCCF386957795679531
S11322E0B395D9F73EF490958095709561957F4F9D
S11322F08F4F9F4F0895E89409C097FB3EF4909543
S11323008095709561957F4F8F4F9F4F9923A9F0CA
S1132310F92F96E9BB279395F69587957795679559
S1132320B795F111F8CFFAF4BB0F11F460FF1BC09D
S11323306F5F7F4F8F4F9F4F16C0882311F096E930
S113234011C0772321F09EE8872F762F05C06623DE
S113235071F096E8862F70E060E02AF09A95660F97
S1132360771F881FDAF7880F9695879597F9089550
S113237097F99F6780E870E060E008959FEF80EC34
S1132380089500240A9416161706180609060895D7
S113239000240A9412161306140605060895092E3D
S11323A00394000C11F4882352F0BB0F40F4BF2BAC
S11323B011F460FF04C06F5F7F4F8F4F9F4F0895EC
S11323C057FD9058440F551F59F05F3F71F04795E2
S11323D0880F97FB991F61F09F3F79F087950895C7
S11323E0121613061406551FF2CF4695F1DF08C0E6
S11323F0161617061806991FF1CF86957105610503
S113240008940895E894BB2766277727CB0197F9AA
S113241008950E941C120C94CF110E94C11138F02F
S11324200E94C81120F0952311F00C94B8110C945B
S1132430BE1111240C9403120E94E01170F3959FB5
S1132440C1F3950F50E0551F629FF001729FBB27A7
S1132450F00DB11D639FAA27F00DB11DAA1F649F43
S11324606627B00DA11D661F829F2227B00DA11DF6
S1132470621F739FB00DA11D621F839FA00D611D7C
S1132480221F749F3327A00D611D231F849F600D9D
S1132490211D822F762F6A2F11249F5750409AF0C6
S11324A0F1F088234AF0EE0FFF1FBB1F661F771F52
S11324B0881F91505040A9F79E3F510580F00C941D
S11324C0B8110C9403125F3FE4F3983ED4F386955D
S11324D077956795B795F795E7959F5FC1F7FE2BBD
S11324E0880F911D9695879597F9089597FB072E68
S11324F016F4009407D077FD09D00E94291307FC35
S113250005D03EF4909581959F4F089570956195FF
S11325107F4F0895A1E21A2EAA1BBB1BFD010DC01B
S1132520AA1FBB1FEE1FFF1FA217B307E407F5077F
S113253020F0A21BB30BE40BF50B661F771F881F5B
S1132540991F1A9469F760957095809590959B01F1
S1132550AC01BD01CF010895052E97FB1EF4009434
S11325600E94C31257FD07D00E948A1207FC03D0B1
S11325704EF40C94C31250954095309521953F4FDD
S11325804F4F5F4F089590958095709561957F4F5B
S11325908F4F9F4F0895A29FB001B39FC001A39F87
S11325A0700D811D1124911DB29F700D811D112488
S11325B0911D08950F93083090F0982F872F762F50
S11325C0652F542F432F322F22270850F4CF220F88
S11325D0331F441F551F661F771F881F991F0A95B5
S11325E0B2F70F91089597FB10F8169400080F9313
S11325F0083098F00850232F342F452F562F672F7B
S1132600782F892F902DF4CF0594979587957795FA
S1132610679557954795379527950A95AAF70F918A
S113262008950024A7FD00942A0F301D401D501D5D
S1132630601D701D801D901D08950024A7FD009449
S11326402A17300540055005600570058005900582
S11326500895AA1BBB1B51E107C0AA1FBB1FA617E5
S1132660B70710F0A61BB70B881F991F5A95A9F737
S113267080959095BC01CD010895A0E0B0E0E3E41D
S1132680F3E10C9474175C016B017A016115710517
S113269019F0FB0180839183E114F10429F0C7014F
S11326A00297839708F0E5C0E5012196F5011081B2
S11326B0812F90E00E945314892B11F05E01F4CF16
S11326C01D3229F42196F501118101E007C01B3266
S11326D021F4E5012296F501118100E0E114F104F1
S11326E009F1F0E1EF16F10429F43FC010E3E1141D
S11326F0F10421F128E0E216F10401F154F4E2E0DE
S1132700EE16F10421F5812C912CA12CB0E4BB2E02
S11327103EC0FAE0EF16F10439F020E1E216F104CC
S1132720B1F430C0103319F1FAE0EF2EF12CACEC17
S11327308A2E982CA82CACE0BA2E29C078E0E72E7B
S1132740F12C812C912CA12CE0E1BE2E20C060E064
S113275070E080E090E897010F2C000C440B550BBF
S11327600E948A1249015A0112C0103359F4888117
S11327708F7D883509F0BACF19812296026080E1F5
S1132780E82EF12C812C912CA12C68E0B62E40E08F
S113279060E070E0CB0127010F2C000C660877087D
S11327A0FE0150ED352E310E29E0231570F42FEB88
S11327B0210F2A3118F439EC332E06C02FE9210FEA
S11327C02A3118F529EA322E310E232D30E02E1548
S11327D03F05DCF447FD16C086169706A806B90621
S11327E070F0A30192010E945817630D711D811DA1
S11327F0911D61307105810520E8920710F04FEFBB
S113280001C041E021961081CBCF202F2170C1144B
S1132810D10471F0442329F02197F601C083D183B8
S113282007C001FF19C02297F601C083D18314C0E9
S113283047FF12C0222329F060E070E080E090E8B6
S113284004C06FEF7FEF8FEF9FE722E230E0209329
S113285070663093716609C0222381F0909580954B
S1132860709561957F4F8F4F9F4F462F372F282F9D
S113287012C040E030E020E090E00DC097FFF5CFBB
S113288082E290E080937066909371666FEF7FEFC1
S11328908FEF9FE7EACF642F732F822FCDB7DEB778
S11328A0E1E10C948D1791110C949F16803219F06C
S11328B089508550C8F70895FB01DC0102C00190DE
S11328C00D9241505040D8F70895FB01DC018D91E1
S11328D0019080190110D9F3990B0895FB01DC01D3
S11328E001900D920020E1F70895FB01DC014150B5
S11328F0504030F08D910190801919F40020B9F7FF
S1132900881B990B0895FB01DC014150504048F0AD
S113291001900D920020C9F701C01D924150504012
S1132920E0F70895AEE0B0E0E8E9F4E10C94811733
S11329308C01FA0186E08C8309831A8377FF02C035
S113294060E070E8CB0101978D839E83A901BF01EC
S1132950CE0101960E94BE144D815E8157FD0AC0CE
S11329602F813885421753070CF49A01F801E20FBE
S1132970F31F10822E96E4E00C949A17ABE0B0E0BB
S1132980E4ECF4E10C9473176C017B018A01FC0103
S113299016821782838181FFCCC1CE0101963C014E
S11329A0F6019381F70193FD859193FF81917F0156
S11329B0882309F4BAC1853239F493FD859193FFD4
S11329C081917F01853229F4B60190E00E94B81606
S11329D0E7CF912C212C312CFFE1F315D8F08B3269
S11329E079F038F4803279F08332A1F4232D206118
S11329F01DC08D3261F0803369F4232D216016C02F
S1132A00832D8260382EE32DE4603E2E2AC0F32D00
S1132A10F8601DC037FC2DC020ED280F2A3040F08F
S1132A208E32B9F436FC81C1232D2064322E19C0B4
S1132A3036FE06C08AE0989E200D1124922E11C005
S1132A40EAE02E9E200D1124222EF32DF0623F2E5B
S1132A5008C08C3621F4832D8068382E02C0883655
S1132A6041F4F70193FD859193FF81917F018111D9
S1132A70B3CF982F9F7D9554933028F40C5F1F4F4C
S1132A809FE399830DC0833631F0833771F083352A
S1132A9009F059C021C0F801808189830E5F1F4F5E
S1132AA088248394912C530113C02801F2E04F0E23
S1132AB0511CF801A080B18036FE03C0692D70E07E
S1132AC002C06FEF7FEFC5010E94AD164C01820179
S1132AD0F32DFF773F2E16C0280122E0420E511C31
S1132AE0F801A080B18036FE03C0692D70E002C0F9
S1132AF06FEF7FEFC5010E94A2164C01F32DF06821
S1132B003F2E820133FC1BC0822D90E0881699066B
S1132B10B0F4B60180E290E00E94B8162A94F4CF93
S1132B20F50137FC859137FE81915F01B60190E094
S1132B300E94B81621102A9421E0821A9108811467
S1132B40910471F7E8C0843611F0893641F5F80133
S1132B5037FE07C060817181828193810C5F1F4FB2
S1132B6008C060817181072E000C880B990B0E5FE1
S1132B701F4FF32DFF763F2E97FF09C09095809548
S1132B80709561957F4F8F4F9F4FF0683F2E2AE0DD
S1132B9030E0A3010E94F416882E861845C08537BC
S1132BA031F4232D2F7EB22E2AE030E025C0932D60
S1132BB0997FB92E8F36C1F018F4883579F0B5C0F5
S1132BC0803719F0883721F0B0C0E92FE061BE2EBC
S1132BD0B4FE0DC0FB2DF460BF2E09C034FE0AC044
S1132BE0292F2660B22E06C028E030E005C020E17F
S1132BF030E002C020E132E0F801B7FE07C0608196
S1132C007181828193810C5F1F4F06C06081718145
S1132C1080E090E00E5F1F4FA3010E94F416882EFF
S1132C208618FB2DFF773F2E36FE0DC0232D2E7FF9
S1132C30A22E891458F434FE0BC032FC09C0832D33
S1132C408E7EA82E05C0B82CA32C03C0B82C01C0BE
S1132C50B92CA4FE0FC0FE01E80DF11D8081803364
S1132C6021F49A2D997EA92E09C0A2FE06C0B39420
S1132C70B39404C08A2D867809F0B394A3FC11C0E0
S1132C80A0FE06C0B21488F4280C922C9B180EC027
S1132C90B21460F4B60180E290E00E94B816B394D6
S1132CA0F7CFB21418F42B1802C0982C212CA4FED0
S1132CB010C0B60180E390E00E94B816A2FE17C0CF
S1132CC0A1FC03C088E790E002C088E590E0B6016B
S1132CD00CC08A2D867859F0A1FE02C08BE201C097
S1132CE080E2A7FC8DE2B60190E00E94B816891438
S1132CF038F4B60180E390E00E94B8169A94F7CFB6
S1132D008A94F301E80DF11D8081B60190E00E94E0
S1132D10B8168110F5CF222009F442CEB60180E224
S1132D2090E00E94B8162A94F6CFF6018681978126
S1132D3002C08FEF9FEF2B96E2E10C948C1799273A
S1132D4088270895FC010590615070400110D8F760
S1132D50809590958E0F9F1F0895FC0161507040DF
S1132D6001900110D8F7809590958E0F9F1F0895BC
S1132D700F931F93CF93DF93FB01238121FD03C0A6
S1132D808FEF9FEF2CC022FF16C04681578124810C
S1132D9035814217530744F4A081B1819D012F5F0F
S1132DA03F4F208331838C93268137812F5F3F4FA0
S1132DB02683378314C08B01EC01FB010084F18569
S1132DC0E02D0995892BE1F6D80116968D919C91F9
S1132DD01797019616968D939C931797CE01DF91C2
S1132DE0CF911F910F910895FA01AA27283051F12C
S1132DF0203181F1E8946F936E7F6E5F7F4F8F4F28
S1132E009F4FAF4FB1E03ED0B4E03CD0670F781F86
S1132E10891F9A1FA11D680F791F8A1F911DA11D6B
S1132E206A0F711D811D911DA11D20D009F46894A4
S1132E303F912AE0269F11243019305D3193DEF64C
S1132E40CF010895462F4770405D4193B3E00FD002
S1132E50C9F7F6CF462F4F70405D4A3318F0495DED
S1132E6031FD4052419302D0A9F7EACFB4E0A695D0
S1132E709795879577956795BA95C9F700976105F2
S1132E80710508959B01AC010A2E06945795479548
S1132E9037952795BA95C9F7620F731F841F951F3D
S1132EA0A01D0895DC0128ED209334006C9308954F
S1132EB0DB018F939F930E946817BF91AF91A29FEC
S1132EC0800D911DA39F900DB29F900D1124089524
S1132ED00E94CB12A59F900DB49F900DA49F800DCE
S1132EE0911D112408952F923F924F925F926F92F9
S1132EF07F928F929F92AF92BF92CF92DF92EF9286
S1132F00FF920F931F93CF93DF93CDB7DEB7CA1B06
S1132F10DB0BCDBFDEBF09942A88398848885F84DB
S1132F206E847D848C849B84AA84B984C884DF8065
S1132F30EE80FD800C811B81AA81B981CE0FD11D49
S10F2F40CDBFDEBFED010895F894FFCF73
S1132F4C01290A3F0A550A680A7B0A9D0AB70AF640
S1132F5C65F86507665A605760596000660166003B
S1132F6C00040000004066426600BC06CC06DC0689
S1132F7CEE060C072F074907F265F46506665560E3
S1132F8C52605460FE65FF65000002000000286674
S1132F9C2A662500010000AB0001000000000000BF
S1132FAC0000005F00000007000700147F147F146A
S1132FBC242A7F2A122313086462364955225000AE
S1132FCC05030000001C2241000041221C001408CF
S1132FDC3E081408083E0808005030000008080891
S1132FEC0808006060000020100804023E514945A6
S1132FFC3E00427F400042615149462141454B31DC
S113300C1814127F1027454545393C4A494930016B
S113301C710905033649494936064949291E0036C2
S113302C3600000056360000081422410014141413
S113303C1414004122140802015109063249794141
S113304C3E7E1111117E7F494949363E4141412250
S113305C7F4141221C7F494949417F090909013EAD
S113306C4149497A7F0808087F00417F410020408C
S113307C413F017F081422417F404040407F020CB5
S113308C027F7F0408107F3E4141413E7F090909BC
S113309C063E4151215E7F09192946464949493169
S11330AC01017F01013F4040403F1F2040201F3F52
S11330BC4038403F631408146307087008076151D3
S11330CC494543007F41410002040810200041415E
S11330DC7F0004020102044040404040000307000A
S11330EC0020545454787F48444438384444442091
S11330FC384444487F3854545418087E0901020853
S113310C1454543C7F0804047800447D400020404F
S113311C443D007F1028440000417F40007C04188B
S113312C04787C0804047838444444387C1414141B
S113313C08081414187C7C080404084854545420BB
S113314C043F4440203C4040207C1C2040201C3C3C
S113315C4030403C44281028440C5050503C4464AB
S113316C544C44000836410000007F0000004136F6
S113317C080008082A1C08081C2A0808060909065D
S113318C007E1111917E00417FC1007E1111917E50
S113319C3E414141227E1111917E7E1111917E7F1F
S11331AC4949C9417F4949C97F3C434243247E4A2A
S11331BC4B4A4162534A47427E4A4B4A423E41493A
S11331CC497A7F0814224100417F41007F404040EE
S11331DC40444B4A4B327F0408107F7F0408107F15
S11331EC3E4141413E3E4141413E3E4141413E3ED4
S11331FC4141413E44281028443F4040C03F7F4059
S113320C404040444B4A4B323C4141413C3C41419F
S113321C413C62534A474262534A47423649494900
S113322C36205454D47800447DC00020545454782F
S113323C38444444202054545478205454547838FA
S113324C5454D418385455541838454645203854D9
S113325C5554184465564D44385455541808145450
S113326C543C7F1028440000447D400000417F40C2
S113327C0048555655207C080404787C08040478CE
S113328C3844444438384444443838444444383842
S113329C444444380036360000384040A07800419D
S11332AC7F400048545454203842422278384242D9
S11332BC22784465564D444465564D44000503003C
S11332CC0000AEA83FD300402000D9F1DB40A1C8D8
S11332DCDA1281FFA4A6D5F08D14AF040403030104
S11332EC040404020103010002000400080010009D
S11332FC40000001000400020406080A0C0E009BA6
S113330CAD36C15A6CF71982B42FD84375EE32A975
S113331C9F04F3685EC52BB0861DEA7147DC64FF1D
S113332CC952A53E08937DE6D04BBC27118A56CDD5
S113333CFB60970C3AA14FD4E2798E1523B8C8538D
S113334C65FE0992A43FD14A7CE7108BBD26FA6135
S113335C57CC3BA0960DE3784ED522B98F14AC37DD
S113336C019A6DF6C05BB52E188374EFD9429E0595
S113337C33A85FC4F269871C2AB146DDEB700B904D
S113338CA63DCA5167FC1289BF24D3487EE539A2F5
S113339C940FF86355CE20BB8D16E17A4CD76FF49D
S11333ACC259AE35039876EDDB40B72C1A815DC655
S11333BCF06B9C0731AA44DFE972851E28B3C3580D
S11333CC6EF50299AF34DA4177EC1B80B62DF16AB5
S11333DC5CC730AB9D06E87345DE29B2841FA73C5D
S11333EC0A9166FDCB50BE2513887FE4D249950E15
S11333FC38A354CFF9628C1721BA4DD6E07B303008
S113340C303030303030303030303030004D616E50
S113341C75616C206D6F646500204175746F206D4F
S113342C6F64652000435243004C434500544345AC
S113343C00214500417A4D617800417A4D696E0056
S113344C456C4D617800456C4D696E002D2D2D2D0C
S113345C2D2D2D2D2D2D2D2D2D2D2D2D2D2D2D2D8C
S113346C2D0053742E4D3A002533642E25303164CF
S113347C5620202533642E253032644120004C6EB6
S113348C2E4D3A00572E533A2025732025732020B5
S113349C202020202000542E433A2025732025730D
S11334AC2025732020202000456C65766174696F9B
S11334BC6E3A002533642F20253364257300417A3A
S11334CC696D7574683A00257320257300532E506A
S11334DC2E20566F6C74616765002533642E25307D
S11334EC316400532E502043757272656E743A0029
S11334FC2533642E253032640053742E4D2E205601
S113350C6F6C746167650053742E4D2E2043757275
S113351C72656E743A004C2E4D2E20566F6C74618D
S113352C6765004C2E4D2E2043757272656E743A8D
S105353C000089
S9030000FC
