S02100004156523634444433322D4D41494E2D436F6E74726F6C6C65722E7372656320
S11300000C9448000C9465000C9465000C946500F5
S11300100C9465000C9465000C9465000C946500C8
S11300200C9465000C9465000C9465000C946500B8
S11300300C9465000C9465000C9465000C946500A8
S11300400C9465000C9465000C9465000C94650098
S11300500C9465000C9465000C9465000C94650088
S11300600C9465000C9465000C9465000C94650078
S11300700C9465000C9465000C9465000C94650068
S11300800C9465000C9465000C9465000C94650058
S113009011241FBECFEFCDBFDFE7DEBF14E6A0E023
S11300A0B0E6EAEDF4E102C005900D92AC34B1077C
S11300B0D9F724E6ACE4B4E601C01D92AE35B2072C
S11300C0E1F70E9455030C946B0A0C940000E0E0E5
S11300D0F6E087E0818381E08283808308956BE08A
S11300E080E890E00E94F70963E080E690E00E94D7
S11300F0F7098091650080FDFCCF08952F923F920F
S11301004F925F926F927F928F929F92AF92BF9223
S1130110CF92DF92EF92FF920F931F93CF93DF93CF
S1130120CDB7DEB72B97CDBFDEBFC22EB32EA42E24
S1130130952E862E772E682E592EF22E032F142FED
S11301405A876983B72FD82EE92EE0E0F0E014C077
S113015031962F2D302F412F5A8569817B2F8D2D7C
S11301609E2D08E00E94C405F22E032F142F5A87F7
S11301706983B72FD82EE92E2F2D302F412F5A8582
S113018069817B2F8D2D9E2DA0E00E94E00501F753
S11301908FEF8A87CB86B9824A2C392C282C1AC037
S11301A08D01000F111F000F111F000F111F2B8550
S11301B03981442D532D622D772D862D952D0E9446
S11301C0C4058A848226912CF401EB5BFC4980816E
S11301D08A87FD01DF011197EF2B11F78A852B9692
S11301E0CDBFDEBFDF91CF911F910F91FF90EF90B4
S11301F0DF90CF90BF90AF909F908F907F906F9043
S11302005F904F903F902F9008950F93CF93C22FFC
S11302100E947E00801302C08C2F01C080E0CF9129
S11302200F9108950F93CF93DF93FC0120E030E00A
S113023040E050E060E070E080E090E03AC004E02C
S11302400E94A905E0EDEC0FEA3070F4D0E0E097ED
S1130250ED2FEE0FEE0B2C2B3D2B4E2B5E2B6E2B2E
S11302607E2B8E2B9E2B24C0EFEBEC0FE63070F42C
S1130270D0E0E797ED2FEE0FEE0B2C2B3D2B4E2B02
S11302805E2B6E2B7E2B8E2B9E2B12C0EFE9EC0F78
S1130290E630A8F4D0E0C755D109ED2FEE0FEE0BF0
S11302A02C2B3D2B4E2B5E2B6E2B7E2B8E2B9E2BC5
S11302B0FD01DF011196C081C111C1CF08C020E04A
S11302C030E040E050E060E070E080E090E0DF91FA
S11302D0CF910F9108957F928F929F92AF92BF9288
S11302E0CF92DF92EF92FF920F931F93CF93DF93FE
S11302F0CDB7DEB7A097CDBFDEBF6C0186E0EFE3DC
S1130300F3E6DE01119601900D928A95E1F74FE034
S113031050E0B601CE0107960E9428071E8ACE013E
S113032007960E941201722E832E942EA52EB62EAD
S1130330E72EF82E192FB601615F7F4F42E050E09F
S1130340CE0107960E942807198640E150E060E03C
S113035070E0CE0107960E940006062F272D382D47
S1130360492D5A2D6B2D7E2D8F2D912F0E94050125
S1130370811169C07EC05E0187E1A80EB11C8AE0CC
S1130380F50111928A95E9F7E1E0F0E0EC0FFD1F29
S1130390E10FF11DE080F12CA701B601C5010E9417
S11303A01F07F501EE0DFF1D1082123029F128F40C
S11303B0112341F0113099F042C0133051F114303F
S11303C0A9F13DC040E150E060E070E0CE01479605
S11303D00E94000660934C6470934D6430C040E109
S11303E050E060E070E0CE0147960E940006609302
S11303F04E6470934F6423C040E150E060E070E0CD
S1130400CE0147960E940006609350647093516435
S113041016C040E150E060E070E0CE0147960E94D3
S11304200006609352647093536409C040E150E045
S113043060E070E0CE0147960E940006062FCE0CC5
S1130440DF1C1F5F02C010E000E0163008F493CFF9
S1130450802F8170ECE4F4E6808701FB882780F923
S1130460818702FB882780F9828703FB002700F934
S11304700387A096CDBFDEBFDF91CF911F910F916F
S1130480FF90EF90DF90CF90BF90AF909F908F90B0
S11304907F9008950F931F93CF93DF93CDB7DEB76B
S11304A06197CDBFDEBFFE01319681E1DF011D9270
S11304B08A95E9F700E010E00E9473059091586472
S11304C0992329F0E8E5F4E61082118234C0002370
S11304D0C1F08E3361F4E1E0F0E0EC0FFD1FE10FB9
S11304E0F11D1082CE0101960E946B0124C01131CE
S11304F040F4E1E0F0E0EC0FFD1FE10FF11D80831B
S11305001F5F8C3331F4E8E5F4E61082118201E0D8
S113051010E080915A64882379F2E8E5F4E61282C7
S113052081818A3020F48F5F80935964C5CF81E044
S113053080935864C1CF6196CDBFDEBFDF91CF9168
S11305401F910F910895E0EEF5E081E18283168218
S1130550E0E0F4E08EED818380E2828398E0948B86
S1130560958BE0E6F4E090E69183858380E88683CA
S1130570E0EAF4E08FE081838583E0E4F4E08089BD
S1130580887F808B80898460808B8089877F808B43
S11305908189887F818B81898460818B8189877F30
S11305A0818B8289887F828B82898460828B828915
S11305B0877F828B81E081830895E0E0F9E082E027
S11305C0808385E0868381E083838583089590E03A
S11305D0880F991F862B8093070940E251EA67E050
S11305E070E009C0415051096109710921F483E0A7
S11305F08093040905C080910509807C99F380E00B
S11306009091050994FD81E0909105099C7009F091
S113061082E0882319F093E09093040980935B644B
S11306200895282F9091050994FD02C080E001C02F
S113063081E0909105099C7009F082E0882319F00B
S113064093E090930409811114C02093080940E2B7
S113065051EA67E070E009C041505109610971092C
S113066021F483E08093040904C09091050996FF66
S1130670F3CF80935B640895CF93DF93C62FD42F79
S113068060E00E94E702811108C08C2F0E941103D0
S1130690811103C08D2F0E941103E0E0F9E08481F1
S11306A083608483DF91CF9108950E946F000E943C
S11306B0A3020E94DD020E9467000E945B050E9463
S11306C068050E9455040E949C0480E00E94310445
S11306D02FEF32E587E0215030408040E1F700C041
S11306E0000082E00E9431049FEFE2E5F7E09150C0
S11306F0E040F040E1F700C0000081E00E943104D6
S11307002FEF32E587E0215030408040E1F700C010
S1130710000083E00E9431049FEFE2E5F7E091508E
S1130720E040F040E1F700C000000E944A020CE4FF
S113073014E6F80120813181369527953695279561
S1130740ABE7B4E10E949A05969587959F938F93A2
S1130750FF24F394FF921F92C5E4D4E6DF93CF9372
S11307600E943D05F80122813381369527953695FF
S11307702795ABE7B4E10E949A05969587959F93D8
S11307808F93FF92FF92DF93CF930E943D05F80170
S113079024813581ADECBCEC0E949A059695879531
S11307A096958795969587959F938F931F926894B6
S11307B0FF24F1F8FF92DF93CF930E943D05F801E7
S11307C026813781ADECBCEC0E949A0596958795FD
S11307D096958795969587959F938F93FF92FF9211
S11307E0DF93CF930E943D05F80180851F928F937C
S11307F01F920F2EF3E0EF2EF02DEF92C9E4D4E612
S1130800DF93CF930E943D05F80181851F928F935A
S1130810FF92EF92DF93CF930E943D05F80182850A
S11308202DB73EB72C5D3F4F2DBF3EBF1F928F9318
S11308301F926894EE24E2F8EF92DF93CF930E9424
S11308403D05F80183851F928F93FF92EF92DF930A
S1130850CF930E943D058DB79EB70C968DBF9EBF6A
S113086034CF813051F028F0823059F0833069F070
S1130870089581E080934504089581E080934604BF
S1130880089580E480930504089580E48093060429
S11308900895482F60E08CE30E943C030895482F9C
S11308A060E48CE30E943C030895CF9360E08CE302
S11308B00E94E702C0E008C0EC2FF0E0EB5DFC49C9
S11308C080810E941103CF5FCA31B0F3CF910895A4
S11308D01F93CF93DF93D82F80EE8D0F803628F0AF
S11308E0D03B19F0D03C08F4D0E2D03B21F0D03C0E
S11308F020F410E203C010E501C01FE5C0E013C0FE
S11309008D2F90E0811B9109FC01EE0FFF1FEE0F6C
S1130910FF1FE80FF91FE050F04AEC0FF11D808132
S11309200E944F04CF5FC53058F380E00E944F040B
S1130930DF91CF911F9108950F931F93CF93DF936E
S113094000E010E016C080EB800F0E94490480E0B4
S11309500E94490480E10E944904C0E0D0E004C040
S113096080E00E944F042196C038D105CCF30F5F7C
S11309701F4F083011053CF3DF91CF911F910F9168
S113098008950F931F93CF93DF938C01D62FC0E06C
S113099005C00E9468040F5F1F4FCF5FF80180817C
S11309A0882339F0CD17A8F304C080E20E946804BC
S11309B0CF5FCD17D0F3DF91CF911F910F910895A1
S11309C00F931F93CF93DF938C01262FC42F80E8BE
S11309D090E0841B910966E070E00E948605D62FA2
S11309E0822F806B0E9449048C2F82958F708061C6
S11309F00E9449048C2F8F700E9449046D2FC801F6
S1130A000E94C104DF91CF911F910F910895AC0111
S1130A1090E001C09F5FFA01E90FF11D20812111CF
S1130A20F9CF892F880F980F292F220F613019F0E1
S1130A30623069F00FC080E890E0AC01421B5109BC
S1130A40CA0199230CF4019695958795089580E839
S1130A50821B089580E008951F93CF93DF93EC01E8
S1130A60162F642F0E940705482F612FCE010E9484
S1130A70E004DF91CF911F910895CF93DF93CDB719
S1130A80DEB7E297CDBFDEBF9E01255C3F4F4FA985
S1130A9058AD62E370E0CE0101960E9437074AAD7B
S1130AA069ADCE0101960E942C05E296CDBFDEBF52
S1130AB0DF91CF910895E0E0F8E080E490E0808752
S1130AC0918781E0858382EC868383E08783089520
S1130AD0E0E2F8E081EA91E08087918782E886830A
S1130AE083E08783089580E88093240880E291EA74
S1130AF0A7E0B0E004C00197A109B10921F0209159
S1130B0024082223C4F780912008089597FB072E18
S1130B1016F4009407D077FD09D00E94EC0507FC79
S1130B2005D03EF4909581959F4F089570956195F9
S1130B307F4F0895A29FB001B39FC001A39F700D82
S1130B40811D1124911DB29F700D811D1124911DD1
S1130B5008950F93083090F0982F872F762F652FE4
S1130B60542F432F322F22270850F4CF220F331F44
S1130B70441F551F661F771F881F991F0A95B2F7D8
S1130B800F91089597FB10F8169400080F930830FE
S1130B9098F00850232F342F452F562F672F782F86
S1130BA0892F902DF4CF0594979587957795679520
S1130BB057954795379527950A95AAF70F91089564
S1130BC00024A7FD00942A17300540055005600550
S1130BD07005800590050895AA1BBB1B51E107C051
S1130BE0AA1FBB1FA617B70710F0A61BB70B881FB9
S1130BF0991F5A95A9F780959095BC01CD01089548
S1130C00A0E0B0E0E6E0F6E00C943B0A5C016B0186
S1130C107A016115710519F0FB0180839183E11458
S1130C20F10429F0C7010297839708F0E5C0E501B4
S1130C302196F5011081812F90E00E941607892BDF
S1130C4011F05E01F4CF1D3229F42196F5011181D2
S1130C5001E007C01B3221F4E5012296F501118160
S1130C6000E0E114F10409F1F0E1EF16F10429F4D4
S1130C703FC010E3E114F10421F128E0E216F1048D
S1130C8001F154F4E2E0EE16F10421F5812C912CEB
S1130C90A12CB0E4BB2E3EC0FAE0EF16F10439F00B
S1130CA020E1E216F104B1F430C0103319F1FAE096
S1130CB0EF2EF12CACEC8A2E982CA82CACE0BA2E9A
S1130CC029C078E0E72EF12C812C912CA12CE0E1B5
S1130CD0BE2E20C060E070E080E090E897010F2C09
S1130CE0000C440B550B0E940D0A49015A0112C015
S1130CF0103359F488818F7D883509F0BACF198172
S1130D002296026080E1E82EF12C812C912CA12CFA
S1130D1068E0B62E40E060E070E0CB0127010F2CC4
S1130D20000C66087708FE0150ED352E310E29E0DF
S1130D30231570F42FEB210F2A3118F439EC332EDC
S1130D4006C02FE9210F2A3118F529EA322E310E77
S1130D50232D30E02E153F05DCF447FD16C0861622
S1130D609706A806B90670F0A30192010E94FD0936
S1130D70630D711D811D911D61307105810520E890
S1130D80920710F04FEF01C041E021961081CBCFC4
S1130D90202F2170C114D10471F0442329F021972C
S1130DA0F601C083D18307C001FF19C02297F60161
S1130DB0C083D18314C047FF12C0222329F060E00E
S1130DC070E080E090E804C06FEF7FEF8FEF9FE763
S1130DD022E230E020935C6430935D6409C02223F6
S1130DE081F090958095709561957F4F8F4F9F4FBF
S1130DF0462F372F282F12C040E030E020E090E04B
S1130E000DC097FFF5CF82E290E080935C649093ED
S1130E105D646FEF7FEF8FEF9FE7EACF642F732F4F
S1130E20822FCDB7DEB7E1E10C94540A91110C94F2
S1130E304409803219F089508550C8F70895FB01A0
S1130E40DC0102C001900D9241505040D8F7089542
S1130E50FB01DC014150504048F001900D9200200C
S1130E60C9F701C01D9241505040E0F70895AEE02B
S1130E70B0E0EDE3F7E00C94480A8C01FA0186E057
S1130E808C8309831A8377FF02C060E070E8CB018A
S1130E9001978D839E83A901BF01CE0101960E9413
S1130EA063074D815E8157FD0AC02F813885421743
S1130EB053070CF49A01F801E20FF31F10822E96E7
S1130EC0E4E00C94610AABE0B0E0E9E6F7E00C94EE
S1130ED03A0A6C017B018A01FC0116821782838124
S1130EE081FFCCC1CE0101963C01F6019381F7014B
S1130EF093FD859193FF81917F01882309F4BAC101
S1130F00853239F493FD859193FF81917F01853278
S1130F1029F4B60190E00E945D09E7CF912C212CC1
S1130F20312CFFE1F315D8F08B3279F038F48032AC
S1130F3079F08332A1F4232D20611DC08D3261F03C
S1130F40803369F4232D216016C0832D8260382EEE
S1130F50E32DE4603E2E2AC0F32DF8601DC037FC5B
S1130F602DC020ED280F2A3040F08E32B9F436FC23
S1130F7081C1232D2064322E19C036FE06C08AE0BA
S1130F80989E200D1124922E11C0EAE02E9E200D71
S1130F901124222EF32DF0623F2E08C08C3621F44A
S1130FA0832D8068382E02C0883641F4F70193FD02
S1130FB0859193FF81917F018111B3CF982F9F7DFC
S1130FC09554933028F40C5F1F4F9FE399830DC011
S1130FD0833631F0833771F0833509F059C021C06D
S1130FE0F801808189830E5F1F4F88248394912C9C
S1130FF0530113C02801F2E04F0E511CF801A080E8
S1131000B18036FE03C0692D70E002C06FEF7FEF40
S1131010C5010E9452094C018201F32DFF773F2E36
S113102016C0280122E0420E511CF801A080B180B4
S113103036FE03C0692D70E002C06FEF7FEFC5017B
S11310400E9447094C01F32DF0683F2E820133FCC6
S11310501BC0822D90E088169906B0F4B60180E298
S113106090E00E945D092A94F4CFF50137FC859144
S113107037FE81915F01B60190E00E945D09211065
S11310802A9421E0821A91088114910471F7E8C02E
S1131090843611F0893641F5F80137FE07C06081C6
S11310A07181828193810C5F1F4F08C060817181BF
S11310B0072E000C880B990B0E5F1F4FF32DFF7644
S11310C03F2E97FF09C090958095709561957F4F4D
S11310D08F4F9F4FF0683F2E2AE030E0A3010E941B
S11310E09909882E861845C0853731F4232D2F7E23
S11310F0B22E2AE030E025C0932D997FB92E8F3689
S1131100C1F018F4883579F0B5C0803719F0883704
S113111021F0B0C0E92FE061BE2EB4FE0DC0FB2D5E
S1131120F460BF2E09C034FE0AC0292F2660B22EF7
S113113006C028E030E005C020E130E002C020E134
S113114032E0F801B7FE07C060817181828193812A
S11311500C5F1F4F06C06081718180E090E00E5FDC
S11311601F4FA3010E949909882E8618FB2DFF7733
S11311703F2E36FE0DC0232D2E7FA22E891458F447
S113118034FE0BC032FC09C0832D8E7EA82E05C010
S1131190B82CA32C03C0B82C01C0B92CA4FE0FC0DA
S11311A0FE01E80DF11D8081803321F49A2D997E92
S11311B0A92E09C0A2FE06C0B394B39404C08A2D1C
S11311C0867809F0B394A3FC11C0A0FE06C0B21443
S11311D088F4280C922C9B180EC0B21460F4B6014B
S11311E080E290E00E945D09B394F7CFB21418F442
S11311F02B1802C0982C212CA4FE10C0B60180E349
S113120090E00E945D09A2FE17C0A1FC03C088E71C
S113121090E002C088E590E0B6010CC08A2D867883
S113122059F0A1FE02C08BE201C080E2A7FC8DE26E
S1131230B60190E00E945D09891438F4B60180E398
S113124090E00E945D099A94F7CF8A94F301E80D27
S1131250F11D8081B60190E00E945D098110F5CFF7
S1131260222009F442CEB60180E290E00E945D099A
S11312702A94F6CFF6018681978102C08FEF9FEF03
S11312802B96E2E10C94530A992788270895FC01D0
S11312900590615070400110D8F7809590958E0F9D
S11312A09F1F0895FC016150704001900110D8F710
S11312B0809590958E0F9F1F08950F931F93CF9342
S11312C0DF93FB01238121FD03C08FEF9FEF2CC02F
S11312D022FF16C046815781248135814217530766
S11312E044F4A081B1819D012F5F3F4F208331835E
S11312F08C93268137812F5F3F4F2683378314C019
S11313008B01EC01FB010084F185E02D0995892B0B
S1131310E1F6D80116968D919C9117970196169631
S11313208D939C931797CE01DF91CF911F910F91CD
S11313300895FA01AA27283051F1203181F1E89467
S11313406F936E7F6E5F7F4F8F4F9F4FAF4FB1E0B4
S11313503ED0B4E03CD0670F781F891F9A1FA11DAF
S1131360680F791F8A1F911DA11D6A0F711D811DB0
S1131370911DA11D20D009F468943F912AE0269F75
S113138011243019305D3193DEF6CF010895462FD4
S11313904770405D4193B3E00FD0C9F7F6CF462FB5
S11313A04F70405D4A3318F0495D31FD405241931E
S11313B002D0A9F7EACFB4E0A695979587957795DB
S11313C06795BA95C9F700976105710508959B0162
S11313D0AC010A2E06945795479537952795BA95EB
S11313E0C9F7620F731F841F951FA01D0895DC01A8
S11313F028ED209334006C930895DB018F939F9321
S11314000E942F0ABF91AF91A29F800D911DA39FAF
S1131410900DB29F900D11240895A1E21A2EAA1BDB
S1131420BB1BFD010DC0AA1FBB1FEE1FFF1FA21790
S1131430B307E407F50720F0A21BB30BE40BF50B8D
S1131440661F771F881F991F1A9469F76095709516
S1131450809590959B01AC01BD01CF0108950E9438
S11314609A05A59F900DB49F900DA49F800D911D8A
S1131470112408952F923F924F925F926F927F9220
S11314808F929F92AF92BF92CF92DF92EF92FF9290
S11314900F931F93CF93DF93CDB7DEB7CA1BDB0B3C
S11314A0CDBFDEBF09942A88398848885F846E845A
S11314B07D848C849B84AA84B984C884DF80EE8074
S11314C0FD800C811B81AA81B981CE0FD11DCDBFB6
S10D14D0DEBFED010895F894FFCF8C
S11314DA000000000000005F00000007000700147D
S11314EA7F147F14242A7F2A12231308646236493C
S11314FA5522500005030000001C2241000041222D
S113150A1C0014083E081408083E0808005030005D
S113151A0008080808080060600000201008040297
S113152A3E5149453E00427F4000426151494621AD
S113153A41454B311814127F1027454545393C4A19
S113154A4949300171090503364949493606494969
S113155A291E0036360000005636000008142241BF
S113156A0014141414140041221408020151090627
S113157A324979413E7E1111117E7F494949363EED
S113158A414141227F4141221C7F494949417F0906
S113159A0909013E4149497A7F0808087F00417FC9
S11315AA41002040413F017F081422417F404040CE
S11315BA407F020C027F7F0408107F3E4141413E76
S11315CA7F090909063E4151215E7F0919294646C8
S11315DA4949493101017F01013F4040403F1F20F1
S11315EA40201F3F4038403F6314081463070870C3
S11315FA08076151494543007F414100020408102C
S113160A200041417F00040201020440404040405E
S113161A000307000020545454787F48444438385F
S113162A44444420384444487F3854545418087E67
S113163A090102081454543C7F0804047800447DC8
S113164A40002040443D007F1028440000417F4070
S113165A007C041804787C08040478384444443828
S113166A7C14141408081414187C7C08040408480C
S113167A54545420043F4440203C4040207C1C20C5
S113168A40201C3C4030403C44281028440C505014
S113169A503C4464544C44000836410000007F0026
S11316AA00004136080008082A1C08081C2A0808F1
S11316BA06090906007E1111917E00417FC1007E50
S11316CA1111917E3E414141227E1111917E7E117A
S11316DA11917E7F4949C9417F4949C97F3C4342A7
S11316EA43247E4A4B4A4162534A47427E4A4B4A02
S11316FA423E4149497A7F0814224100417F410010
S113170A7F40404040444B4A4B327F0408107F7F5D
S113171A0408107F3E4141413E3E4141413E3E4123
S113172A41413E3E4141413E44281028443F404005
S113173AC03F7F40404040444B4A4B323C414141C8
S113174A3C3C4141413C62534A474262534A474204
S113175A3649494936205454D47800447DC000207F
S113176A54545478384444442020545454782054CB
S113177A545478385454D41838545554183845465F
S113178A452038545554184465564D4438545554D4
S113179A18081454543C7F1028440000447D400027
S11317AA00417F400048555655207C080404787C43
S11317BA080404783844444438384444443838449F
S11317CA44443838444444380036360000384040EB
S11317DAA07800417F4000485454542038424222A1
S11317EA7838424222784465564D444465564D44FD
S11317FA000503000000AEA83FD300402000D9F141
S113180ADB40A1C8DA1281FFA4A6D5F08D14AF0477
S113181A0403030102009BAD36C15A6CF71982B462
S113182A2FD84375EE32A99F04F3685EC52BB086A0
S113183A1DEA7147DC64FFC952A53E08937DE6D0D0
S113184A4BBC27118A56CDFB60970C3AA14FD4E2C0
S113185A798E1523B8C85365FE0992A43FD14A7CF0
S113186AE7108BBD26FA6157CC3BA0960DE3784E60
S113187AD522B98F14AC37019A6DF6C05BB52E1810
S113188A8374EFD9429E0533A85FC4F269871C2A80
S113189AB146DDEB700B90A63DCA5167FC1289BFB5
S11318AA24D3487EE539A2940FF86355CE20BB8D24
S11318BA16E17A4CD76FF4C259AE35039876EDDB4C
S11318CA40B72C1A815DC6F06B9C0731AA44DFE944
S11318DA72851E28B3C3586EF50299AF34DA41777C
S11318EAEC1B80B62DF16A5CC730AB9D06E87345E4
S11318FADE29B2841FA73C0A9166FDCB50BE25138C
S113190A887FE4D249950E38A354CFF9628C172103
S10F191ABA4DD6E07B2533640025640040
S9030000FC
