S02100004156523634444433322D4D41494E2D436F6E74726F6C6C65722E7372656320
S11300000C9448000C9465000C9465000C946500F5
S11300100C9465000C9465000C9465000C946500C8
S11300200C9465000C9465000C9465000C946500B8
S11300300C9465000C9465000C9465000C946500A8
S11300400C9465000C9465000C9465000C94650098
S11300500C9465000C9465000C9465000C94650088
S11300600C9465000C9465000C9465000C94650078
S11300700C9465000C9465000C9465000C94650068
S11300800C9465000C9465000C9465000C94650058
S113009011241FBECFEFCDBFDFE7DEBF13E6A0E024
S11300A0B0E6E6E7FCE002C005900D92A634B10785
S11300B0D9F723E6A6E4B3E601C01D92AC34B20737
S11300C0E1F70E946A010C9439060C940000E0E008
S11300D0F6E087E0818381E082838083089595E060
S11300E09093B00080930806089581E080930A06F7
S11300F080910D0680FFFCCFE0E0F6E081E085878B
S113010080899189929582958F7089279F7089271C
S113011008956BE080E890E00E94020663E080E6C8
S113012090E00E9402068091650080FDFCCF089556
S1130130E0EEF5E081E182831682E0E0F4E08CED0C
S1130140818382E2828388E0818B848B858BE0E4E7
S1130150F4E08189887F818B81898460818B8289A5
S1130160887F828B82898460828B81E08183E0E650
S1130170F4E080E6818380E2858380E88683E0EA98
S1130180F4E08FE0818385830895E0E0F9E082E084
S1130190808385E0868381E083838583089590E06E
S11301A0880F991F862B8093070940E251EA67E084
S11301B070E009C0415051096109710921F483E0DB
S11301C08093040905C080910509807C99F380E03F
S11301D09091050994FD81E0909105099C7009F0C6
S11301E082E0882319F093E0909304098093466396
S11301F00895282F9091050994FD02C080E001C064
S113020081E0909105099C7009F082E0882319F03F
S113021093E090930409811114C02093080940E2EB
S113022051EA67E070E009C0415051096109710960
S113023021F483E08093040904C09091050996FF9A
S1130240F3CF809346630895CF93DF93C62FD42FC3
S113025060E00E94CF00811108C08C2F0E94F90039
S1130260811103C08D2F0E94F900E0E0F9E0848140
S113027083608483DF91CF910895809108048695EB
S113028091E08927817008950F931F93CF93DF9393
S11302908DE10E946F000E947500985004EF11E0F8
S11302A0B8010E941D03C7E4D3E6688379838EE115
S11302B00E946F000E9475009850B8010E941D03AF
S11302C06A837B830E943D018C83DF91CF911F91D0
S11302D00F9108950E9489000E9498000E94C50011
S11302E00E9467000E9405030E9412030E94FF01FE
S11302F00E94460280E00E94DB012FEF82E597E036
S1130300215080409040E1F700C0000082E00E944C
S1130310DB012FEF82E597E0215080409040E1F728
S113032000C0000081E00E94DB012FEF82E597E02E
S1130330215080409040E1F700C0000083E00E941B
S1130340DB012FEF82E597E0215080409040E1F7F8
S113035000C000000E944401C7E4D3E689818F9362
S113036088818F9311E01F931F920F2EFFE3EF2ECE
S1130370F3E6FF2EF02DFF92EF920E94E7028B81AD
S11303808F938A818F931F931F93FF92EF920E9402
S1130390E7028C811F928F931F9382E08F9383E4F3
S11303A093E69F938F930E94E7028DB79EB7429680
S11303B08DBF9EBF9FCF813051F028F0823059F01D
S11303C0833069F0089581E080934504089581E0C5
S11303D080934604089580E480930504089580E49E
S11303E0809306040895482F60E08CE30E94240162
S11303F00895482F60E48CE30E9424010895CF936C
S113040060E08CE30E94CF00C0E008C0EC2FF0E075
S1130410EB5DFC4980810E94F900CF5FCA31B0F3E3
S1130420CF9108951F93CF93DF93D82F80EE8D0F34
S1130430803628F0D03B19F0D03C08F4D0E2D03B11
S113044021F0D03C20F410E203C010E501C01FE508
S1130450C0E013C08D2F90E0811B9109FC01EE0FC9
S1130460FF1FEE0FFF1FE80FF91FE050F04AEC0FDB
S1130470F11D80810E94F901CF5FC53058F380E0FF
S11304800E94F901DF91CF911F9108950F931F935B
S1130490CF93DF9300E010E016C080EB800F0E9442
S11304A0F30180E00E94F30180E10E94F301C0E0C7
S11304B0D0E004C080E00E94F9012196C038D10543
S11304C0CCF30F5F1F4F083011053CF3DF91CF9140
S11304D01F910F9108950F931F93CF93DF938C0176
S11304E0D62FC0E005C00E9412020F5F1F4FCF5FDE
S11304F0F8018081882339F0CD17A8F304C080E285
S11305000E941202CF5FCD17D0F3DF91CF911F91DC
S11305100F9108950F931F93CF93DF938C01262F90
S1130520C42F80E890E0841B910966E070E00E948B
S11305301D03D62F822F806B0E94F3018C2F82958E
S11305408F7080610E94F3018C2F8F700E94F301E1
S11305506D2FC8010E946B02DF91CF911F910F9103
S11305600895AC0190E001C09F5FFA01E90FF11D0D
S113057020812111F9CF892F880F980F292F220F5D
S1130580613019F0623069F00FC080E890E0AC018E
S1130590421B5109CA0199230CF40196959587953C
S11305A0089580E8821B089580E008951F93CF93F7
S11305B0DF93EC01162F642F0E94B102482F612FA4
S11305C0CE010E948A02DF91CF911F910895CF93AB
S11305D0DF93CDB7DEB7E297CDBFDEBF9E01255CCA
S11305E03F4F4FA958AD62E370E0CE0101960E94DF
S11305F045034AAD69ADCE0101960E94D602E2964A
S1130600CDBFDEBFDF91CF910895E0E0F8E080E454
S113061090E08087918781E0858382EC868383E004
S113062087830895E0E2F8E081EA91E0808791878A
S113063082E8868383E08783089597FB072E16F468
S1130640009407D077FD09D00E94310307FC05D040
S11306503EF4909581959F4F0895709561957F4FD5
S11306600895AA1BBB1B51E107C0AA1FBB1FA617F5
S1130670B70710F0A61BB70B881F991F5A95A9F747
S113068080959095BC01CD010895AEE0B0E0EBE417
S1130690F3E00C9416068C01FA0186E08C8309833E
S11306A01A8377FF02C060E070E8CB0101978D8365
S11306B09E83A901BF01CE0101960E9471034D8161
S11306C05E8157FD0AC02F813885421753070CF409
S11306D09A01F801E20FF31F10822E96E4E00C94C5
S11306E02F06ABE0B0E0E7E7F3E00C9408066C01FA
S11306F07B018A01FC0116821782838181FFCCC1B0
S1130700CE0101963C01F6019381F70193FD859199
S113071093FF81917F01882309F4BAC1853239F4AA
S113072093FD859193FF81917F01853229F4B60170
S113073090E00E946805E7CF912C212C312CFFE139
S1130740F315D8F08B3279F038F4803279F08332B3
S1130750A1F4232D20611DC08D3261F0803369F432
S1130760232D216016C0832D8260382EE32DE46092
S11307703E2E2AC0F32DF8601DC037FC2DC020ED9D
S1130780280F2A3040F08E32B9F436FC81C1232D73
S11307902064322E19C036FE06C08AE0989E200DD1
S11307A01124922E11C0EAE02E9E200D1124222E37
S11307B0F32DF0623F2E08C08C3621F4832D80681F
S11307C0382E02C0883641F4F70193FD859193FFDA
S11307D081917F018111B3CF982F9F7D95549330E0
S11307E028F40C5F1F4F9FE399830DC0833631F0CB
S11307F0833771F0833509F059C021C0F801808135
S113080089830E5F1F4F88248394912C530113C056
S11308102801F2E04F0E511CF801A080B18036FE91
S113082003C0692D70E002C06FEF7FEFC5010E9425
S11308305D054C018201F32DFF773F2E16C0280180
S113084022E0420E511CF801A080B18036FE03C0A4
S1130850692D70E002C06FEF7FEFC5010E94520561
S11308604C01F32DF0683F2E820133FC1BC0822D16
S113087090E088169906B0F4B60180E290E00E94F8
S113088068052A94F4CFF50137FC859137FE8191F0
S11308905F01B60190E00E94680521102A9421E0CE
S11308A0821A91088114910471F7E8C0843611F01A
S11308B0893641F5F80137FE07C060817181828174
S11308C093810C5F1F4F08C060817181072E000C5B
S11308D0880B990B0E5F1F4FF32DFF763F2E97FF6A
S11308E009C090958095709561957F4F8F4F9F4F6C
S11308F0F0683F2E2AE030E0A3010E94A405882E70
S1130900861845C0853731F4232D2F7EB22E2AE078
S113091030E025C0932D997FB92E8F36C1F018F49D
S1130920883579F0B5C0803719F0883721F0B0C028
S1130930E92FE061BE2EB4FE0DC0FB2DF460BF2E86
S113094009C034FE0AC0292F2660B22E06C028E052
S113095030E005C020E130E002C020E132E0F801DF
S1130960B7FE07C060817181828193810C5F1F4F44
S113097006C06081718180E090E00E5F1F4FA3018B
S11309800E94A405882E8618FB2DFF773F2E36FE85
S11309900DC0232D2E7FA22E891458F434FE0BC0D3
S11309A032FC09C0832D8E7EA82E05C0B82CA32C42
S11309B003C0B82C01C0B92CA4FE0FC0FE01E80D81
S11309C0F11D8081803321F49A2D997EA92E09C0CE
S11309D0A2FE06C0B394B39404C08A2D867809F0AD
S11309E0B394A3FC11C0A0FE06C0B21488F4280C72
S11309F0922C9B180EC0B21460F4B60180E290E011
S1130A000E946805B394F7CFB21418F42B1802C0EF
S1130A10982C212CA4FE10C0B60180E390E00E9423
S1130A206805A2FE17C0A1FC03C088E790E002C0DD
S1130A3088E590E0B6010CC08A2D867859F0A1FEB5
S1130A4002C08BE201C080E2A7FC8DE2B60190E017
S1130A500E946805891438F4B60180E390E00E948E
S1130A6068059A94F7CF8A94F301E80DF11D80810B
S1130A70B60190E00E9468058110F5CF222009F4A8
S1130A8042CEB60180E290E00E9468052A94F6CF37
S1130A90F6018681978102C08FEF9FEF2B96E2E1EA
S1130AA00C942106FC010590615070400110D8F7A8
S1130AB0809590958E0F9F1F0895FC0161507040A2
S1130AC001900110D8F7809590958E0F9F1F08957F
S1130AD00F931F93CF93DF93FB01238121FD03C069
S1130AE08FEF9FEF2CC022FF16C0468157812481CF
S1130AF035814217530744F4A081B1819D012F5FD2
S1130B003F4F208331838C93268137812F5F3F4F62
S1130B102683378314C08B01EC01FB010084F1852B
S1130B20E02D0995892BE1F6D80116968D919C91BB
S1130B301797019616968D939C931797CE01DF9184
S1130B40CF911F910F910895FA01AA27283051F1EE
S1130B50203181F1E8946F936E7F6E5F7F4F8F4FEA
S1130B609F4FAF4FB1E03ED0B4E03CD0670F781F49
S1130B70891F9A1FA11D680F791F8A1F911DA11D2E
S1130B806A0F711D811D911DA11D20D009F4689467
S1130B903F912AE0269F11243019305D3193DEF60F
S1130BA0CF010895462F4770405D4193B3E00FD0C5
S1130BB0C9F7F6CF462F4F70405D4A3318F0495DB0
S1130BC031FD4052419302D0A9F7EACFB4E0A69593
S1130BD09795879577956795BA95C9F700976105B5
S1130BE0710508959B01AC010A2E0694579547950B
S1130BF037952795BA95C9F7620F731F841F951F00
S1130C00A01D0895DC0128ED209334006C93089511
S1130C102F923F924F925F926F927F928F929F9208
S1130C20AF92BF92CF92DF92EF92FF920F931F93F6
S1130C30CF93DF93CDB7DEB7CA1BDB0BCDBFDEBFCF
S1130C4009942A88398848885F846E847D848C84DA
S1130C509B84AA84B984C884DF80EE80FD800C81E3
S1130C601B81AA81B981CE0FD11DCDBFDEBFED019D
S1090C700895F894FFCF83
S1130C76000000000000005F0000000700070014E9
S1130C867F147F14242A7F2A1223130864623649A8
S1130C965522500005030000001C22410000412299
S1130CA61C0014083E081408083E080800503000CA
S1130CB60008080808080060600000201008040204
S1130CC63E5149453E00427F40004261514946211A
S1130CD641454B311814127F1027454545393C4A86
S1130CE649493001710905033649494936064949D6
S1130CF6291E00363600000056360000081422412C
S1130D060014141414140041221408020151090693
S1130D16324979413E7E1111117E7F494949363E59
S1130D26414141227F4141221C7F494949417F0972
S1130D360909013E4149497A7F0808087F00417F35
S1130D4641002040413F017F081422417F4040403A
S1130D56407F020C027F7F0408107F3E4141413EE2
S1130D667F090909063E4151215E7F091929464634
S1130D764949493101017F01013F4040403F1F205D
S1130D8640201F3F4038403F63140814630708702F
S1130D9608076151494543007F4141000204081098
S1130DA6200041417F0004020102044040404040CB
S1130DB6000307000020545454787F4844443838CC
S1130DC644444420384444487F3854545418087ED4
S1130DD6090102081454543C7F0804047800447D35
S1130DE640002040443D007F1028440000417F40DD
S1130DF6007C041804787C08040478384444443895
S1130E067C14141408081414187C7C080404084878
S1130E1654545420043F4440203C4040207C1C2031
S1130E2640201C3C4030403C44281028440C505080
S1130E36503C4464544C44000836410000007F0092
S1130E4600004136080008082A1C08081C2A08085D
S1130E5606090906007E1111917E00417FC1007EBC
S1130E661111917E3E414141227E1111917E7E11E6
S1130E7611917E7F4949C9417F4949C97F3C434213
S1130E8643247E4A4B4A4162534A47427E4A4B4A6E
S1130E96423E4149497A7F0814224100417F41007C
S1130EA67F40404040444B4A4B327F0408107F7FCA
S1130EB60408107F3E4141413E3E4141413E3E4190
S1130EC641413E3E4141413E44281028443F404072
S1130ED6C03F7F40404040444B4A4B323C41414135
S1130EE63C3C4141413C62534A474262534A474271
S1130EF63649494936205454D47800447DC00020EC
S1130F065454547838444444202054545478205437
S1130F16545478385454D4183854555418384546CB
S1130F26452038545554184465564D443854555440
S1130F3618081454543C7F1028440000447D400093
S1130F4600417F400048555655207C080404787CAF
S1130F56080404783844444438384444443838440B
S1130F664444383844444438003636000038404057
S1130F76A07800417F40004854545420384242220D
S1130F867838424222784465564D444465564D4469
S1130F96000503000000AEA83FD300402000D9F1AD
S1130FA6DB40A1C8DA1281FFA4A6D5F08D14AF25C3
S1090FB633640025640011
S9030000FC
