S02100004156523634444433322D4D41494E2D436F6E74726F6C6C65722E7372656320
S11300000C9448000C9465000C9465000C946500F5
S11300100C9465000C9465000C9465000C946500C8
S11300200C9465000C9465000C9465000C946500B8
S11300300C9465000C9465000C9465000C946500A8
S11300400C9465000C9465000C9465000C94650098
S11300500C9465000C9465000C9465000C94650088
S11300600C9465000C9465000C9465000C94650078
S11300700C9465000C9465000C9465000C94650068
S11300800C9465000C9465000C9465000C94650058
S113009011241FBECFEFCDBFDFE7DEBF14E6A0E023
S11300A0B0E6EEE4FBE102C005900D92A438B1077E
S11300B0D9F724E6A4E8B4E601C01D92A23AB20737
S11300C0E1F70E94E9030C94A50D0C940000E0E014
S11300D0F6E087E0818381E08283808308956BE08A
S11300E080E890E00E94530D63E080E690E00E9477
S11300F0530D8091650080FDFCCF08952F923F92AF
S11301004F925F926F927F928F929F92AF92BF9223
S1130110CF92DF92EF92FF920F931F93CF93DF93CF
S1130120CDB7DEB72B97CDBFDEBFC22EB32EA42E24
S1130130952E862E772E682E592EF22E032F142FED
S11301405A876983B72FD82EE92EE0E0F0E014C077
S113015031962F2D302F412F5A8569817B2F8D2D7C
S11301609E2D08E00E942009F22E032F142F5A8797
S11301706983B72FD82EE92E2F2D302F412F5A8582
S113018069817B2F8D2D9E2DA0E00E943C0901F7F3
S11301908FEF8A87CB86B9824A2C392C282C1AC037
S11301A08D01000F111F000F111F000F111F2B8550
S11301B03981442D532D622D772D862D952D0E9446
S11301C020098A848226912CF401E35AFC49808117
S11301D08A87FD01DF011197EF2B11F78A852B9692
S11301E0CDBFDEBFDF91CF911F910F91FF90EF90B4
S11301F0DF90CF90BF90AF909F908F907F906F9043
S11302005F904F903F902F9008950F93CF93C22FFC
S11302100E947E00801302C08C2F01C080E0CF9129
S11302200F9108950F93CF93DF93FC0120E030E00A
S113023040E050E060E070E080E090E03AC004E02C
S11302400E940509E0EDEC0FEA3070F4D0E0E0978D
S1130250ED2FEE0FEE0B2C2B3D2B4E2B5E2B6E2B2E
S11302607E2B8E2B9E2B24C0EFEBEC0FE63070F42C
S1130270D0E0E797ED2FEE0FEE0B2C2B3D2B4E2B02
S11302805E2B6E2B7E2B8E2B9E2B12C0EFE9EC0F78
S1130290E630A8F4D0E0C755D109ED2FEE0FEE0BF0
S11302A02C2B3D2B4E2B5E2B6E2B7E2B8E2B9E2BC5
S11302B0FD01DF011196C081C111C1CF08C020E04A
S11302C030E040E050E060E070E080E090E0DF91FA
S11302D0CF910F9108957F928F929F92AF92BF9288
S11302E0CF92DF92EF92FF920F931F93CF93DF93FE
S11302F0CDB7DEB7A097CDBFDEBF6C0186E0EFE3DC
S1130300F3E6DE01119601900D928A95E1F74FE034
S113031050E0B601CE0107960E94840A1E8ACE01DF
S113032007960E941201722E832E942EA52EB62EAD
S1130330E72EF82E192FB601615F7F4F42E050E09F
S1130340CE0107960E94840A198640E150E060E0DD
S113035070E0CE0107960E945C09062F272D382DE8
S1130360492D5A2D6B2D7E2D8F2D912F0E94050125
S113037081118CC0AFC05E0187E1A80EB11C8AE078
S1130380F50111928A95E9F7E1E0F0E0EC0FFD1F29
S1130390E10FF11DE080F12CA701B601C5010E9417
S11303A07B0AF501EE0DFF1D1082123091F128F445
S11303B0112351F01130A9F065C0133009F441C084
S11303C0143009F456C05EC040E150E060E070E0D3
S11303D0CE0147960E945C0960938664709387649B
S11303E051C040E150E060E070E0CE0147960E94C9
S11303F05C099B013695279536952795ABE7B4E1C3
S11304000E94F608969587958093886490938964F2
S113041039C040E150E060E070E0CE0147960E94B0
S11304205C099B01ADECBCEC0E94F608969587959F
S1130430969587959695879580938A6490938B6417
S113044021C040E150E060E070E0CE0147960E9498
S11304505C099B01ADECBCEC0E94F608969587956F
S1130460969587959695879580938C6490938D64E3
S113047009C040E150E060E070E0CE0147960E9480
S11304805C09062FCE0CDF1C1F5F02C010E000E0E9
S1130490163008F470CFE4E8F4E62281338136950F
S11304A0279536952795ABE7B4E10E94F608969513
S11304B0879580839183802F8170828701FB8827B1
S11304C080F9838702FB882780F9848703FB002750
S11304D000F90587A096CDBFDEBFDF91CF911F91B4
S11304E00F91FF90EF90DF90CF90BF90AF909F90CF
S11304F08F907F9008950F931F93CF93DF93CDB781
S1130500DEB76197CDBFDEBFFE01319681E1DF0129
S11305101D928A95E9F700E010E00E94F20690919E
S11305209264992329F0E2E9F4E61082118234C03E
S11305300023C1F08E3361F4E1E0F0E0EC0FFD1F25
S1130540E10FF11D1082CE0101960E946B0124C0BF
S1130550113140F4E1E0F0E0EC0FFD1FE10FF11D7B
S113056080831F5F8C3331F4E2E9F4E61082118258
S113057001E010E080919464882379F2E2E9F4E6E2
S1130580128281818A3020F48F5F80939364C5CF77
S113059081E080939264C1CF6196CDBFDEBFDF91CD
S11305A0CF911F910F910895E0EEF5E081E18283F0
S11305B0168283E0878382E08187E0E0F4E08CEDBB
S11305C0818382E2828388E0818B848B858BE0E463
S11305D0F4E09189987F918B91899460918B9289B1
S11305E0987F928B92899460928B91E09183E0E65C
S11305F0F4E09CE2918390E19283E0EAF4E09EE0EF
S1130600918390E39283848B858B0895E0E0F9E0F5
S113061082E0808385E0868381E0838385830895F7
S113062090E0880F991F862B8093070948E853E1CF
S113063060E070E009C0415051096109710921F479
S113064083E08093040905C080910509807C99F3B7
S113065080E09091050994FD81E0909105099C70DA
S113066009F082E0882319F093E0909304098093C1
S113067095640895282F9091050994FD02C080E0A7
S113068001C081E0909105099C7009F082E0882303
S113069019F093E090930409811114C02093080980
S11306A048E853E160E070E009C041505109610934
S11306B0710921F483E08093040904C09091050931
S11306C096FFF3CF809395640895CF93DF93C62F5D
S11306D0D42F60E00E941003811108C08C2F0E9467
S11306E03A03811103C08D2F0E943A03E0E0F9E040
S11306F0848183608483DF91CF910895809199648C
S113070081110EC084E0809366048FE59AEE019710
S1130710F1F700C00000E6E9F4E681E08383148287
S113072008958091976481110DC0E0E0FAE0818121
S113073080618183808181608083E6E9F4E681E0E1
S113074081831282089580919864811119C0E0E038
S1130750FAE081818F7E818380818E7F808388E02F
S1130760809366042FEF8EE994E2215080409040FC
S1130770E1F700C00000E6E9F4E681E0828311823B
S11307800895CF9390919664981781F0C82F0E9492
S1130790A303CC2321F080E28093650403C080E2AC
S11307A0809366040E949103C0939664CF91089548
S11307B062E380E29EE40E94E205E0E6F4E088E081
S11307C0868384E08583089580916804829581708E
S11307D008950E946F000E94D4020E9406030E94A2
S11307E067000E94DA060E94E7060E9477040E94CE
S11307F0BE040E94D8030E94C1050E947D050E9488
S11308007E030E947B020E94E4031F928F93C4E83C
S1130810D4E689818F9388818F9311E01F931F926F
S11308208DE594E69F938F930E945F050E94DA05FD
S1130830082F0E94D1051F920F931F928F938D81D1
S11308408F938C818F931F931F938DE694E69F93D0
S11308508F930E945F052FEF32E587E021503040EF
S11308608040E1F700C000008C819D812DB73EB728
S11308702E5E3F4F2DBF3EBF892B19F40E949C056D
S113088010C00E948A058091886490918964853B98
S1130890910520F481E00E94B10503C080E00E942C
S11308A0B1058091846490918564892B19F40E9428
S11308B0A303A7CF0E9491038091846490918564DF
S11308C0853B910520F481E00E94C1039ACF80E02A
S11308D00E94C10396CF482F60E08CE30E94650319
S11308E00895482F60E48CE30E9465030895CF9334
S11308F060E08CE30E941003C0E008C0EC2FF0E03D
S1130900EB5DFC4980810E943A03CF5FCA31B0F3AA
S1130910CF9108951F93CF93DF93D82F80EE8D0F3F
S1130920803628F0D03B19F0D03C08F4D0E2D03B1C
S113093021F0D03C20F410E203C010E501C01FE513
S1130940C0E013C08D2F90E0811B9109FC01EE0FD4
S1130950FF1FEE0FFF1FE80FF91FE050F04AEC0FE6
S1130960F11D80810E947104CF5FC53058F380E08F
S11309700E947104DF91CF911F9108950F931F93EB
S1130980CF93DF9300E010E016C080EB800F0E944D
S11309906B0480E00E946B0480E10E946B04C0E061
S11309A0D0E004C080E00E9471042196C038D105D3
S11309B0CCF30F5F1F4F083011053CF3DF91CF914B
S11309C01F910F9108950F931F93CF93DF938C0181
S11309D0D62FC0E005C00E948A040F5F1F4FCF5F6F
S11309E0F8018081882339F0CD17A8F304C080E290
S11309F00E948A04CF5FCD17D0F3DF91CF911F916E
S1130A000F9108950F931F93CF93DF938C01262F9B
S1130A10C42F80E890E0841B910966E070E00E9496
S1130A20A108D62F822F806B0E946B048C2F829595
S1130A308F7080610E946B048C2F8F700E946B04F6
S1130A406D2FC8010E94E304DF91CF911F910F9194
S1130A500895AC0190E001C09F5FFA01E90FF11D18
S1130A6020812111F9CF892F880F980F292F220F68
S1130A70613019F0623069F00FC080E890E0AC0199
S1130A80421B5109CA0199230CF401969595879547
S1130A90089580E8821B089580E008951F93CF9302
S1130AA0DF93EC01162F642F0E942905482F612F34
S1130AB0CE010E940205DF91CF911F910895CF933B
S1130AC0DF93CDB7DEB7E297CDBFDEBF9E01255CD5
S1130AD03F4F4FA958AD62E370E0CE0101960E94EA
S1130AE0930A4AAD69ADCE0101960E944E05E29685
S1130AF0CDBFDEBFDF91CF91089580919E648111B7
S1130B0008C082E08093A604EBE9F4E681E08383E5
S1130B101482089580919C6481110DC0E0E8FBE08B
S1130B2082898067828B808181608083EBE9F4E62F
S1130B3081E081831282089580919D64811110C0A7
S1130B40E0E8FBE080818E7F808382898F78828BCE
S1130B5084E08093A604EBE9F4E681E082831182C9
S1130B60089590919B64981759F0882321F098E098
S1130B709093A50403C098E09093A60480939B648B
S1130B80089542E360E47CE980E090E00E9472060C
S1130B90E0EAF4E084E0868382E0858388E086836B
S1130BA008958091A80482958695877091E089279D
S1130BB0817008958091A80482958F7091E08927AF
S1130BC0817008958F929F92AF92BF92CF92DF92DD
S1130BD0EF92FF920F931F93CF93DF93CDB7DEB7BE
S1130BE06897CDBFDEBF7C01C62E80E1E5E4F3E665
S1130BF0DE01119601900D928A95E1F788E0E5E512
S1130C00F3E6DE01519601900D928A95E1F7D12C1D
S1130C1038C00D2D10E0F801EE0FFF1F81E090E0C9
S1130C208C0F9D1FE80FF91F2081318140E050E0B7
S1130C3060E076E38EE691E00E94D7084701A12C9C
S1130C40B12CCA01B901A50194010E94B508DA01C9
S1130C50C9010197A109B109BA01A9014250510979
S1130C60610971094F3F51056105710548F4F82E7A
S1130C70E1E1F0E0EC0FFD1FE00FF11F108106C071
S1130C80D39497E09D1528F6F12C10E02F2D30E039
S1130C90AC2DB0E00E94F60824E630E040E050E0DD
S1130CA00E94B508F21608F42F2D83E08093E7051F
S1130CB0E0E0FAE081E0838380E18183F7A221A769
S1130CC0116010836896CDBFDEBFDF91CF911F9175
S1130CD00F91FF90EF90DF90CF90BF90AF909F90D7
S1130CE08F900895CF92DF92EF92FF920F931F930C
S1130CF0CF93DF93142FDC01CB01880F991FAA1F18
S1130D00BB1F880F991FAA1FBB1F9C01AD01220F97
S1130D10331F441F551F60E076E38EE691E00E9486
S1130D20B508E9012197612F70E080E090E00E940E
S1130D30A80720E030E048EC52E40E9405076B016C
S1130D407C01BE0180E090E00E94A607A701960105
S1130D500E9434080E9477076F5F7F4FCE01861B85
S1130D60970B019700E81BE0F801C6A7D7A784A753
S1130D7095A760A771A760E482E99BE00E94530DE8
S1130D8083E0F801818380918E0B80FFFCCFE0E843
S1130D90FBE080E7828B88E6808380918E0B80FF66
S1130DA0FCCFDF91CF911F910F91FF90EF90DF90D7
S1130DB0CF900895E0E0F8E083E896E0808791879B
S1130DC081E0858382EC868383E087830895E0E273
S1130DD0F8E081EA91E08087918782E8868383E066
S1130DE08783089580E88093240888E893E1A0E04D
S1130DF0B0E004C00197A109B10921F020912408B1
S1130E002223C4F78091200808950E9419070C94A6
S1130E10FA070E94F30758F00E94EC0740F029F407
S1130E205F3F29F00C94E30751110C942E080C94A5
S1130E30E9070E940B0868F39923B1F3552391F352
S1130E40951B550BBB27AA2762177307840738F035
S1130E509F5F5F4F220F331F441FAA1FA9F335D092
S1130E600E2E3AF0E0E832D091505040E695001C46
S1130E70CAF72BD0FE2F29D0660F771F881FBB1F00
S1130E80261737074807AB07B0E809F0BB0B802DDE
S1130E90BF01FF2793585F4F3AF09E3F510578F00A
S1130EA00C94E3070C942E085F3FE4F3983ED4F3CC
S1130EB0869577956795B795F7959F5FC9F7880FDE
S1130EC0911D9695879597F90895E1E0660F771F30
S1130ED0881FBB1F621773078407BA0720F0621BC1
S1130EE0730B840BBA0BEE1F88F7E09508950E94EC
S1130EF0130888F09F5798F0B92F9927B751B0F08D
S1130F00E1F0660F771F881F991F1AF0BA95C9F789
S1130F1014C0B13091F00E942D08B1E008950C94F2
S1130F202D08672F782F8827B85F39F0B93FCCF3A5
S1130F30869577956795B395D9F73EF49095809506
S1130F40709561957F4F8F4F9F4F0895E89409C026
S1130F5097FB3EF490958095709561957F4F8F4FE8
S1130F609F4F9923A9F0F92F96E9BB279395F695FE
S1130F70879577956795B795F111F8CFFAF4BB0F7C
S1130F8011F460FF1BC06F5F7F4F8F4F9F4F16C0E0
S1130F90882311F096E911C0772321F09EE8872F6A
S1130FA0762F05C0662371F096E8862F70E060E026
S1130FB02AF09A95660F771F881FDAF7880F96959F
S1130FC0879597F9089597F99F6780E870E060E046
S1130FD008959FEF80EC089500240A9416161706CE
S1130FE018060906089500240A9412161306140616
S1130FF005060895092E0394000C11F4882352F079
S1131000BB0F40F4BF2B11F460FF04C06F5F7F4F30
S11310108F4F9F4F089557FD9058440F551F59F017
S11310205F3F71F04795880F97FB991F61F09F3FD1
S113103079F087950895121613061406551FF2CFFA
S11310404695F1DF08C0161617061806991FF1CF4A
S113105086957105610508940895E894BB27662771
S11310607727CB0197F908950E9447080C94FA0753
S11310700E94EC0738F00E94F30720F0952311F04A
S11310800C94E3070C94E90711240C942E080E9495
S11310900B0870F3959FC1F3950F50E0551F629FA5
S11310A0F001729FBB27F00DB11D639FAA27F00DBD
S11310B0B11DAA1F649F6627B00DA11D661F829FE4
S11310C02227B00DA11D621F739FB00DA11D621FC9
S11310D0839FA00D611D221F749F3327A00D611DE6
S11310E0231F849F600D211D822F762F6A2F1124C8
S11310F09F5750409AF0F1F088234AF0EE0FFF1FFB
S1131100BB1F661F771F881F91505040A9F79E3F51
S1131110510580F00C94E3070C942E085F3FE4F330
S1131120983ED4F3869577956795B795F795E795A7
S11311309F5FC1F7FE2B880F911D9695879597F9B0
S1131140089597FB072E16F4009407D077FD09D075
S11311500E94480907FC05D03EF4909581959F4F65
S11311600895709561957F4F0895A1E21A2EAA1BE8
S1131170BB1BFD010DC0AA1FBB1FEE1FFF1FA21743
S1131180B307E407F50720F0A21BB30BE40BF50B40
S1131190661F771F881F991F1A9469F760957095C9
S11311A0809590959B01AC01BD01CF010895052E5A
S11311B097FB1EF400940E94EE0857FD07D00E948E
S11311C0B50807FC03D04EF40C94EE0850954095F6
S11311D0309521953F4F4F4F5F4F089590958095DF
S11311E0709561957F4F8F4F9F4F0895A29FB001D7
S11311F0B39FC001A39F700D811D1124911DB29F47
S1131200700D811D1124911D08950F93083090F0E5
S1131210982F872F762F652F542F432F322F222775
S11312200850F4CF220F331F441F551F661F771F2A
S1131230881F991F0A95B2F70F91089597FB10F82C
S1131240169400080F93083098F00850232F342F79
S1131250452F562F672F782F892F902DF4CF059483
S113126097958795779567955795479537952795DA
S11312700A95AAF70F9108950024A7FD00942A1750
S113128030054005500560057005800590050895FA
S1131290AA1BBB1B51E107C0AA1FBB1FA617B70798
S11312A010F0A61BB70B881F991F5A95A9F78095B4
S11312B09095BC01CD010895A0E0B0E0E2E6F9E02C
S11312C00C94750D5C016B017A016115710519F0BF
S11312D0FB0180839183E114F10429F0C701029793
S11312E0839708F0E5C0E5012196F5011081812F6F
S11312F090E00E94720A892B11F05E01F4CF1D3236
S113130029F42196F501118101E007C01B3221F473
S1131310E5012296F501118100E0E114F10409F1DF
S1131320F0E1EF16F10429F43FC010E3E114F104F5
S113133021F128E0E216F10401F154F4E2E0EE16A2
S1131340F10421F5812C912CA12CB0E4BB2E3EC0DC
S1131350FAE0EF16F10439F020E1E216F104B1F4F9
S113136030C0103319F1FAE0EF2EF12CACEC8A2ED8
S1131370982CA82CACE0BA2E29C078E0E72EF12CEA
S1131380812C912CA12CE0E1BE2E20C060E070E005
S113139080E090E897010F2C000C440B550B0E9441
S11313A0B50849015A0112C0103359F488818F7D60
S11313B0883509F0BACF19812296026080E1E82EBF
S11313C0F12C812C912CA12C68E0B62E40E060E039
S11313D070E0CB0127010F2C000C66087708FE0192
S11313E050ED352E310E29E0231570F42FEB210F2B
S11313F02A3118F439EC332E06C02FE9210F2A3193
S113140018F529EA322E310E232D30E02E153F0532
S1131410DCF447FD16C086169706A806B90670F0D8
S1131420A30192010E94590D630D711D811D911D2F
S113143061307105810520E8920710F04FEF01C07B
S113144041E021961081CBCF202F2170C114D1040B
S113145071F0442329F02197F601C083D18307C09A
S113146001FF19C02297F601C083D18314C047FF3E
S113147012C0222329F060E070E080E090E804C00C
S11314806FEF7FEF8FEF9FE722E230E02093A064BD
S11314903093A16409C0222381F0909580957095C2
S11314A061957F4F8F4F9F4F462F372F282F12C0A4
S11314B040E030E020E090E00DC097FFF5CF82E2FD
S11314C090E08093A0649093A1646FEF7FEF8FEF1F
S11314D09FE7EACF642F732F822FCDB7DEB7E1E108
S11314E00C948E0D91110C94A00C803219F089503B
S11314F08550C8F70895FB01DC0102C001900D92EC
S113150041505040D8F70895FB01DC014150504050
S113151048F001900D920020C9F701C01D9241507E
S11315205040E0F70895AEE0B0E0E9E9FAE00C9449
S1131530820D8C01FA0186E08C8309831A8377FF7C
S113154002C060E070E8CB0101978D839E83A901FE
S1131550BF01CE0101960E94BF0A4D815E8157FDF5
S11315600AC02F813885421753070CF49A01F801F9
S1131570E20FF31F10822E96E4E00C949B0DABE077
S1131580B0E0E5ECFAE00C94740D6C017B018A0187
S1131590FC0116821782838181FFCCC1CE010196A2
S11315A03C01F6019381F70193FD859193FF8191AD
S11315B07F01882309F4BAC1853239F493FD8591FA
S11315C093FF81917F01853229F4B60190E00E9456
S11315D0B90CE7CF912C212C312CFFE1F315D8F075
S11315E08B3279F038F4803279F08332A1F4232DF0
S11315F020611DC08D3261F0803369F4232D216098
S113160016C0832D8260382EE32DE4603E2E2AC05E
S1131610F32DF8601DC037FC2DC020ED280F2A30B3
S113162040F08E32B9F436FC81C1232D2064322E71
S113163019C036FE06C08AE0989E200D1124922E11
S113164011C0EAE02E9E200D1124222EF32DF0620B
S11316503F2E08C08C3621F4832D8068382E02C0BA
S1131660883641F4F70193FD859193FF81917F01C1
S11316708111B3CF982F9F7D9554933028F40C5F3C
S11316801F4F9FE399830DC0833631F0833771F088
S1131690833509F059C021C0F801808189830E5F28
S11316A01F4F88248394912C530113C02801F2E026
S11316B04F0E511CF801A080B18036FE03C0692D85
S11316C070E002C06FEF7FEFC5010E94AE0C4C01C9
S11316D08201F32DFF773F2E16C0280122E0420E2F
S11316E0511CF801A080B18036FE03C0692D70E062
S11316F002C06FEF7FEFC5010E94A30C4C01F32DD4
S1131700F0683F2E820133FC1BC0822D90E08816C6
S11317109906B0F4B60180E290E00E94B90C2A94D4
S1131720F4CFF50137FC859137FE81915F01B60155
S113173090E00E94B90C21102A9421E0821A9108A9
S11317408114910471F7E8C0843611F0893641F5AB
S1131750F80137FE07C060817181828193810C5F3B
S11317601F4F08C060817181072E000C880B990BF4
S11317700E5F1F4FF32DFF763F2E97FF09C0909504
S11317808095709561957F4F8F4F9F4FF0683F2EE6
S11317902AE030E0A3010E94F50C882E861845C08B
S11317A0853731F4232D2F7EB22E2AE030E025C078
S11317B0932D997FB92E8F36C1F018F4883579F0BE
S11317C0B5C0803719F0883721F0B0C0E92FE06147
S11317D0BE2EB4FE0DC0FB2DF460BF2E09C034FE36
S11317E00AC0292F2660B22E06C028E030E005C0CA
S11317F020E130E002C020E132E0F801B7FE07C08A
S113180060817181828193810C5F1F4F06C060816A
S1131810718180E090E00E5F1F4FA3010E94F50CE0
S1131820882E8618FB2DFF773F2E36FE0DC0232D04
S11318302E7FA22E891458F434FE0BC032FC09C04A
S1131840832D8E7EA82E05C0B82CA32C03C0B82CE3
S113185001C0B92CA4FE0FC0FE01E80DF11D80816A
S1131860803321F49A2D997EA92E09C0A2FE06C0C8
S1131870B394B39404C08A2D867809F0B394A3FC7E
S113188011C0A0FE06C0B21488F4280C922C9B1838
S11318900EC0B21460F4B60180E290E00E94B90C6C
S11318A0B394F7CFB21418F42B1802C0982C212C3F
S11318B0A4FE10C0B60180E390E00E94B90CA2FE21
S11318C017C0A1FC03C088E790E002C088E590E05F
S11318D0B6010CC08A2D867859F0A1FE02C08BE2B5
S11318E001C080E2A7FC8DE2B60190E00E94B90C31
S11318F0891438F4B60180E390E00E94B90C9A94FC
S1131900F7CF8A94F301E80DF11D8081B60190E0D0
S11319100E94B90C8110F5CF222009F442CEB60101
S113192080E290E00E94B90C2A94F6CFF6018681F9
S1131930978102C08FEF9FEF2B96E2E10C948D0DFF
S1131940992788270895FC01059061507040011083
S1131950D8F7809590958E0F9F1F0895FC016150D4
S1131960704001900110D8F7809590958E0F9F1FBD
S113197008950F931F93CF93DF93FB01238121FDE0
S113198003C08FEF9FEF2CC022FF16C04681578102
S1131990248135814217530744F4A081B1819D010C
S11319A02F5F3F4F208331838C93268137812F5FB4
S11319B03F4F2683378314C08B01EC01FB01008465
S11319C0F185E02D0995892BE1F6D80116968D91C4
S11319D09C911797019616968D939C931797CE0119
S11319E0DF91CF911F910F910895FA01AA27283012
S11319F051F1203181F1E8946F936E7F6E5F7F4FD8
S1131A008F4F9F4FAF4FB1E03ED0B4E03CD0670F53
S1131A10781F891F9A1FA11D680F791F8A1F911DA6
S1131A20A11D6A0F711D811D911DA11D20D009F4F6
S1131A3068943F912AE0269F11243019305D319338
S1131A40DEF6CF010895462F4770405D4193B3E021
S1131A500FD0C9F7F6CF462F4F70405D4A3318F0C8
S1131A60495D31FD4052419302D0A9F7EACFB4E079
S1131A70A6959795879577956795BA95C9F7009731
S1131A806105710508959B01AC010A2E06945795D2
S1131A90479537952795BA95C9F7620F731F841F29
S1131AA0951FA01D0895DC0128ED209334006C934C
S1131AB00895DB018F939F930E94690DBF91AF91AD
S1131AC0A29F800D911DA39F900DB29F900D112494
S1131AD008950E94F608A59F900DB49F900DA49FB1
S1131AE0800D911D112408952F923F924F925F9281
S1131AF06F927F928F929F92AF92BF92CF92DF921A
S1131B00EF92FF920F931F93CF93DF93CDB7DEB77E
S1131B10CA1BDB0BCDBFDEBF09942A8839884888ED
S1131B205F846E847D848C849B84AA84B984C884F5
S1131B30DF80EE80FD800C811B81AA81B981CE0FEC
S1111B40D11DCDBFDEBFED010895F894FFCF97
S1131B4E000000000000005F000000070007001402
S1131B5E7F147F14242A7F2A1223130864623649C1
S1131B6E5522500005030000001C224100004122B2
S1131B7E1C0014083E081408083E080800503000E3
S1131B8E000808080808006060000020100804021D
S1131B9E3E5149453E00427F400042615149462133
S1131BAE41454B311814127F1027454545393C4A9F
S1131BBE49493001710905033649494936064949EF
S1131BCE291E003636000000563600000814224145
S1131BDE00141414141400412214080201510906AD
S1131BEE324979413E7E1111117E7F494949363E73
S1131BFE414141227F4141221C7F494949417F098C
S1131C0E0909013E4149497A7F0808087F00417F4E
S1131C1E41002040413F017F081422417F40404053
S1131C2E407F020C027F7F0408107F3E4141413EFB
S1131C3E7F090909063E4151215E7F09192946464D
S1131C4E4949493101017F01013F4040403F1F2076
S1131C5E40201F3F4038403F631408146307087048
S1131C6E08076151494543007F41410002040810B1
S1131C7E200041417F0004020102044040404040E4
S1131C8E000307000020545454787F4844443838E5
S1131C9E44444420384444487F3854545418087EED
S1131CAE090102081454543C7F0804047800447D4E
S1131CBE40002040443D007F1028440000417F40F6
S1131CCE007C041804787C080404783844444438AE
S1131CDE7C14141408081414187C7C080404084892
S1131CEE54545420043F4440203C4040207C1C204B
S1131CFE40201C3C4030403C44281028440C50509A
S1131D0E503C4464544C44000836410000007F00AB
S1131D1E00004136080008082A1C08081C2A080876
S1131D2E06090906007E1111917E00417FC1007ED5
S1131D3E1111917E3E414141227E1111917E7E11FF
S1131D4E11917E7F4949C9417F4949C97F3C43422C
S1131D5E43247E4A4B4A4162534A47427E4A4B4A87
S1131D6E423E4149497A7F0814224100417F410095
S1131D7E7F40404040444B4A4B327F0408107F7FE3
S1131D8E0408107F3E4141413E3E4141413E3E41A9
S1131D9E41413E3E4141413E44281028443F40408B
S1131DAEC03F7F40404040444B4A4B323C4141414E
S1131DBE3C3C4141413C62534A474262534A47428A
S1131DCE3649494936205454D47800447DC0002005
S1131DDE5454547838444444202054545478205451
S1131DEE545478385454D4183854555418384546E5
S1131DFE452038545554184465564D44385455545A
S1131E0E18081454543C7F1028440000447D4000AC
S1131E1E00417F400048555655207C080404787CC8
S1131E2E0804047838444444383844444438384424
S1131E3E4444383844444438003636000038404070
S1131E4EA07800417F400048545454203842422226
S1131E5E7838424222784465564D444465564D4482
S1131E6E000503000000AEA83FD300402000D9F1C6
S1131E7EDB40A1C8DA1281FFA4A6D5F08D14AF04FD
S1131E8E04030301020100020004000800100040D4
S1131E9E000001000400020406080A0C0E009BADAB
S1131EAE36C15A6CF71982B42FD84375EE32A99FF6
S1131EBE04F3685EC52BB0861DEA7147DC64FFC966
S1131ECE52A53E08937DE6D04BBC27118A56CDFB16
S1131EDE60970C3AA14FD4E2798E1523B8C8536596
S1131EEEFE0992A43FD14A7CE7108BBD26FA6157B6
S1131EFECC3BA0960DE3784ED522B98F14AC3701A6
S1131F0E9A6DF6C05BB52E188374EFD9429E0533D5
S1131F1EA85FC4F269871C2AB146DDEB700B90A64C
S1131F2E3DCA5167FC1289BF24D3487EE539A29479
S1131F3E0FF86355CE20BB8D16E17A4CD76FF4C2E1
S1131F4E59AE35039876EDDB40B72C1A815DC6F099
S1131F5E6B9C0731AA44DFE972851E28B3C3586E01
S1131F6EF50299AF34DA4177EC1B80B62DF16A5C39
S1131F7EC730AB9D06E87345DE29B2841FA73C0A21
S1131F8E9166FDCB50BE2513887FE4D249950E3859
S1131F9EA354CFF9628C1721BA4DD6E07B656C2E13
S1131FAE3A202533642045463A20256400617A3A66
S1131FBE2533642050454E443A256420414C4D3A15
S1071FCE2564000082
S9030000FC
