:100000000C9448000C9465000C9465000C946500F9
:100010000C9465000C9465000C9465000C946500CC
:100020000C9465000C9465000C9465000C946500BC
:100030000C9465000C9465000C9465000C946500AC
:100040000C9465000C9465000C9465000C9465009C
:100050000C9465000C9465000C9465000C9465008C
:100060000C9465000C9465000C9465000C9465007C
:100070000C9465000C9465000C9465000C9465006C
:100080000C9465000C9465000C9465000C9465005C
:1000900011241FBECFEFCDBFDFE7DEBF10E6A0E02B
:1000A000B0E6E6E5F3E002C005900D92AA31B10793
:1000B000D9F720E6AAE1B0E601C01D92AB31B20744
:1000C000E1F70E9436010C94A9010C940000E0E0D5
:1000D000F6E087E0818381E08283808308956BE08E
:1000E00080E890E00E94A30163E080E690E00E9437
:1000F000A3018091650080FDFCCF0895E0EEF5E05E
:1001000081E182831682E0E0F4E08EED818390E26B
:10011000928388E0848B858BE0E6F4E020E62183FF
:10012000958390E89683868B878BE0EAF4E09FE0E6
:100130009183958390E79283848B858B868BE0E413
:10014000F4E09089987F908B90899460908B90894F
:10015000977F908B9189987F918B91899460918BF7
:100160009189977F918B9289987F928B92899460E5
:10017000928B9289977F928B81830895E0E0F9E0DA
:1001800082E0808385E0868381E083838583089590
:1001900090E0880F991F862B8093070940E251EA6F
:1001A00067E070E009C0415051096109710921F40B
:1001B00083E08093040905C080910509807C99F350
:1001C00080E09091050994FD81E0909105099C7073
:1001D00009F082E0882319F093E09093040980935A
:1001E0001A600895282F9091050994FD02C080E0BF
:1001F00001C081E0909105099C7009F082E088239C
:1002000019F093E090930409811114C02093080918
:1002100040E251EA67E070E009C0415051096109CC
:10022000710921F483E08093040904C090910509C9
:1002300096FFF3CF80931A600895CF93DF93C62F74
:10024000D42F60E00E94C800811108C08C2F0E944A
:10025000F200811103C08D2F0E94F200E0E0F9E06E
:10026000848183608483DF91CF9108950E946F0021
:100270000E947E000E94BE000E9467000E948B01C7
:100280000E9498010E9453010E946601FFCF482FEF
:1002900060E08CE30E941D010895482F60E48CE328
:1002A0000E941D010895CF9360E08CE30E94C80076
:1002B000C0E008C0EC2FF0E0E050F04A80810E94DE
:1002C000F200CF5FCA31B0F3CF9108950F931F931F
:1002D000CF93DF9300E010E016C080EB800F0E9408
:1002E000470180E00E94470180E10E944701C0E091
:1002F000D0E004C080E00E944D012196C038D105B5
:10030000CCF30F5F1F4F083011053CF3DF91CF9105
:100310001F910F910895E0E0F8E080E490E080877D
:10032000918781E0858382EC868383E087830895CB
:10033000E0E2F8E08DE490E08087918782EC8683AC
:1003400083E087830895DC0128ED209334006C93CB
:060350000895F894FFCFB0
:1003560000AEA83FD300402000D9F1DB40A1C8DAA7
:0A0366001281FFA4A6D5F08D14AF9C
:00000001FF
