:100000000C9448000C9465000C9465000C946500F9
:100010000C9465000C9465000C9465000C946500CC
:100020000C9465000C9465000C9465000C946500BC
:100030000C9465000C9465000C9465000C946500AC
:100040000C9465000C9465000C9465000C9465009C
:100050000C9465000C9465000C9465000C9465008C
:100060000C9465000C9465000C9465000C9465007C
:100070000C9465000C9465000C9465000C9465006C
:100080000C9465000C9465000C9465000C9465005C
:1000900011241FBECFEFCDBFDFE7DEBF16E6A0E025
:1000A000B0E6ECECF4E302C005900D92A033B1078A
:1000B000D9F726E6A0E3B6E601C01D92AF3AB20733
:1000C000E1F70E94DB070C94641A0C94000068E6C8
:1000D00071E00E945A15992314F488599E4F08958F
:1000E0009C01261B370BC901992324F488279927E3
:1000F000821B930B68E671E00E945A15853B9105BF
:1001000034F028E631E0A901481B590BCA010895D3
:10011000CF92DF92EF92FF920F931F93CF93DF93D3
:10012000C09172662DE2C29FE0011124CE01865A71
:100130009F4F0E9467008C01CE018A5591090E9451
:100140006700EC01C8018C979E012C523109813166
:1001500041E09407E8F421313140D0F4E090346676
:10016000F0903566B801C7010E9470006C01BE01B5
:10017000C7010E9470008C159D051CF0902F812FE7
:1001800002C09C2F8D2F90935D6080935E600CC0A9
:100190008131914028F400935D6010935E6004C04B
:1001A000C0935D60D0935E60DF91CF911F910F91FE
:1001B000FF90EF90DF90CF9008953F924F925F9223
:1001C0006F927F928F929F92AF92BF92CF92DF9267
:1001D000EF92FF920F931F93CF93DF93882319F031
:1001E000C0E0D0E602C0CCE2D0E6EF85F889C0805E
:1001F000D180E12CF12CEF89F88D40805180612C69
:10020000712CE989FA89008111814801A12CB12C56
:10021000ED89FE8980819181881A990AA108B10827
:1002200033243394C414D504E604F7040CF0312CC1
:10023000E985FA85832D09958AA5381611F019A646
:100240003AA6EB8DFC8D9081ED8DFE8D8081C414DE
:10025000D504E604F70414F4811107C0C414D504CE
:10026000E604F70474F0992361F0EF81F8850995AD
:10027000EB81FC8109951BA6E98DFA8D81E08083D5
:10028000EBC0C414D504E604F70491F4EF81F885BB
:100290000995EB81FC8109951BA6EB89FC891082ED
:1002A000E98DFA8D81E080831F8E18A219A6D4C033
:1002B00089A19AA1ABA1BCA1B301A201481B590B12
:1002C0006A0B7B0BC416D506E606F7065CF0840DB8
:1002D000951DA61DB71D8C159D05AE05BF0524F403
:1002E00091E003C091E001C090E0892F817029F472
:1002F000E98DFA8D8081811110C08BA5811109C013
:10030000E981FA810995ED81FE81099519A681E0BF
:100310008BA7E98DFA8D10820EC08BA5882339F04A
:10032000EF81F8850995EB81FC8109951BA6E98D84
:10033000FA8D81E080838DEE88168FEF9806A806EF
:10034000B8064CF084E188169104A104B1041CF4B1
:10035000812C912C540189A19AA1ABA1BCA1B3011C
:10036000A201481B590B6A0B7B0BC416D506E60687
:10037000F70604F58CEE88168FEF9806A806B806E7
:100380008CF48F8D8F5F8F8F8330E0F1EB89FC8948
:1003900081E08083EF81F8850995EB81FC810995E7
:1003A0001BA630C085E188169104A104B10454F164
:1003B0001F8E28C0480E591E6A1E7B1E4C145D04F9
:1003C0006E047F04FCF485E188169104A104B10455
:1003D0008CF08F8D8F5F8F8F8330A0F0EB89FC893D
:1003E00082E08083EF81F8850995EB81FC81099596
:1003F0001BA608C08CEE88168FEF9806A806B806D4
:100400000CF41F8E8BA5882311F189A5853018F473
:100410008F5F89A71DC089288A288B28B1F4E98DB0
:10042000FA8D8081811111C088A18F5F88A38330EC
:1004300078F0EB89FC8983E08083EF81F88509956A
:10044000EB81FC8109951BA603C018A201C018A26C
:10045000ED89FE8900831183DF91CF911F910F9168
:10046000FF90EF90DF90CF90BF90AF909F908F90D4
:100470007F906F905F904F903F900895EF92FF9222
:100480000F931F93CF93DF93182F882319F0C0E0A9
:10049000D0E602C0CCE2D0E6113019F4EAE5F6E687
:1004A00002C0ECE5F6E601E0113009F000E0E08082
:1004B000F180E114F10439F4EF81F8850995EB81BD
:1004C000FC81099525C01E141F0424F4ED8DFE8DBA
:1004D000808103C0EB8DFC8D8081882339F0EF8112
:1004E000F8850995EB81FC81099512C0E981FA81B3
:1004F0000995E985FA851E141F042CF081E011305E
:1005000019F480E001C0802F0995ED81FE810995E5
:10051000DF91CF911F910F91FF90EF900895CF93AE
:10052000DF93882319F0C0E0D0E602C0CCE2D0E629
:10053000EF81F8850995EB81FC810995EB89FC89B0
:1005400084E08083DF91CF9108950F931F93CF9321
:10055000DF93882319F0C0E0D0E602C0CCE2D0E6F9
:100560000DA11EA1EB85FC850995F801808391837F
:100570000FA118A5ED85FE850995F801808391836B
:10058000DF91CF911F910F91089581E00E94A50204
:1005900080E00E94A50280916066882339F081E0A6
:1005A0000E943E0280E00E943E020895809175669E
:1005B00081115CC080914466811158C08091416670
:1005C000811154C080917166803148F00E9488008A
:1005D0008DE290E0809358609093596008958091E7
:1005E00073669091746680399140C8F180916D6610
:1005F00090916E668D3321E0920738F08CE391E0A4
:1006000080935D6090935E600EC08C32910538F4EB
:100610008CE290E080935D6090935E6004C0809374
:100620005D6090935E6080916F66909170668D338F
:10063000910538F08CE390E0809358609093596076
:100640000EC08530910538F485E090E080935860C5
:100650009093596004C0809358609093596080E0F3
:100660000E94DD0081E00E94DD00089581E00E948B
:100670008F0280E00E948F020895E0E0F6E087E0BC
:10068000818381E082838083089595E09093B00018
:10069000809308060895813039F482E08093B00099
:1006A00081E080930806089581E08093B0008FE197
:1006B000809308060895813039F482E08093B00079
:1006C00080E180930806089581E08093B00086E081
:1006D0008093080608951092B00084E48093080681
:1006E000089581E080930A0680910D0680FFFCCF7B
:1006F000E0E0F6E081E08587808991899295829596
:100700008F7089279F70892708950E946B030E942C
:100710007103BC0180E090E00E945F1420E030E0B3
:1007200040E85EE30E94ED140E943014CB0108956E
:100730006BE080E890E00E94121A63E080E690E0AF
:100740000E94121A8091650080FDFCCF08952F92BF
:100750003F924F925F926F927F928F929F92AF9251
:10076000BF92CF92DF92EF92FF920F931F93CF939E
:10077000DF93CDB7DEB72B97CDBFDEBFC22EB32E32
:10078000A42E952E862E772E682E592EF22E032F0C
:10079000142F5A876983B72FD82EE92EE0E0F0E0B6
:1007A00014C031962F2D302F412F5A8569817B2F10
:1007B0008D2D9E2D08E00E94D915F22E032F142FA7
:1007C0005A876983B72FD82EE92E2F2D302F412F2E
:1007D0005A8569817B2F8D2D9E2DA0E00E94F515F5
:1007E00001F78FEF8A87CB86B9824A2C392C282CC7
:1007F0001AC08D01000F111F000F111F000F111FD4
:100800002B853981442D532D622D772D862D952DE5
:100810000E94D9158A848226912CF401E754FC4960
:1008200080818A87FD01DF011197EF2B11F78A85FF
:100830002B96CDBFDEBFDF91CF911F910F91FF901F
:10084000EF90DF90CF90BF90AF909F908F907F9070
:100850006F905F904F903F902F9008950F930E945C
:10086000A70391E0801390E0892F0F910895AC01C8
:1008700020E030E0EFEF0BC0DA01A20FB31F9C9134
:10088000E927F0E0E754FC49E0812F5F3F4F283033
:10089000310590F381E0E61380E00895CF93DF9374
:1008A000CDB7DEB76097CDBFDEBF8983E0E3F6E664
:1008B000828193819A838B83868197819C838D83A8
:1008C000208580E090E0922F9295907F228533855D
:1008D00033231CF43195219531093F70822B932BE2
:1008E000AC0160E070E06E835F838887E8E7F6E63E
:1008F000258180E090E0922F9295907F278130852E
:1009000033231CF43195219531093F70822B932BB1
:10091000AC0160E070E069875A878B87E2E6F6E613
:10092000258180E090E0922F9295907F27813085FD
:1009300033231CF43195219531093F70822B932B81
:10094000AC0160E070E06C875D878E8720E08FEF00
:100950000EC0A1E0B0E0AC0FBD1FA20FB11D9C9175
:10096000E82FE927F0E0E754FC4980812F5F2E3023
:1009700080F36096CDBFDEBFDF91CF9108958F9257
:100980009F92AF92BF92CF92DF92EF92FF920F931E
:100990001F93CF93DF936C01E0E3F6E6168615868E
:1009A000108A1786138A118A128AC0E0812C912C32
:1009B000A12CB12CE12CF12C10E0D0E01BC0282D93
:1009C000392D4A2D5B2D6E2D7F2D812F9D2F04E01B
:1009D0000E94BE15822E932EA42EB52EE62EF72E43
:1009E000182FD92FF601EC0FF11D80810E941C08F1
:1009F000882ACF5FCF3018F340E150E060E070E02C
:100A0000C6010F960E941516062F282D392D4A2D46
:100A10005B2D6E2D7F2D812F9D2F0E942E04C82FC0
:100A20004EE050E069EB74E6C6010E944417892B42
:100A300089F481E080934166CC2341F061E0C601F6
:100A40000E960E94300880933C6648C081E08093F7
:100A5000436656C0CC23F1F164E0C6010E94300821
:100A6000C0E3D6E68A839B8364E0C60104960E94B5
:100A700030088E839F8363E0C60108960E94300889
:100A80008887998763E0C6010B960E9430088A87A1
:100A90009B8761E0C6010E960E9430088C872A81F0
:100AA0003B813695279536952795ABE7B4E10E94B3
:100AB000AF1596958795888399832E813F813695CA
:100AC0002795369527950E94AF15969587958C8327
:100AD0009D8304C081E08093436612C0E0E3F6E6A4
:100AE0008485982F9170958781FB992790F9968737
:100AF00082FB992790F9978783FB882780F9808B61
:100B0000DF91CF911F910F91FF90EF90DF90CF90E9
:100B1000BF90AF909F908F9008950F931F93CF93A6
:100B2000DF93CDB7DEB76197CDBFDEBFFE01319653
:100B300081E1DF011D928A95E9F7E0E3F6E6128A8A
:100B4000148A8CE291E00E94A80A00E010E037C00D
:100B50000E94060E90914266992321F081E08093D5
:100B6000446631C0002339F18E33D9F4E1E0F0E07E
:100B7000EC0FFD1FE10FF11D108268E476E6CE0157
:100B800001960E943417892B21F0CE0101960E9414
:100B9000BF04BE016F5F7F4F88E496E60E943D1759
:100BA00012C0113140F4E1E0F0E0EC0FFD1FE10F65
:100BB000F11D80831F5F8C3311F401E010E0809100
:100BC000430180FFC5CF81E0809343010E94D50A95
:100BD0006196CDBFDEBFDF91CF911F910F91089538
:100BE000E0EEF5E081E18283168283E0878382E094
:100BF0008187E0E0F4E08CED818382E2828388E00B
:100C0000818B858BE0E4F4E09189987F918B9189C9
:100C10009460918B9189977F918B9289987F928B29
:100C200092899460928B9289977F928B91E09183C5
:100C30009CE290936104E0EAF4E09EE0918390E30B
:100C40009283848B858B0895E0E0F9E083818E7F29
:100C5000838380E58A95F1F783818160838381E0D6
:100C600085830895E0E0F9E084E0808389E186836C
:100C700081E0838385838FE697E10197F1F700C0D8
:100C8000000008950F931F93CF93DF93082F162F23
:100C9000D3E0C0E0802F90E0880F991F812B8093D4
:100CA000070948E853E160E070E005C04150510990
:100CB0006109710929F080910509807CB9F301C0AF
:100CC000C1E08091050984FDC2E0809105098C7026
:100CD00009F0C3E0CC2381F083E08093040980E530
:100CE0008A95F1F70E9424068BE291E00197F1F7D3
:100CF00000C00000D15071F6C09359668C2FDF916F
:100D0000CF911F910F9108951F93CF93DF93182FC9
:100D1000D3E0C0E01093080988E893E1A0E0B0E0D8
:100D200004C00197A109B10929F02091050926FF06
:100D3000F8CF01C0C1E08091050984FDC2E0809137
:100D400005098C7009F0C3E0CC2381F083E0809327
:100D5000040980E58A95F1F70E9424068BE291E070
:100D60000197F1F700C00000D150A1F6C093596679
:100D70008C2FDF91CF911F9108951F93CF93DF9315
:100D8000D62F142F60E00E944206C82F81110AC09E
:100D90008D2F0E948406C82F811104C0812F0E94CC
:100DA0008406C82F83E08093040980E58A95F1F7D3
:100DB000C33011F0C13011F40E942406C09359666B
:100DC000DF91CF911F91089580910804869591E05D
:100DD0008927817008950E94E406882361F080913C
:100DE0005F6681110DC0EAE5F6E6868191E089270C
:100DF00086839583089580915F66811110925F6666
:100E000008950F931F93CF93DF938EE10E944503C4
:100E10000E947103985004EF11E0B8010E945A1526
:100E2000CAE5D6E6688379838DE10E9445030E9476
:100E300071039850B8010E945A156A837B830E94FF
:100E4000E4068C83DF91CF911F910F9108958091DB
:100E50005C6690915D66181619061CF421E02093DB
:100E60008366992314F410928366089580916566D1
:100E700081110BC084E08093660488E28A95F1F7C3
:100E8000E2E6F6E681E08383148208958091666647
:100E900081110BC084E08093650488E28A95F1F7A4
:100EA000E2E6F6E681E0848313820895809163662A
:100EB00081110DC0E0E0FAE0818180618183808151
:100EC00081608083E2E6F6E681E081831282089504
:100ED00080916466811119C0E0E0FAE081818F7E23
:100EE000818380818E7F808388E0809366042FEFEA
:100EF0008EE994E2215080409040E1F700C000006C
:100F0000E2E6F6E681E0828311820895CF93909124
:100F10006266981799F0C82F0E946807CC2321F0C9
:100F200080E28093650403C080E28093660488E2D7
:100F30008A95F1F70E945607C0936266CF91089593
:100F40006FE580E29EE40E94970C84E08093650444
:100F5000089580E00E944B030E947103BC0180E071
:100F600090E00E945F142AE939E949E95DE30E94B3
:100F7000ED1423E83DED4CE75FE30E94ED140E9481
:100F80003014CB010895CF93DF9381E00E944B038F
:100F90000E947103EC010E9485039E01281B390BFE
:100FA000C90199230CF40396959587959595879596
:100FB000DF91CF9108950E9498030E94F0050E944E
:100FC000A0070E945D0C0E9432060E943D030E9411
:100FD000910D0E94D60D0E94EB0A0E94320B2FEF5A
:100FE00088EF95E1215080409040E1F700C000007B
:100FF000C0E00E948D050E94340AC1110E94C50202
:101000000E946B0FC1E0F5CF813051F028F08230A3
:1010100059F0833069F0089581E080934504089584
:1010200081E080934604089580E480930504089548
:1010300080E480930604089590ED980F9A3060F054
:101040009FEB980F963010F4875308959FE9980FFF
:10105000963020F487550895892F089580E00895EB
:10106000DC0140E080E090E022C09C0122953295B6
:10107000307F3227207F3227FD01E40FF11D5081A0
:1010800090ED950F9A3078F08FEB850F863018F43D
:1010900099EC950F08C08FE9850F863018F499EA0E
:1010A000950F01C090E0F901E92BCF014F5F461782
:1010B000E0F208958F929F92AF92BF92CF92DF920B
:1010C000EF92FF920F931F93CF93DF93CDB7DEB7CD
:1010D0002897CDBFDEBF8C01A0E034C04A2F50E07E
:1010E000BA01660F771F80E020E030E021C0229532
:1010F0003295307F3227207F3227FB01E80FF11D28
:10110000E00FF11FE08190ED9E0F9A3078F09FEB99
:101110009E0F963018F499EC9E0F08C09FE99E0F21
:10112000963018F499EA9E0F01C090E0292B8F5F4A
:101130008230E8F2E1E0F0E0EC0FFD1FE40FF51F74
:101140002083AF5FA83050F280E060E070E021C003
:1011500062957295707F7627607F7627E82FF0E0A2
:101160007096E00FF11F208190ED920F9A3078F089
:101170009FEB920F963018F499EC920F08C09FE9FC
:10118000920F963018F499EA920F01C090E0692B03
:101190008F5F8230E8F2CE0101960E943704811100
:1011A00028C081E080937766CDBFDEBF45C1229520
:1011B0003295307F3227207F3227E82FF0E03296B9
:1011C000E00FF11F408190ED940F9A3078F09FEB83
:1011D000940F963018F499EC940F08C09FE9940F7F
:1011E000963018F499EA940F01C090E0292B8F5F94
:1011F00003C080E020E030E08430C8F236952795C7
:1012000036952795ABE7B4E10E94AF159695879583
:1012100080936D6690936E66B8016A5F7F4F80E041
:1012200020E030E01FC022953295307F3227207FAA
:101230003227FB01E80FF11D408190ED940F9A30A9
:1012400078F09FEB940F963018F499EC940F08C047
:101250009FE9940F963018F499EA940F01C090E03A
:10126000292B8F5F8430F8F2369527953695279590
:10127000ABE7B4E10E94AF159695879580936F66B2
:1012800090937066B801665F7F4F20E080E090E049
:101290001FC082959295907F9827807F9827FB01A9
:1012A000E20FF11D408130ED340F3A3078F03FEB22
:1012B000340F363018F439EC340F08C03FE9340FDE
:1012C000363018F439EA340F01C030E0832B2F5F39
:1012D0002230F8F280937166B801645F7F4F20E09E
:1012E00080E090E01FC082959295907F9827807F44
:1012F0009827FB01E20FF11D408130ED340F3A30A9
:1013000078F03FEB340F363018F439EC340F08C066
:101310003FE9340F363018F439EA340F01C030E0B9
:10132000832B2F5F2223F9F280937266035F1F4F96
:1013300020E080E090E01FC082959295907F9827F2
:10134000807F9827F801E20FF11D408130ED340FC6
:101350003A3078F03FEB340F363018F439EC340F74
:1013600008C03FE9340F363018F439EA340F01C0B1
:1013700030E0832B2F5F2330F8F2EDE6F6E686832C
:1013800097831286118682E00E94040882E00E9400
:101390004E042091696630916A6633231CF43195BE
:1013A00021953109B22EA32EE2E6F6E6C5808680AD
:1013B00020917F663091806633231CF4319521950E
:1013C0003109D22E932EE8E7F6E615810681E0E397
:1013D000F6E6B4852285338533231CF431952195B7
:1013E0003109E0E3F6E67085A18556816781928137
:1013F00043811F928F93AF92BF928F92CF929F9211
:10140000DF920F931F931F92BF933F932F93AF933E
:101410007F936F935F934F939F931F9282E08F937D
:1014200088EC94E69F938F931F920E94190E83E09D
:101430000E940408CDBFDEBF2896CDBFDEBFDF917E
:10144000CF911F910F91FF90EF90DF90CF90BF90C1
:10145000AF909F908F90089540E150E060E070E081
:101460000E941516862F0895EF92FF920F931F93F7
:10147000CF93DF93CDB7DEB76297CDBFDEBFFE015E
:10148000319682E1DF011D928A95E9F7EDE6F6E6F5
:10149000108611868CE291E00E94A80AF12C00E0EF
:1014A00044C00E949E0D182F80917666882321F0FB
:1014B00081E0809375663DC0FF2079F11D3779F496
:1014C00081E00E940408E1E0F0E0EC0FFD1FE00F76
:1014D000F11D1082CE0101960E945A082AC00231E5
:1014E000E0F4EE24E394E00EE1E0F0E0EC0FFD1F09
:1014F000E00FF11D1083B2E0EB120CC0CE0101969B
:101500000E942C0A823041F081E00E940408F12CF4
:1015100000E00BC00E2D01C00E2D1B3731F480E012
:101520000E940408FF24F39400E08091430180FFAF
:10153000B8CF81E0809343010E94D50A6296CDBF67
:10154000DEBFDF91CF911F910F91FF90EF90089533
:101550001F93CF93DF93BC01909141019111FCCF78
:10156000C0E4D1E011E01F8380E090E00E945F14AE
:101570002FE632E143E85FE30E94ED140E9430144D
:1015800080E090E00E945F1420E030E040E05FE304
:101590000E9452130E9430146A877B87188619862E
:1015A0001883DF91CF911F910895E0E4F1E08081ED
:1015B0008E7F8083809141018111FCCF0895482F57
:1015C00060E08CE30E94BD060895482F60E48CE340
:1015D0000E94BD060895CF9360E08CE30E9442060E
:1015E000C0E008C0EC2FF0E0E957FC4980810E9480
:1015F0008406CF5FCA31B0F3CF9108951F93CF9384
:10160000DF93D82F80EE8D0F803628F0D03B19F075
:10161000D03C08F4D0E2D03B21F0D03C20F410E2E2
:1016200003C010E501C01FE5C0E013C08D2F90E09E
:10163000811B9109FC01EE0FFF1FEE0FFF1FE80F4A
:10164000F91FEE59FF49EC0FF11D80810E94E50A58
:10165000CF5FC53058F380E00E94E50ADF91CF915B
:101660001F9108950F931F93CF93DF9300E010E035
:1016700016C080EB800F0E94DF0A80E00E94DF0A24
:1016800080E10E94DF0AC0E0D0E004C080E00E9458
:10169000E50A2196C038D105CCF30F5F1F4F083003
:1016A00011053CF3DF91CF911F910F9108950F9396
:1016B0001F93CF93DF938C01D62FC0E005C00E940B
:1016C000FE0A0F5F1F4FCF5FF8018081882339F03A
:1016D000CD17A8F304C080E20E94FE0ACF5FCD17A9
:1016E000D0F3DF91CF911F910F9108950F931F9326
:1016F000CF93DF938C01262FC42F80E890E0841BCA
:10170000910966E070E00E945A15D62F822F806BF7
:101710000E94DF0A8C2F82958F7080610E94DF0A01
:101720008C2F8F700E94DF0A6D2FC8010E94570B0B
:10173000DF91CF911F910F910895AC0190E001C00E
:101740009F5FFA01E90FF11D20812111F9CF892F47
:10175000880F980F292F220F613019F0623069F03D
:101760000FC080E890E0AC01421B5109CA019923E7
:101770000CF4019695958795089580E8821B08954D
:1017800080E008951F93CF93DF93EC01162F642F11
:101790000E949D0B482F612FCE010E94760BDF9196
:1017A000CF911F910895CF93DF93CDB7DEB7E29726
:1017B000CDBFDEBF9E01255C3F4F4FA958AD62E310
:1017C00070E0CE0101960E9452174AAD69ADCE017C
:1017D00001960E94C20BE296CDBFDEBFDF91CF9192
:1017E000089580917B66811111C082E08093A604E8
:1017F0002FEF88EF95E1215080409040E1F700C045
:101800000000E8E7F6E681E0838314820895809182
:101810007C66811111C082E08093A5042FEF88EFD0
:1018200095E1215080409040E1F700C00000E8E7DA
:10183000F6E681E0848313820895809179668111B0
:101840000EC080918E0B80FFFCCFE0E8FBE0808132
:1018500081608083E8E7F6E681E081831282089563
:1018600080917A6681110EC080918E0B80FFFCCF33
:10187000E0E8FBE080818E7F8083E8E7F6E681E0A8
:10188000828311820895CF9390917866981799F08A
:10189000C82F0E94300CCC2321F088E08093A5044F
:1018A00003C088E08093A60488E18A95F1F70E943E
:1018B0001D0CC0937866CF91089542E360E074E612
:1018C00080E090E00E94270D089580E00E945B0375
:1018D0000E947103BC0180E090E00E945F142FE839
:1018E00032EC45E35EE30E94ED1426E636E646E878
:1018F0005FE30E94ED140E943014CB010895CF9352
:10190000DF9381E00E945B030E947103EC010E945F
:1019100085039E01281B390BC90199230CF40396FA
:101920009595879595958795DF91CF9108958F929D
:101930009F92AF92BF92CF92DF92EF92FF920F935E
:101940001F93CF93DF93CDB7DEB76897CDBFDEBFD0
:101950007C01C62E80E1E1EAF3E6DE0111960190FA
:101960000D928A95E1F788E0E1EBF3E6DE0151960E
:1019700001900D928A95E1F7D12C38C00D2D10E021
:10198000F801EE0FFF1F81E090E08C0F9D1FE80F24
:10199000F91F2081318140E050E060E076E38EE67F
:1019A00091E00E9490154701A12CB12CCA01B90108
:1019B000A50194010E946E15DA01C9010197A109E0
:1019C000B109BA01A90142505109610971094F3F9A
:1019D00051056105710548F4F82EE1E1F0E0EC0FE6
:1019E000FD1FE00FF11F108106C0D39497E09D15F5
:1019F00028F6F12C10E02F2D30E0AC2DB0E00E9445
:101A0000AF1524E630E040E050E00E946E15F2167B
:101A100008F42F2D83E08093E705E0E0FAE081E011
:101A2000838380E18183F7A221A7116010836896E8
:101A3000CDBFDEBFDF91CF911F910F91FF90EF904F
:101A4000DF90CF90BF90AF909F908F900895CF92EE
:101A5000DF92EF92FF920F931F93CF93DF93C42FE8
:101A6000DC01CB01880F991FAA1FBB1F880F991F8C
:101A7000AA1FBB1F880F991FAA1FBB1F880F991F82
:101A8000AA1FBB1F9C01AD01220F331F441F551F0E
:101A9000220F331F441F551F60E076E38EE691E06E
:101AA0000E946E158901015011096C2F70E080E0D1
:101AB00090E00E94611420E030E048EC52E40E9483
:101AC000BE136B017C01B80180E090E00E945F14BE
:101AD000A70196010E94ED140E9430146F5F7F4FA2
:101AE000C801861B970B0197C0E8DBE00EA71FA774
:101AF0008CA79DA768A779A760E482E99BE00E9474
:101B0000121A83E0898360E780E89BE00E94121A42
:101B1000DF91CF911F910F91FF90EF90DF90CF90C9
:101B20000895E0E0F8E083E896E08087918781E01F
:101B3000858382EC868383E08783089580E88093A1
:101B4000040808C08091430180FF04C081E08093B5
:101B5000766604C0809104088823A4F78091000869
:101B600008959091040895FFFCCF80930208089592
:101B70000F931F93CF93DF938C01C0E0D0E007C099
:101B8000F801EC0FFD1F80810E94B10D2196F80134
:101B900001900020E9F73197E01BF10BCE17DF072A
:101BA00078F3DF91CF911F910F910895E0E2F8E073
:101BB00080E096E08087918782E8868383E0878350
:101BC00008959091240895FFFCCF809322080895F2
:101BD0000F931F93CF93DF938C01C0E0D0E007C039
:101BE000F801EC0FFD1F80810E94E10D2196F801A4
:101BF00001900020E9F73197E01BF10BCE17DF07CA
:101C000078F3DF91CF911F910F91089580E8809331
:101C1000240808C08091430180FF04C081E08093C4
:101C2000426604C0809124088823A4F7809120088C
:101C300008951F93CF93DF93CDB7DEB7C058D10976
:101C4000CDBFDEBFCA57DF4F1881C658D0409E01B6
:101C500027573F4FC957DF4F48815981C758D04058
:101C600060E870E0CE0101960E945217111105C084
:101C7000CE0101960E94B80D06C0113021F4CE01AC
:101C800001960E94E80DC058DF4FCDBFDEBFDF9147
:101C9000CF911F9108951F93CF93DF93CDB7DEB7F8
:101CA000A897CDBFDEBF182FFE01319688E2DF0175
:101CB0001D928A95E9F78091846681130E94320B08
:101CC000112321F0113009F4A4C0FBC0A8E5B0E64F
:101CD0008D919C91119789839A83E0E3F6E6808148
:101CE00091818B839C8315968D919C9116978D8302
:101CF0009E83848195818F8398878091606690E030
:101D000089879A87838990E08B879C87818990E077
:101D10008D879E87848990E08F87988B858990E056
:101D2000898B9A8B868990E08B8B9C8BADE6B6E68F
:101D300018968C91189790E08D8B9E8B1A968C91AB
:101D400090E08F8B988FA8E7B6E615968D919C91C1
:101D50001697898F9A8F17968D919C9118978B8FD4
:101D60009C8FA2E6B6E615968D919C9116978D8F65
:101D70009E8F17968D919C9118978F8F98A387852A
:101D800090E089A39AA3808990E08BA39CA385858A
:101D900090E08DA39EA3868590E08FA398A720E076
:101DA00018C0822F90E0FC013196EE0FFF1FED5717
:101DB000F94940815181880F991FE1E0F0E0EC0F73
:101DC000FD1FE80FF91F808191814817590729F4F9
:101DD0002F5F243130F380E001C081E090E016C035
:101DE000292F30E0F901EE0FFF1F41E050E04C0FCA
:101DF0005D1FE40FF51F40815181F9013196EE0F0F
:101E0000FF1FED57F949408351839F5F943140F3A1
:101E100059C0E0E3F6E68085918589839A838285BF
:101E200093858B839C83E8E7F6E6858196818D8395
:101E30009E83878190858F839887E2E6F6E6858189
:101E4000968189879A87878190858B879C8720E0F8
:101E500018C0822F90E0FC013196EE0FFF1FED5766
:101E6000F94940815181880F991FE1E0F0E0EC0FC2
:101E7000FD1FE80FF91F808191814817590729F448
:101E80002F5F263030F380E001C081E090E016C083
:101E9000292F30E0F901EE0FFF1FA1E0B0E0AC0FF9
:101EA000BD1FEA0FFB1F40815181F9013196EE0FF2
:101EB000FF1FED57F949408351839F5F963040F3F0
:101EC00001C080E010938466A896CDBFDEBFDF918D
:101ED000CF911F910895CF92DF92EF92FF920F93CF
:101EE0001F93CF93DF93CDB7DEB72A97CDBFDEBF69
:101EF0000E94010780916066811102C00E9427073D
:101F00000E94EB0680918366882321F0813009F4DA
:101F10003BC2BBC380E00E944B0E882309F4B5C3CB
:101F200080916066882319F027EF34E602C023E031
:101F300035E61F9282E08F933F932F938F931F92EA
:101F400083E395E69F938F930E94D30B81E08F9359
:101F50008F938DE395E69F938F930E94D30B80918F
:101F60006066CDBFDEBF882309F4B0C01F9282E057
:101F70008F9383E595E69F938F930E94D30BE8E7B9
:101F8000F6E6E780F084C70164E670E00E945A1527
:101F90000580F681E02D9C01992324F42227332724
:101FA000281B390B3F932F9304E610E0C701B801BB
:101FB0000E945A157F936F939F01ADECBCEC0E9479
:101FC000AF159695879596958795969587959C01DB
:101FD000220F331F880F991F880F991F880F991F91
:101FE000820F931FDF01A81BB90BCD019F93AF9305
:101FF0009F01ADECBCEC0E94AF1596958795969528
:102000008795969587959F938F9382E08F938F9373
:1020100089E595E69F938F930E94D30B1F9283E0EF
:102020008F938FE695E69F938F930E94D30BE2E602
:10203000F6E6E780F084C701B8010E945A150580D2
:10204000F681E02D9C01992324F422273327281BB5
:10205000390B3F932F93C70164E670E00E945A1535
:102060007F936F939F01ADECBCEC0E94AF159695EA
:10207000879596958795969587959C01220F331F96
:10208000880F991F880F991F880F991F820F931F20
:102090009F01281B390BC9019F932F939F010E9419
:1020A000AF159695879596958795969587959F9365
:1020B0008F9382E08F9383E08F9389E595E69F93DA
:1020C0008F930E94D30BCDBFDEBF4DC0809177664A
:1020D000882319F02FE035E602C023E835E6809129
:1020E0007566882319F083E195E602C083E895E6DA
:1020F0003F932F939F938F931F9282E08F9385E757
:1021000095E69F938F930E94D30B80914366CDBF3A
:10211000DEBF882319F04FE055E602C043E855E6DC
:1021200080914166882319F027E135E602C023E853
:1021300035E680914466882319F083E195E602C074
:1021400083E895E65F934F933F932F939F938F93ED
:102150001F9283E08F9387E895E69F938F930E9469
:10216000D30BCDBFDEBF80E29FE28E839F831886B4
:1021700019861A8681E08F9384E08F938DE395E62C
:102180009F938F930E94D30B1F9285E08F9389E9D1
:1021900095E69F938F930E94D30B80916F669091E9
:1021A0007066CDBFDEBF8530910530F42DE63FE28D
:1021B0002E833F83188608C08D33910528F02DE4C7
:1021C0003FE22E833F831886209145662223E1F06B
:1021D0001F922F93E0E3F6E621812F9320812F9326
:1021E0009E012A5F3F4F3F932F939F938F9382E0EF
:1021F0008F9385E08F9384EA95E69F938F930E9457
:10220000D30BCDBFDEBF19C0E0E3F6E621812F93EB
:1022100020812F939E012A5F3F4F3F932F939F93DF
:102220008F9382E08F9385E08F9381EB95E69F9368
:102230008F930E94D30BCDBFDEBF80E29FE28983E4
:102240009A831B821C821D821F9286E08F938DEBE6
:1022500095E69F938F930E94D30B80916D6690912A
:102260006E660F900F900F900F908C32910530F4A6
:102270002DE63FE229833A831B8209C08D33B1E00A
:102280009B0728F02DE43FE229833A831B822091AB
:1022900046662223E1F01F922F93E0E3F6E62581C4
:1022A0002F9324812F939E012F5F3F4F3F932F93B6
:1022B0009F938F9382E08F9386E08F9384EA95E6D5
:1022C0009F938F930E94D30BCDBFDEBF19C0E0E375
:1022D000F6E625812F9324812F939E012F5F3F4F98
:1022E0003F932F939F938F9382E08F9386E08F93FA
:1022F00081EB95E69F938F930E94D30BCDBFDEBFFA
:1023000080914066882319F02BE135E602C021E870
:1023100035E680913F66882319F081E295E602C098
:1023200081E895E63F932F939F938F931F9287E0C9
:102330008F9386EC95E69F938F930E94D30B8091A9
:102340003E66CDBFDEBF882319F027E235E602C026
:1023500021E835E680913D66882319F08DE295E607
:1023600002C081E895E63F932F939F938F9382E07D
:102370008F9387E08F9386EC95E69F938F930E94CF
:10238000D30BCDBFDEBF81C181E00E944B0E8823FD
:1023900009F47BC11F921F928CEC95E69F938F935B
:1023A0000E94D30B00E316E6D80118964D915C917C
:1023B00019979A01ADECBCEC0E94AF1596958795E4
:1023C00096958795969587959C01220F331F880FC8
:1023D000991F880F991F880F991F820F931FFA0169
:1023E000E81BF90BCF019F93EF939A010E94AF1561
:1023F0009695879596958795969587959F938F93B4
:1024000082E08F931F9289ED95E69F938F930E94B0
:10241000D30B1F9281E08F9382EE95E69F938F936B
:102420000E94D30BD8011A964D915C911B979A018B
:102430003695279536952795ABE7B4E10E94AF1501
:102440009695879564E6689F9001699F300D1124E9
:10245000CA01821B930B9C0122F422273327281BDD
:10246000390B3F932F939A013695279536952795EB
:10247000ABE7B4E10E94AF15969587959F938F9334
:1024800012E01F9301E00F938FEE95E69F938F93D9
:102490000E94D30B0F931F938DE395E69F938F9329
:1024A0000E94D30B1F9203E00F9388EF95E69F9352
:1024B0008F930E94D30B0F2EF8E7EF2EF6E6FF2E38
:1024C000F02DF70145815681CDBFDEBF9A01ADECFD
:1024D000BCEC0E94AF159695879596958795969535
:1024E00087959C01220F331F880F991F880F991F12
:1024F000880F991F820F931FDA01A81BB90BCD011A
:102500009F93AF939A01ADECBCEC0E94AF159695EA
:10251000879596958795969587959F938F931F930B
:102520000F9389ED95E69F938F930E94D30B1F9293
:1025300084E08F9386E096E69F938F930E94D30B5F
:10254000D7011796ED91FC911897CF0164E670E0E2
:102550000E945A159C01992324F422273327281B13
:10256000390B3F932F9304E610E0CF01B8010E948E
:102570005A157F936F936894CC24C1F8CF9284E06E
:102580008F938FEE95E69F938F930E94D30B81E0FC
:102590008F9385E08F938DE395E69F938F930E94B1
:1025A000D30B1F920F2EF6E0DF2EF02DDF9285E188
:1025B00096E69F938F930E94D30B0F2EF2E6EF2E99
:1025C000F6E6FF2EF02DF701458156819A01ADEC1C
:1025D000BCEC0E94AF159695879596958795969534
:1025E00087959C01220F331F880F991F880F991F11
:1025F000880F991F820F931F9A01281B390BC9015D
:102600009F932F939A010E94AF1596958795969563
:102610008795969587959F938F93CF92DF9289EDBB
:1026200095E69F938F930E94D30BCDBFDEBF1F9281
:1026300087E08F9382E296E69F938F930E94D30B5D
:10264000D7011796ED91FC911897CF01B8010E9420
:102650005A159C01992324F422273327281B390B70
:102660003F932F93CF0164E670E00E945A157F9349
:102670006F9382E08F9387E08F938FEE95E69F9321
:102680008F930E94D30BCDBFDEBF2A96CDBFDEBF96
:10269000DF91CF911F910F91FF90EF90DF90CF903E
:1026A00008955058BB27AA270E9469130C94B314AD
:1026B0000E94A51438F00E94AC1420F039F49F3F1A
:1026C00019F426F40C94A2140EF4E095E7FB0C9494
:1026D0009C14E92F0E94C41458F3BA1762077307B9
:1026E0008407950720F079F4A6F50C94E6140EF40F
:1026F000E0950B2EBA2FA02D0B01B90190010C0112
:10270000CA01A0011124FF27591B99F0593F50F429
:10271000503E68F11A16F040A22F232F342F442781
:10272000585FF3CF469537952795A795F040539579
:10273000C9F77EF41F16BA0B620B730B840BBAF049
:102740009150A1F0FF0FBB1F661F771F881FC2F7B4
:102750000EC0BA0F621F731F841F48F487957795C8
:102760006795B795F7959E3F08F0B0CF9395880F82
:1027700008F09927EE0F9795879508950E94D21338
:102780000C94B3140E94AC1458F00E94A51440F0AD
:1027900029F45F3F29F00C949C1451110C94E71418
:1027A0000C94A2140E94C41468F39923B1F3552326
:1027B00091F3951B550BBB27AA2762177307840754
:1027C00038F09F5F5F4F220F331F441FAA1FA9F3EA
:1027D00035D00E2E3AF0E0E832D091505040E695D8
:1027E000001CCAF72BD0FE2F29D0660F771F881F39
:1027F000BB1F261737074807AB07B0E809F0BB0B2C
:10280000802DBF01FF2793585F4F3AF09E3F51053F
:1028100078F00C949C140C94E7145F3FE4F3983E1A
:10282000D4F3869577956795B795F7959F5FC9F728
:10283000880F911D9695879597F90895E1E0660FA9
:10284000771F881FBB1F621773078407BA0720F022
:10285000621B730B840BBA0BEE1F88F7E09508958B
:102860000E94CC1488F09F5798F0B92F9927B75140
:10287000B0F0E1F0660F771F881F991F1AF0BA9524
:10288000C9F714C0B13091F00E94E614B1E0089588
:102890000C94E614672F782F8827B85F39F0B93F7A
:1028A000CCF3869577956795B395D9F73EF49095D7
:1028B0008095709561957F4F8F4F9F4F0895E89455
:1028C00009C097FB3EF490958095709561957F4F78
:1028D0008F4F9F4F9923A9F0F92F96E9BB27939526
:1028E000F695879577956795B795F111F8CFFAF436
:1028F000BB0F11F460FF1BC06F5F7F4F8F4F9F4F67
:1029000016C0882311F096E911C0772321F09EE8C4
:10291000872F762F05C0662371F096E8862F70E02A
:1029200060E02AF09A95660F771F881FDAF7880F04
:102930009695879597F9089597F99F6780E870E0D5
:1029400060E008959FEF80EC089500240A94161625
:10295000170618060906089500240A94121613068D
:10296000140605060895092E0394000C11F488231B
:1029700052F0BB0F40F4BF2B11F460FF04C06F5F37
:102980007F4F8F4F9F4F089557FD9058440F551F0D
:1029900059F05F3F71F04795880F97FB991F61F0E1
:1029A0009F3F79F087950895121613061406551F58
:1029B000F2CF4695F1DF08C0161617061806991FC4
:1029C000F1CF86957105610508940895E894BB27B9
:1029D00066277727CB0197F908950E9400150C947C
:1029E000B3140E94A51438F00E94AC1420F0952373
:1029F00011F00C949C140C94A21411240C94E71460
:102A00000E94C41470F3959FC1F3950F50E0551FB9
:102A1000629FF001729FBB27F00DB11D639FAA2733
:102A2000F00DB11DAA1F649F6627B00DA11D661F82
:102A3000829F2227B00DA11D621F739FB00DA11DA3
:102A4000621F839FA00D611D221F749F3327A00D5D
:102A5000611D231F849F600D211D822F762F6A2FF9
:102A600011249F5750409AF0F1F088234AF0EE0F5E
:102A7000FF1FBB1F661F771F881F91505040A9F78B
:102A80009E3F510580F00C949C140C94E7145F3F1A
:102A9000E4F3983ED4F3869577956795B795F795C7
:102AA000E7959F5FC1F7FE2B880F911D969587953F
:102AB00097F9089597FB072E16F4009407D077FD39
:102AC00009D00E94011607FC05D03EF4909581952F
:102AD0009F4F0895709561957F4F0895A1E21A2E3A
:102AE000AA1BBB1BFD010DC0AA1FBB1FEE1FFF1FB2
:102AF000A217B307E407F50720F0A21BB30BE40B02
:102B0000F50B661F771F881F991F1A9469F7609548
:102B10007095809590959B01AC01BD01CF01089502
:102B2000052E97FB1EF400940E94A71557FD07D0B1
:102B30000E946E1507FC03D04EF40C94A715509517
:102B40004095309521953F4F4F4F5F4F0895909599
:102B50008095709561957F4F8F4F9F4F0895A29FED
:102B6000B001B39FC001A39F700D811D1124911D61
:102B7000B29F700D811D1124911D08950F9308308F
:102B800090F0982F872F762F652F542F432F322FB9
:102B900022270850F4CF220F331F441F551F661FF2
:102BA000771F881F991F0A95B2F70F91089597FB19
:102BB00010F8169400080F93083098F00850232F4F
:102BC000342F452F562F672F782F892F902DF4CF34
:102BD0000594979587957795679557954795379578
:102BE00027950A95AAF70F9108950024A7FD009450
:102BF0002A173005400550056005700580059005D1
:102C00000895AA1BBB1B51E107C0AA1FBB1FA61733
:102C1000B70710F0A61BB70B881F991F5A95A9F785
:102C200080959095BC01CD010895A0E0B0E0EBE166
:102C3000F6E10C94341A5C016B017A01611571059F
:102C400019F0FB0180839183E114F10429F0C7019D
:102C50000297839708F0E5C0E5012196F501108100
:102C6000812F90E00E942B17892B11F05E01F4CF89
:102C70001D3229F42196F501118101E007C01B32B4
:102C800021F4E5012296F501118100E0E114F1043F
:102C900009F1F0E1EF16F10429F43FC010E3E1146B
:102CA000F10421F128E0E216F10401F154F4E2E02C
:102CB000EE16F10421F5812C912CA12CB0E4BB2E51
:102CC0003EC0FAE0EF16F10439F020E1E216F1041B
:102CD000B1F430C0103319F1FAE0EF2EF12CACEC66
:102CE0008A2E982CA82CACE0BA2E29C078E0E72ECA
:102CF000F12C812C912CA12CE0E1BE2E20C060E0B3
:102D000070E080E090E897010F2C000C440B550B0D
:102D10000E946E1549015A0112C0103359F488817E
:102D20008F7D883509F0BACF19812296026080E143
:102D3000E82EF12C812C912CA12C68E0B62E40E0DD
:102D400060E070E0CB0127010F2C000C66087708CB
:102D5000FE0150ED352E310E29E0231570F42FEBD6
:102D6000210F2A3118F439EC332E06C02FE9210F38
:102D70002A3118F529EA322E310E232D30E02E1596
:102D80003F05DCF447FD16C086169706A806B9066F
:102D900070F0A30192010E94181A630D711D811D2C
:102DA000911D61307105810520E8920710F04FEF09
:102DB00001C041E021961081CBCF202F2170C1149A
:102DC000D10471F0442329F02197F601C083D18307
:102DD00007C001FF19C02297F601C083D18314C038
:102DE00047FF12C0222329F060E070E080E090E805
:102DF00004C06FEF7FEF8FEF9FE722E230E0209378
:102E0000AD663093AE6609C0222381F0909580951F
:102E1000709561957F4F8F4F9F4F462F372F282FEB
:102E200012C040E030E020E090E00DC097FFF5CF09
:102E300082E290E08093AD669093AE666FEF7FEF95
:102E40008FEF9FE7EACF642F732F822FCDB7DEB7C6
:102E5000E1E10C944D1A91110C945F19803219F034
:102E600089508550C8F70895FB01DC018D910190D0
:102E700080190110D9F3990B0895FB01DC01019031
:102E80000D920020E1F70895FB01DC014150504014
:102E900030F08D910190801919F40020B9F7881B4A
:102EA000990B0895AEE0B0E0E8E5F7E10C94411A23
:102EB0008C01FA0186E08C8309831A8377FF02C0B4
:102EC00060E070E8CB0101978D839E83A901BF016B
:102ED000CE0101960E947E174D815E8157FD0AC08A
:102EE0002F813885421753070CF49A01F801E20F3D
:102EF000F31F10822E96E4E00C945A1AABE0B0E077
:102F0000E4E8F7E10C94331A6C017B018A01FC01BF
:102F100016821782838181FFCCC1CE0101963C01CC
:102F2000F6019381F70193FD859193FF81917F01D4
:102F3000882309F4BAC1853239F493FD859193FF52
:102F400081917F01853229F4B60190E00E947819C1
:102F5000E7CF912C212C312CFFE1F315D8F08B32E7
:102F600079F038F4803279F08332A1F4232D206196
:102F70001DC08D3261F0803369F4232D216016C0AD
:102F8000832D8260382EE32DE4603E2E2AC0F32D7F
:102F9000F8601DC037FC2DC020ED280F2A3040F00E
:102FA0008E32B9F436FC81C1232D2064322E19C033
:102FB00036FE06C08AE0989E200D1124922E11C084
:102FC000EAE02E9E200D1124222EF32DF0623F2EDA
:102FD00008C08C3621F4832D8068382E02C08836D4
:102FE00041F4F70193FD859193FF81917F01811158
:102FF000B3CF982F9F7D9554933028F40C5F1F4FCB
:103000009FE399830DC0833631F0833771F08335A8
:1030100009F059C021C0F801808189830E5F1F4FDC
:1030200088248394912C530113C02801F2E04F0EA1
:10303000511CF801A080B18036FE03C0692D70E0FC
:1030400002C06FEF7FEFC5010E946D194C01820134
:10305000F32DFF773F2E16C0280122E0420E511CAF
:10306000F801A080B18036FE03C0692D70E002C077
:103070006FEF7FEFC5010E9462194C01F32DF068DC
:103080003F2E820133FC1BC0822D90E088169906EA
:10309000B0F4B60180E290E00E9478192A94F4CF4F
:1030A000F50137FC859137FE81915F01B60190E013
:1030B0000E94781921102A9421E0821A9108811423
:1030C000910471F7E8C0843611F0893641F5F801B2
:1030D00037FE07C060817181828193810C5F1F4F31
:1030E00008C060817181072E000C880B990B0E5F60
:1030F0001F4FF32DFF763F2E97FF09C090958095C7
:10310000709561957F4F8F4F9F4FF0683F2E2AE05B
:1031100030E0A3010E94B419882E861845C0853777
:1031200031F4232D2F7EB22E2AE030E025C0932DDE
:10313000997FB92E8F36C1F018F4883579F0B5C073
:10314000803719F0883721F0B0C0E92FE061BE2E3A
:10315000B4FE0DC0FB2DF460BF2E09C034FE0AC0C2
:10316000292F2660B22E06C028E030E005C020E1FD
:1031700030E002C020E132E0F801B7FE07C0608114
:103180007181828193810C5F1F4F06C060817181C4
:1031900080E090E00E5F1F4FA3010E94B419882EBB
:1031A0008618FB2DFF773F2E36FE0DC0232D2E7F78
:1031B000A22E891458F434FE0BC032FC09C0832DB2
:1031C0008E7EA82E05C0B82CA32C03C0B82C01C03D
:1031D000B92CA4FE0FC0FE01E80DF11D80818033E3
:1031E00021F49A2D997EA92E09C0A2FE06C0B3949F
:1031F000B39404C08A2D867809F0B394A3FC11C05F
:10320000A0FE06C0B21488F4280C922C9B180EC0A5
:10321000B21460F4B60180E290E00E947819B39491
:10322000F7CFB21418F42B1802C0982C212CA4FE4E
:1032300010C0B60180E390E00E947819A2FE17C08A
:10324000A1FC03C088E790E002C088E590E0B601E9
:103250000CC08A2D867859F0A1FE02C08BE201C015
:1032600080E2A7FC8DE2B60190E00E9478198914F3
:1032700038F4B60180E390E00E9478199A94F7CF71
:103280008A94F301E80DF11D8081B60190E00E945F
:1032900078198110F5CF222009F442CEB60180E2E0
:1032A00090E00E9478192A94F6CFF60186819781E2
:1032B00002C08FEF9FEF2B96E2E10C944C1A9927F6
:1032C00088270895FC010590615070400110D8F7DF
:1032D000809590958E0F9F1F0895FC01615070405E
:1032E00001900110D8F7809590958E0F9F1F08953B
:1032F0000F931F93CF93DF93FB01238121FD03C025
:103300008FEF9FEF2CC022FF16C04681578124818A
:1033100035814217530744F4A081B1819D012F5F8D
:103320003F4F208331838C93268137812F5F3F4F1E
:103330002683378314C08B01EC01FB010084F185E7
:10334000E02D0995892BE1F6D80116968D919C9177
:103350001797019616968D939C931797CE01DF9140
:10336000CF911F910F910895FA01AA27283051F1AA
:10337000203181F1E8946F936E7F6E5F7F4F8F4FA6
:103380009F4FAF4FB1E03ED0B4E03CD0670F781F05
:10339000891F9A1FA11D680F791F8A1F911DA11DEA
:1033A0006A0F711D811D911DA11D20D009F4689423
:1033B0003F912AE0269F11243019305D3193DEF6CB
:1033C000CF010895462F4770405D4193B3E00FD081
:1033D000C9F7F6CF462F4F70405D4A3318F0495D6C
:1033E00031FD4052419302D0A9F7EACFB4E0A6954F
:1033F0009795879577956795BA95C9F70097610571
:10340000710508959B01AC010A2E069457954795C6
:1034100037952795BA95C9F7620F731F841F951FBB
:10342000A01D0895DC0128ED209334006C930895CD
:10343000DB018F939F930E94281ABF91AF91A29FA7
:10344000800D911DA39F900DB29F900D11240895A2
:103450000E94AF15A59F900DB49F900DA49F800D65
:10346000911D112408952F923F924F925F926F9277
:103470007F928F929F92AF92BF92CF92DF92EF9204
:10348000FF920F931F93CF93DF93CDB7DEB7CA1B85
:10349000DB0BCDBFDEBF09942A88398848885F845A
:1034A0006E847D848C849B84AA84B984C884DF80E4
:1034B000EE80FD800C811B81AA81B981CE0FD11DC8
:0C34C000CDBFDEBFED010895F894FFCFF2
:1034CC0001F10B070C1D0C300C430C650C7F0C34FC
:1034DC00663666466660605D605F603F66406600AB
:1034EC0000010000007D667F660000000036074684
:1034FC0007560768078607A907C307306632664573
:10350C00665B6058605A603D663E660000010000D4
:10351C0000676669660000002500010000AB000131
:10352C000000000000000000005F00000007000722
:10353C0000147F147F14242A7F2A12231308646238
:10354C0036495522500005030000001C22410000A2
:10355C0041221C0014083E081408083E08080050BC
:10356C0030000008080808080060600000201008FF
:10357C0004023E5149453E00427F400042615149A0
:10358C00462141454B311814127F102745454539CA
:10359C003C4A494930017109050336494949360607
:1035AC004949291E00363600000056360000081422
:1035BC002241001414141414004122140802015165
:1035CC000906324979413E7E1111117E7F494949E4
:1035DC00363E414141227F4141221C7F49494941AC
:1035EC007F090909013E4149497A7F0808087F0093
:1035FC00417F41002040413F017F081422417F4020
:10360C004040407F020C027F7F0408107F3E414106
:10361C00413E7F090909063E4151215E7F09192966
:10362C0046464949493101017F01013F4040403F35
:10363C001F2040201F3F4038403F6314081463078D
:10364C00087008076151494543007F41410002045D
:10365C000810200041417F00040201020440404058
:10366C004040000307000020545454787F484444E1
:10367C00383844444420384444487F38545454180F
:10368C00087E090102081454543C7F080404780095
:10369C00447D40002040443D007F10284400004100
:1036AC007F40007C041804787C0804047838444477
:1036BC0044387C14141408081414187C7C08040472
:1036CC00084854545420043F4440203C4040207C43
:1036DC001C2040201C3C4030403C44281028440C0A
:1036EC005050503C4464544C440008364100000097
:1036FC007F0000004136080008082A1C08081C2A14
:10370C00080806090906007E1111917E00417FC14F
:10371C00007E1111917E3E414141227E1111917E1C
:10372C007E1111917E7F4949C9417F4949C97F3C2E
:10373C00434243247E4A4B4A4162534A47427E4AA3
:10374C004B4A423E4149497A7F0814224100417F4D
:10375C0041007F40404040444B4A4B327F040810AC
:10376C007F7F0408107F3E4141413E3E4141413E36
:10377C003E4141413E3E4141413E44281028443F98
:10378C004040C03F7F40404040444B4A4B323C415C
:10379C0041413C3C4141413C62534A474262534A9D
:1037AC0047423649494936205454D47800447DC0A8
:1037BC0000205454547838444444202054545478B1
:1037CC002054545478385454D41838545554183808
:1037DC004546452038545554184465564D44385484
:1037EC00555418081454543C7F1028440000447D50
:1037FC00400000417F400048555655207C08040489
:10380C00787C0804047838444444383844444438B8
:10381C003844444438384444443800363600003880
:10382C004040A07800417F40004854545420384216
:10383C0042227838424222784465564D44446556BB
:10384C004D44000503000000AEA83FD3004020000B
:10385C00D9F1DB40A1C8DA1281FFA4A6D5F08D14F2
:10386C00AF0100020004000800100040000001003D
:10387C000400020406080A0C0E009BAD36C15A6CFB
:10388C00F71982B42FD84375EE32A99F04F3685E02
:10389C00C52BB0861DEA7147DC64FFC952A53E08F2
:1038AC00937DE6D04BBC27118A56CDFB60970C3A22
:1038BC00A14FD4E2798E1523B8C85365FE0992A4A2
:1038CC003FD14A7CE7108BBD26FA6157CC3BA096C2
:1038DC000DE3784ED522B98F14AC37019A6DF6C032
:1038EC005BB52E188374EFD9429E0533A85FC4F2E2
:1038FC0069871C2AB146DDEB700B90A63DCA516757
:10390C00FC1289BF24D3487EE539A2940FF8635585
:10391C00CE20BB8D16E17A4CD76FF4C259AE35036D
:10392C009876EDDB40B72C1A815DC6F06B9C0731A5
:10393C00AA44DFE972851E28B3C3586EF50299AF0D
:10394C0034DA4177EC1B80B62DF16A5CC730AB9D45
:10395C0006E87345DE29B2841FA73C0A9166FDCBAD
:10396C0050BE2513887FE4D249950E38A354CFF965
:10397C00628C1721BA4DD6E07B303030303030308D
:10398C0030303030303030005B25303278253034F8
:10399C0078253034782530337825303378257825E0
:1039AC00303378253033782530337825303378250B
:1039BC003032785D0D0A004D616E75616C206D6F53
:1039CC00646500204175746F206D6F646520004341
:1039DC005243004C43450054434500417A4D6178B5
:1039EC0000417A4D696E00456C4D617800456C4D17
:1039FC00696E00257320205425303264002D2D2D46
:103A0C002D2D2D2D2D2D2D2D2D2D2D2D2D2D2D2DDA
:103A1C002D2D0053742E4D3A002533642E25303154
:103A2C00645620202533642E253032644120004C0E
:103A3C006E2E4D3A00572E533A20257320257320B5
:103A4C0020202020202000542E433A2025732025AE
:103A5C00732025732020202000456C6576617469E5
:103A6C006F6E3A0025336425732533642145256434
:103A7C0000253364257325336420202000417A69A6
:103A8C006D7574683A00257320257300532E502EE3
:103A9C0020566F6C74616765002533642E253031B8
:103AAC006400532E502043757272656E743A002573
:103ABC0033642E253032640053742E4D2E20566FF5
:103ACC006C746167650053742E4D2E2043757272B1
:103ADC00656E743A004C2E4D2E20566F6C746167D7
:103AEC0065004C2E4D2E2043757272656E743A0033
:00000001FF
