S02100004156523634444433322D4D41494E2D436F6E74726F6C6C65722E7372656320
S11300000C9448000C9465000C9465000C946500F5
S11300100C9465000C9465000C9465000C946500C8
S11300200C9465000C9465000C9465000C946500B8
S11300300C9465000C9465000C9465000C946500A8
S11300400C9465000C9465000C9465000C94650098
S11300500C9465000C9465000C9465000C94650088
S11300600C9465000C9465000C9465000C94650078
S11300700C9465000C9465000C9465000C94650068
S11300800C9465000C9465000C9465000C94650058
S113009011241FBECFEFCDBFDFE7DEBF15E6A0E022
S11300A0B0E6E2EAFBE202C005900D92A839B1077E
S11300B0D9F726E6A8E9B5E601C01D92A630B20735
S11300C0E1F70E94FB060C94CF150C94000068E63F
S11300D071E00E94A110992314F488599E4F089549
S11300E09C01261B370BC901992324F488279927DF
S11300F0821B930B68E671E00E94A110853B910579
S113010034F028E631E0A901481B590BCA010895CF
S1130110CF92DF92EF92FF920F931F93CF93DF93CF
S1130120C091DB652DE2C29FE0011124CE01865A05
S11301309F4F0E9467008C01CE018A5591090E944D
S11301406700EC01C8014E979E012E5131098D3292
S113015041E09407E8F42D323140D0F4E0909C65FE
S1130160F0909D65B801C7010E9470006C01BE014A
S1130170C7010E9470008C159D051CF0902F812FE3
S113018002C09C2F8D2F90934F60809350600CC0C1
S11301908D32914028F400934F601093506004C056
S11301A0C0934F60D0935060DF91CF911F910F9116
S11301B0FF90EF90DF90CF9008958F929F92AF922F
S11301C0BF92CF92DF92EF92FF920F931F93CF9340
S11301D0DF93EC018091AB65882339F0EF81F885DA
S11301E00995EB81FC8109951BC1EF85F889208174
S11301F03181EF89F88D808191812817390781F445
S1130200EF81F8850995EB81FC810995EB89FC89DF
S11302101082E98DFA8D81E080831B8E1C8E00C1D3
S113022009A11AA1EB85FC850995F80180839183C6
S11302300BA11CA1ED85FE850995F80180839183AE
S1130240EF85F88980819181A0E0B0E0EF89F88D95
S11302504081518160E070E00D8D1E8D2F8D38A19D
S11302606A017B01C01AD10AE20AF30A8C159D05C2
S1130270AE05BF055CF0400F511F621F731F481786
S113028059076A077B0724F490E003C090E001C09B
S113029091E0892F817029F0E98DFA8D8081811197
S11302A009C0ED81FE810995E981FA810995E98DFD
S11302B0FA8D1082E989FA89C080D180E12CF12C71
S11302C0ED89FE8980819181C81AD90AE108F10873
S11302D0D701C60189539F4FAF4FBF4F8F3891400D
S11302E0A105B10518F4C12CD12C7601EF85F8894C
S11302F020813181EF89F88D808191812817390718
S113030028F4E985FA8581E0099507C082179307E7
S113031020F4E985FA8580E00995EF85F8898081E4
S11303209181A0E0B0E0EF89F88D4081518160E0D7
S113033070E00D8D1E8D2F8D38A14A015B01801A4E
S1130340910AA20AB30A88159905AA05BB05FCF40B
S113035028E3C2162FEFD206E206F20684F48B8D50
S11303608F5F8B8F823058F0EB89FC8981E080832A
S1130370EF81F8850995EB81FC8109952FC089EC03
S1130380C816D104E104F1044CF11B8E27C0400FC0
S1130390511F621F731F481759076A077B07F4F43C
S11303A0E9ECCE16D104E104F10484F08B8D8F5F67
S11303B08B8F823058F0EB89FC8981E08083EF8158
S11303C0F8850995EB81FC81099508C0F8E3CF16FF
S11303D0FFEFDF06EF06FF060CF41B8ECD28CE28B8
S11303E0CF28A9F4E98DFA8D8081811110C08C8DFC
S11303F08F5F8C8F823060F0EB89FC8981E0808391
S1130400EF81F8850995EB81FC81099501C01C8E6B
S1130410ED89FE89A989BA898D919C918083918304
S1130420DF91CF911F910F91FF90EF90DF90CF90CC
S1130430BF90AF909F908F9008958091C765882357
S1130440B9F180914F60909150602091C1653091D5
S1130450C265820F931F9C012E5131092D32314008
S113046020F480934F609093506080914A60909103
S11304704B602091C3653091C465821B930B8B350F
S1130480910520F480934A6090934B608FEF95EA36
S11304902EE0815090402040E1F700C0000085E24A
S11304A090E60E94DD0080E090E60E94DD00089561
S11304B08091DA65803148F00E94880084E190E000
S11304C080934A6090934B600895A4EDB5E68D91B6
S11304D09C911197EAE4F0E68583968312968D91B8
S11304E09C9113978083918385E290E60E94DD00BE
S11304F080E090E60E94DD000895E0E0F6E087E009
S1130500818381E082838083089595E09093B00095
S1130510809308060895813039F482E08093B00016
S113052081E080930806089581E08093B0008FE114
S1130530809308060895813039F482E08093B000F6
S113054080E180930806089581E08093B00086E0FE
S11305508093080608951092B00084E480930806FE
S1130560089581E080930A0680910D0680FFFCCFF8
S1130570E0E0F6E081E08587808991899295829513
S11305808F7089279F70892708950E94AB020E946B
S1130590B102BC0180E090E00E94A60F20E030E0B0
S11305A040E85EE30E9434100E94770FCB01089567
S11305B06BE080E890E00E947D1563E080E690E0C7
S11305C00E947D158091650080FDFCCF08952F92D7
S11305D03F924F925F926F927F928F929F92AF92CF
S11305E0BF92CF92DF92EF92FF920F931F93CF931C
S11305F0DF93CDB7DEB72B97CDBFDEBFC22EB32EB0
S1130600A42E952E862E772E682E592EF22E032F89
S1130610142F5A876983B72FD82EE92EE0E0F0E033
S113062014C031962F2D302F412F5A8569817B2F8D
S11306308D2D9E2D08E00E942011F22E032F142FE1
S11306405A876983B72FD82EE92E2F2D302F412FAB
S11306505A8569817B2F8D2D9E2DA0E00E94481123
S113066001F78FEF8A87CB86B9824A2C392C282C44
S11306701AC08D01000F111F000F111F000F111F51
S11306802B853981442D532D622D772D862D952D63
S11306900E9420118A848226912CF401EA54FC4998
S11306A080818A87FD01DF011197EF2B11F78A857D
S11306B02B96CDBFDEBFDF91CF911F910F91FF909D
S11306C0EF90DF90CF90BF90AF909F908F907F90EE
S11306D06F905F904F903F902F9008950F93CF931A
S11306E0C22F0E94E702801302C08C2F01C080E059
S11306F0CF910F910895AC0120E030E0EFEF0BC0F3
S1130700DA01A20FB31F9C91E927F0E0EA54FC49F7
S1130710E0812F5F3F4F2930310590F3E61711F048
S113072080E008958E2F08950F93CF93DF93FC01FB
S113073020E030E040E050E060E070E080E090E0F5
S11307403AC004E00E940511E0EDEC0FEA3070F4C9
S1130750D0E0E097ED2FEE0FEE0B2C2B3D2B4E2B24
S11307605E2B6E2B7E2B8E2B9E2B24C0EFEBEC0F7F
S1130770E63070F4D0E0E797ED2FEE0FEE0B2C2B64
S11307803D2B4E2B5E2B6E2B7E2B8E2B9E2B12C065
S1130790EFE9EC0FE630A8F4D0E0C755D109ED2F0E
S11307A0EE0FEE0B2C2B3D2B4E2B5E2B6E2B7E2B4C
S11307B08E2B9E2BFD01DF011196C081C111C1CF8B
S11307C008C020E030E040E050E060E070E080E00D
S11307D090E0DF91CF910F9108957F928F929F9235
S11307E0AF92BF92CF92DF92EF92FF920F931F933B
S11307F0CF93DF93CDB7DEB76997CDBFDEBF6C0172
S11308004EE050E066EB74E60E94A012892B21F4BE
S113081081E08093A865DCC085E0E3E9F3E6DE01CE
S1130820559601900D928A95E1F74FE050E0B6019C
S1130830CE0101960E94AE12188ACE0101960E9442
S11308409403722E832E942EA52EB62EE72EF82E08
S1130850192F42E050E0B601615F7F4FCE0101964F
S11308600E94AE121B8240E150E060E070E0CE01D5
S113087001960E946811062F272D382D492D5A2DD7
S11308806B2D7E2D8F2D912F0E946E03811169C0D7
S11308909CC05E0180E1A80EB11C85E0F5011192B7
S11308A08A95E9F7E5E1F0E0EC0FFD1FE10FF11D9A
S11308B0E080F12CA701B601C5010E948712F50161
S11308C0EE0DFF1D1082123029F128F4112341F09E
S11308D0113099F042C0133051F11430A9F13DC0E8
S11308E040E150E060E070E0CE0140960E94681163
S11308F060939A6570939B6530C040E150E060E07E
S113090070E0CE0140960E94681160939E657093DA
S11309109F6523C040E150E060E070E0CE01409666
S11309200E9468116093A0657093A16516C040E1B0
S113093050E060E070E0CE0140960E946811609340
S1130940A2657093A36509C040E150E060E070E0E7
S1130950CE0140960E946811062FCE0CDF1C1F5F4B
S113096002C010E000E0153008F493CFE8E9F5E6A2
S1130970228133813695279536952795ABE7B4E1E7
S11309800E94F610969587958083918326813781FE
S113099036952795369527950E94F6109695879556
S11309A084839583802F8170848701FB882780F955
S11309B0858702FB882780F9868703FB002700F9D7
S11309C00787108A128A118A03C081E08093AA657E
S11309D06996CDBFDEBFDF91CF911F910F91FF903C
S11309E0EF90DF90CF90BF90AF909F908F907F90CB
S11309F00895FF920F931F93CF93DF93CDB7DEB784
S1130A006197CDBFDEBFFE01319681E1DF011D920A
S1130A108A95E9F7E8E9F5E6118A138A10E0F12CE2
S1130A2000E003C0FF24F39400E00E94A20B909125
S1130A30A965992339F01F5F133021F481E0809375
S1130A40AB652CC0FF2039F18E33D9F4E1E0F0E03E
S1130A50EC0FFD1FE00FF11D10826FEA75E6CE0169
S1130A6001960E949012892B21F0CE0101960E94DA
S1130A70ED03BE016F5F7F4F8FEA95E60E949912E6
S1130A800DC0013140F4E1E0F0E0EC0FFD1FE00F98
S1130A90F11D80830F5F8C3341F6C4CF6196CDBFC7
S1130AA0DEBFDF91CF911F910F91FF900895E0EE8B
S1130AB0F5E081E18283168283E0878382E0818787
S1130AC0E0E0F4E08CED818382E2828388E0818B34
S1130AD0848B858BE0E4F4E09189987F918B9189F4
S1130AE09460918B9189977F918B9289987F928B57
S1130AF092899460928B9289977F928B91E09183F3
S1130B009CE290936104E0EAF4E09EE0918390E338
S1130B109283848B858B0895E0E0F9E082E0808302
S1130B2085E0868381E083838583089590E0880F40
S1130B30991F862B8093070948E853E160E070E031
S1130B4009C0415051096109710921F483E080937E
S1130B50040905C080910509807C99F380E0909197
S1130B60050994FD81E0909105099C7009F082E0EB
S1130B70882319F093E0909304098093C065089545
S1130B80282F9091050994FD02C080E001C081E006
S1130B90909105099C7009F082E0882319F093E094
S1130BA090930409811114C02093080948E853E183
S1130BB060E070E009C0415051096109710921F4F4
S1130BC083E08093040904C09091050996FFF3CF54
S1130BD08093C0650895CF93DF93C62FD42F60E030
S1130BE00E949605811108C08C2F0E94C0058111B6
S1130BF003C08D2F0E94C005E0E0F9E0848183608A
S1130C008483DF91CF91089580910804869591E0C3
S1130C108927817008950E940406882361F08091D9
S1130C20C66581110DC0E1ECF5E6868191E0892766
S1130C308683958308958091C66581111092C66557
S1130C4008950F931F93CF93DF938EE10E94850243
S1130C500E94B102985004EF11E0B8010E94A11063
S1130C60C1ECD5E6688379838DE10E9485020E94F8
S1130C70B1029850B8010E94A1106A837B830E943C
S1130C8004068C83DF91CF911F910F910895809179
S1130C90C3659091C465181619061CF421E02093CD
S1130CA0EC65992314F41092EC6508958091CC6559
S1130CB081110BC084E08093660488E28A95F1F781
S1130CC0E9ECF5E681E08383148208958091CD6593
S1130CD081110BC084E08093650488E28A95F1F762
S1130CE0E9ECF5E681E08483138208958091CA6576
S1130CF081110DC0E0E0FAE081818061818380810F
S1130D0081608083E9ECF5E681E0818312820895B5
S1130D108091CB65811119C0E0E0FAE081818F7E7A
S1130D20818380818E7F808388E0809366042FEFA7
S1130D308EE994E2215080409040E1F700C0000029
S1130D40E9ECF5E681E0828311820895CF939091D6
S1130D50C965981799F0C82F0E948806CC2321F002
S1130D6080E28093650403C080E28093660488E295
S1130D708A95F1F70E947606C093C965CF910895CC
S1130D8062E380E29EE40E94610A84E08093650449
S1130D90089580E00E948B020E94B102BC0180E0B1
S1130DA090E00E94A60F2AE939E949E95DE30E942F
S1130DB0341023E83DED4CE75FE30E9434100E94B9
S1130DC0770FCB010895CF93DF9381E00E948B02CC
S1130DD00E94B102EC010E94C5029E01281B390B3E
S1130DE0C90199230CF40396959587959595879554
S1130DF0DF91CF9108950E94D8020E9457050E9466
S1130E00C0060E94270A0E948C050E947D020E944F
S1130E10500B0E94970B0E94BE080E9405092FEFF9
S1130E2088EF95E1215080409040E1F700C0000038
S1130E300E94F9040E945E080E945E080E94F90460
S1130E400E941D020E94A00CF7CF813051F028F0BF
S1130E50823059F0833069F0089581E0809345042D
S1130E60089581E080934604089580E48093050406
S1130E70089580E4809306040895AF92BF92CF92C0
S1130E80DF92EF92FF920F931F93CF93DF93CDB72F
S1130E90DEB7A697CDBFDEBF7C0186E0E8E9F3E6C6
S1130EA0DE01119601900D928A95E1F742E150E03E
S1130EB0B701CE0107960E94AE12198EFE017996F3
S1130EC089E0DF011D928A95E9F7D12C27C00D2D09
S1130ED010E0C801880F991FE7E0F0E0EC0FFD1F58
S1130EE0E80FF91F20812AA30196E7E0F0E0EC0F58
S1130EF0FD1FE80FF91F80818BA31CA240E150E085
S1130F0060E070E0CE0182960E946811E9E1F0E0B1
S1130F10EC0FFD1FE00FF11F6083D394B8E0BD1503
S1130F20B0F642E050E0B7016E5E7F4FCE01079607
S1130F300E94AE12198640E150E060E070E0CE01FC
S1130F4007960E946811CE0149960E947B03811185
S1130F509BC0A3C05E01E2E2AE0EB11C85E0D501E8
S1130F601D928A95E9F7E1E0F0E0EC0FFD1FE10F37
S1130F70F11DC080D12CA601B701C5010E948712C2
S1130F80F501EC0DFD1D1082123009F43FC028F468
S1130F90112361F0113011F173C0143009F459C0F8
S1130FA008F44CC0153009F45FC06AC040E150E059
S1130FB060E070E0CE0182960E9468119B01369534
S1130FC0279536952795ABE7B4E10E94F6109695E0
S1130FD087958093D4659093D56552C040E150E0E5
S1130FE060E070E0CE0182960E9468119B01369504
S1130FF0279536952795ABE7B4E10E94F6109695B0
S113100087958093D6659093D7653AC040E150E0C8
S113101060E070E0CE0182960E9468119B013695D3
S1131020279536952795ABE7B4E10E94F61096957F
S113103087958093D8659093D96522C040E150E0AC
S113104060E070E0CE0182960E9468116093DA65D8
S113105017C040E150E060E070E0CE0182960E944B
S113106068116093DB650CC040E150E060E070E023
S1131070CE0182960E9468116093DC657093DD65F1
S1131080EC0CFD1C1F5F01C010E0163008F462CFA9
S1131090E4EDF5E61486138603C081E08093E065F1
S11310A0A696CDBFDEBFDF91CF911F910F91FF9028
S11310B0EF90DF90CF90BF90AF900895FF920F9381
S11310C01F93CF93DF93CDB7DEB76497CDBFDEBF59
S11310D0FE01319684E1DF011D928A95E9F7E4ED82
S11310E0F5E61286138610E0F12C00E00E945D0BF9
S11310F09091DF65992339F01F5F133021F481E06B
S11311008093DE6526C0FF20D9F08D3779F481E025
S11311100E942507E1E0F0E0EC0FFD1FE00FF11D58
S11311201082CE0101960E943D0713C0043140F4A1
S1131130E1E0F0E0EC0FFD1FE00FF11D80830F5F95
S11311408B37A1F680E00E942507FF24F39400E08A
S1131150CDCF6496CDBFDEBFDF91CF911F910F91AC
S1131160FF900895482F60E08CE30E94EB050895FA
S1131170482F60E48CE30E94EB050895CF9360E070
S11311808CE30E949605C0E008C0EC2FF0E0E7581D
S1131190FC4980810E94C005CF5FCA31B0F3CF9172
S11311A008951F93CF93DF93D82F80EE8D0F803651
S11311B028F0D03B19F0D03C08F4D0E2D03B21F029
S11311C0D03C20F410E203C010E501C01FE5C0E0EC
S11311D013C08D2F90E0811B9109FC01EE0FFF1FBE
S11311E0EE0FFF1FE80FF91FEC5AFF49EC0FF11D3A
S11311F080810E94B808CF5FC53058F380E00E9418
S1131200B808DF91CF911F9108950F931F93CF9347
S1131210DF9300E010E016C080EB800F0E94B2085C
S113122080E00E94B20880E10E94B208C0E0D0E0F1
S113123004C080E00E94B8082196C038D105CCF3E0
S11312400F5F1F4F083011053CF3DF91CF911F91C1
S11312500F9108950F931F93CF93DF938C01D62F93
S1131260C0E005C00E94D1080F5F1F4FCF5FF80197
S11312708081882339F0CD17A8F304C080E20E944E
S1131280D108CF5FCD17D0F3DF91CF911F910F918C
S113129008950F931F93CF93DF938C01262FC42FB0
S11312A080E890E0841B910966E070E00E94A11040
S11312B0D62F822F806B0E94B2088C2F82958F705C
S11312C080610E94B2088C2F8F700E94B2086D2F2B
S11312D0C8010E942A09DF91CF911F910F910895AF
S11312E0AC0190E001C09F5FFA01E90FF11D20817C
S11312F02111F9CF892F880F980F292F220F6130E0
S113130019F0623069F00FC080E890E0AC01421B34
S11313105109CA0199230CF401969595879508956E
S113132080E8821B089580E008951F93CF93DF9394
S1131330EC01162F642F0E947009482F612FCE01F3
S11313400E944909DF91CF911F910895CF93DF93B4
S1131350CDB7DEB7E297CDBFDEBF9E01255C3F4F20
S11313604FA958AD62E370E0CE0101960E94BD1210
S11313704AAD69ADCE0101960E949509E296CDBFB2
S1131380DEBFDF91CF9108958091E465811111C092
S113139082E08093A6042FEF88EF95E121508040EE
S11313A09040E1F700C00000E1EEF5E681E08383C0
S11313B0148208958091E565811108C082E08093CC
S11313C0A504E1EEF5E681E084831382089580911B
S11313D0E26581110EC080918E0B80FFFCCFE0E8A6
S11313E0FBE0808181608083E1EEF5E681E081832A
S11313F0128208958091E36581110EC080918E0B55
S113140080FFFCCFE0E8FBE080818E7F8083E1EE0B
S1131410F5E681E0828311820895CF939091E1658E
S1131420981799F0C82F0E94FA09CC2321F088E07C
S11314308093A50403C088E08093A60488E18A957C
S1131440F1F70E94E709C093E165CF91089542E363
S113145060E078EC80E090E00E94F10A089580E07A
S11314600E949B020E94B102BC0180E090E00E94B5
S1131470A60F2FE832EC45E35EE30E94341026E623
S113148036E646E85FE30E9434100E94770FCB01F2
S11314900895CF93DF9381E00E949B020E94B102E2
S11314A0EC010E94C5029E01281B390BC901992336
S11314B00CF403969595879595958795DF91CF9133
S11314C008958F929F92AF92BF92CF92DF92EF9244
S11314D0FF920F931F93CF93DF93CDB7DEB7689737
S11314E0CDBFDEBF7C01C62E80E1EEE9F3E6DE016E
S11314F0119601900D928A95E1F788E0EEEAF3E601
S1131500DE01519601900D928A95E1F7D12C38C0F5
S11315100D2D10E0F801EE0FFF1F81E090E08C0F1D
S11315209D1FE80FF91F2081318140E050E060E009
S113153076E38EE691E00E94D7104701A12CB12CEE
S1131540CA01B901A50194010E94B510DA01C901CB
S11315500197A109B109BA01A901425051096109D0
S113156071094F3F51056105710548F4F82EE1E119
S1131570F0E0EC0FFD1FE00FF11F108106C0D394C3
S113158097E09D1528F6F12C10E02F2D30E0AC2DBE
S1131590B0E00E94F61024E630E040E050E00E9403
S11315A0B510F21608F42F2D83E08093E705E0E0F0
S11315B0FAE081E0838380E18183F7A221A71160AF
S11315C010836896CDBFDEBFDF91CF911F910F913D
S11315D0FF90EF90DF90CF90BF90AF909F908F904F
S11315E00895CF92DF92EF92FF920F931F93CF93C0
S11315F0DF93142FDC01CB01880F991FAA1FBB1F97
S1131600880F991FAA1FBB1F9C01AD01220F331F16
S1131610441F551F60E076E38EE691E00E94B5100A
S1131620E9012197612F70E080E090E00E94A80F0B
S113163020E030E048EC52E40E94050F6B017C018D
S1131640BE0180E090E00E94A60FA70196010E94CF
S113165034100E94770F6F5F7F4FCE01861B970B6C
S1131660019700E81BE0F801C6A7D7A784A795A7B0
S113167060A771A760E482E99BE00E947D1583E086
S1131680F801818368E680E89BE00E947D15DF9184
S1131690CF911F910F91FF90EF90DF90CF9008951D
S11316A0E0E0F8E083E896E08087918781E0858335
S11316B082EC868383E087830895FF920F931F93C0
S11316C0CF93DF9380E8809304086894FF24F5F8AF
S11316D00FEB12E0D0E0C0E0B0E0F0E0E0E01BC0CF
S11316E02F2D302F412F5D2F6C2F7B2F8F2F9E2F6F
S11316F0AFEF0E943C11F22E032F142FD52FC62FCB
S1131700B72FF82FE92FA0E00E94481121F481E0BF
S11317108093DF6504C08091040888230CF78091CE
S11317200008DF91CF911F910F91FF900895E0E29F
S1131730F8E081EA91E08087918782E8868383E0FC
S11317408783089580E88093240880EA97EFA3E0D4
S1131750B0E008C00197A109B10921F481E08093A8
S1131760A96504C0209124082223A4F780912008AD
S113177008951F93CF93DF93CDB7DEB76697CDBFA0
S1131780DEBF182FFE01319686E1DF011D928A9596
S1131790E9F78091ED6581130E940509112321F079
S11317A0113009F46BC0C2C0AAE4B0E68D919C91DB
S11317B0119789839A83E8E9F5E6808191818B8387
S11317C09C8315968D919C9116978D839E8384811D
S11317D095818F8398878091C76590E089879A87E0
S11317E0828990E08B879C87808990E08D879E8793
S11317F0838990E08F87988B848990E0898B9A8B7A
S1131800858990E08B8B9C8B20E018C0822F90E020
S1131810FC013196EE0FFF1FE451FA4940815181DA
S1131820880F991FE1E0F0E0EC0FFD1FE80FF91FAE
S1131830808191814817590729F42F5F2A3030F3AA
S113184080E001C081E090E016C0292F30E0F9016A
S1131850EE0FFF1F41E050E04C0F5D1FE40FF51F3A
S113186040815181F9013196EE0FFF1FE451FA498D
S1131870408351839F5F9A3040F359C0E8E9F5E60D
S11318808085918589839A83828593858B839C83C4
S1131890E1EEF5E6858196818D839E83878190852F
S11318A08F839887E9ECF5E68581968189879A8705
S11318B0878190858B879C8720E018C0822F90E0D9
S11318C0FC013196EE0FFF1FE451FA49408151812A
S11318D0880F991FE1E0F0E0EC0FFD1FE80FF91FFE
S11318E0808191814817590729F42F5F263030F3FE
S11318F080E001C081E090E016C0292F30E0F901BA
S1131900EE0FFF1FA1E0B0E0AC0FBD1FEA0FFB1FFD
S113191040815181F9013196EE0FFF1FE451FA49DC
S1131920408351839F5F963040F301C080E0109361
S1131930ED656696CDBFDEBFDF91CF911F9108950F
S1131940CF92DF92EF92FF920F931F93CF93DF9387
S11319500E9421068091C765811102C00E9447063A
S11319600E940B068091EC65882321F0813009F4F4
S1131970C4C042C280E00E94B90B882309F43CC26F
S11319808091C765882319F085EC94E602C081ED47
S113199094E69F938F93C1E0CF931F9283E195E6E2
S11319A09F938F930E94A609CF93CF9381EF94E6E0
S11319B09F938F930E94A6098091AD652DB73EB782
S11319C0265F3F4F2DBF3EBF882319F0EDEDF4E6AF
S11319D002C0E1EEF4E68091AC65882319F065EE6F
S11319E074E602C061EE74E68091AB65882319F059
S11319F049EE54E602C041EE54E68091A86588237E
S1131A0019F02DEE34E602C021EE34E68091AA6589
S1131A10882319F08AEE94E602C082EE94E6FF93DE
S1131A20EF937F936F935F934F933F932F939F9382
S1131A308F931F926894DD24D1F8DF9287E095E6B6
S1131A409F938F930E94A60981E08F9383E08F93E5
S1131A5081EF94E69F938F930E94A6091F92C4E09E
S1131A60CF9386E195E69F938F930E94A6090F2E4C
S1131A70F8E9EF2EF5E6FF2EF02DD70111968C91A3
S1131A8011978F938C918F930AE410E6F80181816A
S1131A908F9380818F93DF92CF93C1E2D5E6DF935A
S1131AA0CF930E94A6091F920F2EF5E0CF2EF02DA2
S1131AB0CF928AE295E69F938F930E94A6098DB7F1
S1131AC09EB782968DBF9EBFD70115968C911597B0
S1131AD08F9314968C918F93F80186818F938581CF
S1131AE08F93DF92CF92DF93CF930E94A6098DB795
S1131AF09EB708968DBF9EBF7FC181E00E94B90B3F
S1131B00882309F479C11F921F9283E395E69F937A
S1131B108F930E94A609C8E9D5E6488559859A019C
S1131B20ADECBCEC0E94F61096958795969587953A
S1131B30969587959C01220F331F880F991F880F54
S1131B40991F880F991F820F931FDA01A81BB90BE5
S1131B50CD019F93AF939A01ADECBCEC0E94F610BB
S1131B609695879596958795969587959F938F9348
S1131B7082E08F931F9280E495E69F938F930E9457
S1131B80A6091F9281E08F9389E495E69F938F9332
S1131B900E94A6094A855B859A0136952795369554
S1131BA02795ABE7B4E10E94F6109695879564E615
S1131BB0689F9001699F300D1124CA01821B930B09
S1131BC09C0122F422273327281B390B3F932F93A0
S1131BD09A013695279536952795ABE7B4E10E948F
S1131BE0F610969587959F938F93C2E0CF93D1E09B
S1131BF0DF9386E595E69F938F930E94A609DF9372
S1131C00CF9381EF94E69F938F930E94A6091F922E
S1131C10D3E0DF938FE595E69F938F930E94A60907
S1131C2001EE15E6F801458156812DB73EB7205ED9
S1131C303F4F2DBF3EBF9A01ADECBCEC0E94F610A5
S1131C409695879596958795969587959C01220FED
S1131C50331F880F991F880F991F880F991F820FB0
S1131C60931FDA01A81BB90BCD019F93AF939A017F
S1131C70ADECBCEC0E94F6109695879596958795E9
S1131C80969587959F938F93CF93DF9380E495E602
S1131C909F938F930E94A6091F9284E08F938DE6F1
S1131CA095E69F938F930E94A609D8011796ED910C
S1131CB0FC911897CF0164E670E00E94A1109C018A
S1131CC0992324F422273327281B390B3F932F937E
S1131CD0C4E6D0E0CF01BE010E94A1107F936F93B0
S1131CE06894EE24E1F8EF9284E08F9386E595E61C
S1131CF09F938F930E94A60981E08F9385E08F9331
S1131D0081EF94E69F938F930E94A6091F920F2E52
S1131D10F6E0FF2EF02DFF928CE795E69F938F93CC
S1131D200E94A60909EC15E6F801458156819A013D
S1131D30ADECBCEC0E94F610969587959695879528
S1131D40969587959C01220F331F880F991F880F42
S1131D50991F880F991F820F931F9A01281B390B13
S1131D60C9019F932F939A010E94F6109695879527
S1131D7096958795969587959F938F93EF92FF926B
S1131D8080E495E69F938F930E94A6098DB79EB732
S1131D9084968DBF9EBF1F9287E08F9389E895E656
S1131DA09F938F930E94A609D8011796ED91FC91F9
S1131DB01897CF01BE010E94A1109C01992324F41D
S1131DC022273327281B390B3F932F93CF0164E637
S1131DD070E00E94A1107F936F9382E08F9387E05D
S1131DE08F9386E595E69F938F930E94A609EDB79E
S1131DF0FEB73C96EDBFFEBFDF91CF911F910F91CF
S1131E00FF90EF90DF90CF9008950E94190F0C94EB
S1131E10FA0F0E94F30F58F00E94EC0F40F029F4DF
S1131E205F3F29F00C94E30F51110C942E100C9485
S1131E30E90F0E940B1068F39923B1F3552391F332
S1131E40951B550BBB27AA2762177307840738F025
S1131E509F5F5F4F220F331F441FAA1FA9F335D082
S1131E600E2E3AF0E0E832D091505040E695001C36
S1131E70CAF72BD0FE2F29D0660F771F881FBB1FF0
S1131E80261737074807AB07B0E809F0BB0B802DCE
S1131E90BF01FF2793585F4F3AF09E3F510578F0FA
S1131EA00C94E30F0C942E105F3FE4F3983ED4F3AC
S1131EB0869577956795B795F7959F5FC9F7880FCE
S1131EC0911D9695879597F90895E1E0660F771F20
S1131ED0881FBB1F621773078407BA0720F0621BB1
S1131EE0730B840BBA0BEE1F88F7E09508950E94DC
S1131EF0131088F09F5798F0B92F9927B751B0F075
S1131F00E1F0660F771F881F991F1AF0BA95C9F779
S1131F1014C0B13091F00E942D10B1E008950C94DA
S1131F202D10672F782F8827B85F39F0B93FCCF38D
S1131F30869577956795B395D9F73EF490958095F6
S1131F40709561957F4F8F4F9F4F0895E89409C016
S1131F5097FB3EF490958095709561957F4F8F4FD8
S1131F609F4F9923A9F0F92F96E9BB279395F695EE
S1131F70879577956795B795F111F8CFFAF4BB0F6C
S1131F8011F460FF1BC06F5F7F4F8F4F9F4F16C0D0
S1131F90882311F096E911C0772321F09EE8872F5A
S1131FA0762F05C0662371F096E8862F70E060E016
S1131FB02AF09A95660F771F881FDAF7880F96958F
S1131FC0879597F9089597F99F6780E870E060E036
S1131FD008959FEF80EC089500240A9416161706BE
S1131FE018060906089500240A9412161306140606
S1131FF005060895092E0394000C11F4882352F069
S1132000BB0F40F4BF2B11F460FF04C06F5F7F4F20
S11320108F4F9F4F089557FD9058440F551F59F007
S11320205F3F71F04795880F97FB991F61F09F3FC1
S113203079F087950895121613061406551FF2CFEA
S11320404695F1DF08C0161617061806991FF1CF3A
S113205086957105610508940895E894BB27662761
S11320607727CB0197F908950E9447100C94FA0F33
S11320700E94EC0F38F00E94F30F20F0952311F02A
S11320800C94E30F0C94E90F11240C942E100E946D
S11320900B1070F3959FC1F3950F50E0551F629F8D
S11320A0F001729FBB27F00DB11D639FAA27F00DAD
S11320B0B11DAA1F649F6627B00DA11D661F829FD4
S11320C02227B00DA11D621F739FB00DA11D621FB9
S11320D0839FA00D611D221F749F3327A00D611DD6
S11320E0231F849F600D211D822F762F6A2F1124B8
S11320F09F5750409AF0F1F088234AF0EE0FFF1FEB
S1132100BB1F661F771F881F91505040A9F79E3F41
S1132110510580F00C94E30F0C942E105F3FE4F310
S1132120983ED4F3869577956795B795F795E79597
S11321309F5FC1F7FE2B880F911D9695879597F9A0
S1132140089597FB072E16F4009407D077FD09D065
S11321500E94541107FC05D03EF4909581959F4F41
S11321600895709561957F4F0895A1E21A2EAA1BD8
S1132170BB1BFD010DC0AA1FBB1FEE1FFF1FA21733
S1132180B307E407F50720F0A21BB30BE40BF50B30
S1132190661F771F881F991F1A9469F760957095B9
S11321A0809590959B01AC01BD01CF010895052E4A
S11321B097FB1EF400940E94EE1057FD07D00E9476
S11321C0B51007FC03D04EF40C94EE1050954095D6
S11321D0309521953F4F4F4F5F4F089590958095CF
S11321E0709561957F4F8F4F9F4F0895A29FB001C7
S11321F0B39FC001A39F700D811D1124911DB29F37
S1132200700D811D1124911D08950F93083090F0D5
S1132210982F872F762F652F542F432F322F222765
S11322200850F4CF220F331F441F551F661F771F1A
S1132230881F991F0A95B2F70F91089597FB10F81C
S1132240169400080F93083098F00850232F342F69
S1132250452F562F672F782F892F902DF4CF059473
S113226097958795779567955795479537952795CA
S11322700A95AAF70F9108950024A7FD00942A0F48
S1132280301D401D501D601D701D801D901D089542
S11322900024A7FD00942A17300540055005600569
S11322A07005800590050895AA1BBB1B51E107C06A
S11322B0AA1FBB1FA617B70710F0A61BB70B881FD2
S11322C0991F5A95A9F780959095BC01CD01089561
S11322D0A0E0B0E0EEE6F1E10C949F155C016B0127
S11322E07A016115710519F0FB0180839183E11472
S11322F0F10429F0C7010297839708F0E5C0E501CE
S11323002196F5011081812F90E00E947E12892B85
S113231011F05E01F4CF1D3229F42196F5011181EB
S113232001E007C01B3221F4E5012296F501118179
S113233000E0E114F10409F1F0E1EF16F10429F4ED
S11323403FC010E3E114F10421F128E0E216F104A6
S113235001F154F4E2E0EE16F10421F5812C912C04
S1132360A12CB0E4BB2E3EC0FAE0EF16F10439F024
S113237020E1E216F104B1F430C0103319F1FAE0AF
S1132380EF2EF12CACEC8A2E982CA82CACE0BA2EB3
S113239029C078E0E72EF12C812C912CA12CE0E1CE
S11323A0BE2E20C060E070E080E090E897010F2C22
S11323B0000C440B550B0E94B51049015A0112C080
S11323C0103359F488818F7D883509F0BACF19818B
S11323D02296026080E1E82EF12C812C912CA12C14
S11323E068E0B62E40E060E070E0CB0127010F2CDE
S11323F0000C66087708FE0150ED352E310E29E0F9
S1132400231570F42FEB210F2A3118F439EC332EF5
S113241006C02FE9210F2A3118F529EA322E310E90
S1132420232D30E02E153F05DCF447FD16C086163B
S11324309706A806B90670F0A30192010E948315BD
S1132440630D711D811D911D61307105810520E8A9
S1132450920710F04FEF01C041E021961081CBCFDD
S1132460202F2170C114D10471F0442329F0219745
S1132470F601C083D18307C001FF19C02297F6017A
S1132480C083D18314C047FF12C0222329F060E027
S113249070E080E090E804C06FEF7FEF8FEF9FE77C
S11324A022E230E0209304663093056609C02223BB
S11324B081F090958095709561957F4F8F4F9F4FD8
S11324C0462F372F282F12C040E030E020E090E064
S11324D00DC097FFF5CF82E290E08093046690935D
S11324E005666FEF7FEF8FEF9FE7EACF642F732FBF
S11324F0822FCDB7DEB7E1E10C94B81591110C949D
S1132500CA14803219F089508550C8F70895FB0128
S1132510DC0102C001900D9241505040D8F708955B
S1132520FB01DC018D91019080190110D9F3990B05
S11325300895FB01DC0101900D920020E1F708955C
S1132540FB01DC014150504030F08D910190801925
S113255019F40020B9F7881B990B0895FB01DC01DD
S11325604150504048F001900D920020C9F701C03D
S11325701D9241505040E0F70895AEE0B0E0E3EC26
S1132580F2E10C94AC158C01FA0186E08C8309838A
S11325901A8377FF02C060E070E8CB0101978D8356
S11325A09E83A901BF01CE0101960E94E9124D81CB
S11325B05E8157FD0AC02F813885421753070CF4FA
S11325C09A01F801E20FF31F10822E96E4E00C94B6
S11325D0C515ABE0B0E0EFEEF2E10C949E156C0192
S11325E07B018A01FC0116821782838181FFCCC1A1
S11325F0CE0101963C01F6019381F70193FD85918B
S113260093FF81917F01882309F4BAC1853239F49B
S113261093FD859193FF81917F01853229F4B60161
S113262090E00E94E314E7CF912C212C312CFFE1A0
S1132630F315D8F08B3279F038F4803279F08332A4
S1132640A1F4232D20611DC08D3261F0803369F423
S1132650232D216016C0832D8260382EE32DE46083
S11326603E2E2AC0F32DF8601DC037FC2DC020ED8E
S1132670280F2A3040F08E32B9F436FC81C1232D64
S11326802064322E19C036FE06C08AE0989E200DC2
S11326901124922E11C0EAE02E9E200D1124222E28
S11326A0F32DF0623F2E08C08C3621F4832D806810
S11326B0382E02C0883641F4F70193FD859193FFCB
S11326C081917F018111B3CF982F9F7D95549330D1
S11326D028F40C5F1F4F9FE399830DC0833631F0BC
S11326E0833771F0833509F059C021C0F801808126
S11326F089830E5F1F4F88248394912C530113C048
S11327002801F2E04F0E511CF801A080B18036FE82
S113271003C0692D70E002C06FEF7FEFC5010E9416
S1132720D8144C018201F32DFF773F2E16C02801E7
S113273022E0420E511CF801A080B18036FE03C095
S1132740692D70E002C06FEF7FEFC5010E94CD14C8
S11327504C01F32DF0683F2E820133FC1BC0822D07
S113276090E088169906B0F4B60180E290E00E94E9
S1132770E3142A94F4CFF50137FC859137FE819157
S11327805F01B60190E00E94E31421102A9421E035
S1132790821A91088114910471F7E8C0843611F00B
S11327A0893641F5F80137FE07C060817181828165
S11327B093810C5F1F4F08C060817181072E000C4C
S11327C0880B990B0E5F1F4FF32DFF763F2E97FF5B
S11327D009C090958095709561957F4F8F4F9F4F5D
S11327E0F0683F2E2AE030E0A3010E941F15882ED6
S11327F0861845C0853731F4232D2F7EB22E2AE06A
S113280030E025C0932D997FB92E8F36C1F018F48E
S1132810883579F0B5C0803719F0883721F0B0C019
S1132820E92FE061BE2EB4FE0DC0FB2DF460BF2E77
S113283009C034FE0AC0292F2660B22E06C028E043
S113284030E005C020E130E002C020E132E0F801D0
S1132850B7FE07C060817181828193810C5F1F4F35
S113286006C06081718180E090E00E5F1F4FA3017C
S11328700E941F15882E8618FB2DFF773F2E36FEEB
S11328800DC0232D2E7FA22E891458F434FE0BC0C4
S113289032FC09C0832D8E7EA82E05C0B82CA32C33
S11328A003C0B82C01C0B92CA4FE0FC0FE01E80D72
S11328B0F11D8081803321F49A2D997EA92E09C0BF
S11328C0A2FE06C0B394B39404C08A2D867809F09E
S11328D0B394A3FC11C0A0FE06C0B21488F4280C63
S11328E0922C9B180EC0B21460F4B60180E290E002
S11328F00E94E314B394F7CFB21418F42B1802C057
S1132900982C212CA4FE10C0B60180E390E00E9414
S1132910E314A2FE17C0A1FC03C088E790E002C044
S113292088E590E0B6010CC08A2D867859F0A1FEA6
S113293002C08BE201C080E2A7FC8DE2B60190E008
S11329400E94E314891438F4B60180E390E00E94F5
S1132950E3149A94F7CF8A94F301E80DF11D808172
S1132960B60190E00E94E3148110F5CF222009F40F
S113297042CEB60180E290E00E94E3142A94F6CF9E
S1132980F6018681978102C08FEF9FEF2B96E2E1DB
S11329900C94B715992788270895FC010590615078
S11329A070400110D8F7809590958E0F9F1F089561
S11329B0FC016150704001900110D8F7809590950A
S11329C08E0F9F1F08950F931F93CF93DF93FB01E7
S11329D0238121FD03C08FEF9FEF2CC022FF16C07F
S11329E046815781248135814217530744F4A081DD
S11329F0B1819D012F5F3F4F208331838C932681CA
S1132A0037812F5F3F4F2683378314C08B01EC013E
S1132A10FB010084F185E02D0995892BE1F6D801AD
S1132A2016968D919C911797019616968D939C936B
S1132A301797CE01DF91CF911F910F910895FA015D
S1132A40AA27283051F1203181F1E8946F936E7FE9
S1132A506E5F7F4F8F4F9F4FAF4FB1E03ED0B4E0DA
S1132A603CD0670F781F891F9A1FA11D680F791F1B
S1132A708A1F911DA11D6A0F711D811D911DA11D2C
S1132A8020D009F468943F912AE0269F112430193C
S1132A90305D3193DEF6CF010895462F4770405DD7
S1132AA04193B3E00FD0C9F7F6CF462F4F70405D86
S1132AB04A3318F0495D31FD4052419302D0A9F7E1
S1132AC0EACFB4E0A6959795879577956795BA95DB
S1132AD0C9F700976105710508959B01AC010A2EA1
S1132AE006945795479537952795BA95C9F7620F78
S1132AF0731F841F951FA01D0895DC0128ED2093EA
S1132B0034006C930895DB018F939F930E94931577
S1132B10BF91AF91A29F800D911DA39F900DB29F75
S1132B20900D112408950E94F610A59F900DB49F56
S1132B30900DA49F800D911D112408952F923F9212
S1132B404F925F926F927F928F929F92AF92BF92B9
S1132B50CF92DF92EF92FF920F931F93CF93DF9365
S1132B60CDB7DEB7CA1BDB0BCDBFDEBF09942A8805
S1132B70398848885F846E847D848C849B84AA848D
S1132B80B984C884DF80EE80FD800C811B81AA811A
S1132B90B981CE0FD11DCDBFDEBFED010895F894EC
S1052BA0FFCF61
S1132BA201C409DA09E709FA090D0A2F0A490A9C3C
S1132BB2659E65AD6552604F60516000000400007F
S1132BC200E665E865005606660676068806A606E9
S1132BD2C906E30698659A65AC654D604A604C6027
S1132BE2000002000000CE65D0651E00010000B4A2
S1132BF200010000000000000000005F0000000768
S1132C02000700147F147F14242A7F2A1223130836
S1132C12646236495522500005030000001C22411B
S1132C22000041221C0014083E081408083E08084B
S1132C320050300000080808080800606000002006
S1132C42100804023E5149453E00427F4000426161
S1132C525149462141454B311814127F10274545ED
S1132C6245393C4A49493001710905033649494904
S1132C7236064949291E0036360000005636000041
S1132C8208142241001414141414004122140802DA
S1132C9201510906324979413E7E1111117E7F4963
S1132CA24949363E414141227F4141221C7F4949E3
S1132CB249417F090909013E4149497A7F080808C7
S1132CC27F00417F41002040413F017F081422419F
S1132CD27F404040407F020C027F7F0408107F3E09
S1132CE24141413E7F090909063E4151215E7F0966
S1132CF2192946464949493101017F01013F4040B2
S1132D02403F1F2040201F3F4038403F63140814B7
S1132D126307087008076151494543007F41410038
S1132D2202040810200041417F0004020102044011
S1132D3240404040000307000020545454787F4828
S1132D424444383844444420384444487F38545432
S1132D525418087E090102081454543C7F080404E0
S1132D627800447D40002040443D007F1028440008
S1132D7200417F40007C041804787C0804047838FD
S1132D82444444387C14141408081414187C7C0831
S1132D920404084854545420043F4440203C404016
S1132DA2207C1C2040201C3C4030403C44281028FD
S1132DB2440C5050503C4464544C44000836410086
S1132DC200007F0000004136080008082A1C080899
S1132DD21C2A080806090906007E1111917E004189
S1132DE27FC1007E1111917E3E414141227E11112B
S1132DF2917E7E1111917E7F4949C9417F4949C91A
S1132E027F3C434243247E4A4B4A4162534A4742EF
S1132E127E4A4B4A423E4149497A7F081422410084
S1132E22417F41007F40404040444B4A4B327F0443
S1132E3208107F7F0408107F3E4141413E3E4141DC
S1132E42413E3E4141413E3E4141413E44281028DB
S1132E52443F4040C03F7F40404040444B4A4B3295
S1132E623C4141413C3C4141413C62534A474262FC
S1132E72534A47423649494936205454D478004487
S1132E827DC000205454547838444444202054547F
S1132E9254782054545478385454D41838545554CB
S1132EA218384546452038545554184465564D44FF
S1132EB23854555418081454543C7F1028440000C4
S1132EC2447D400000417F400048555655207C080F
S1132ED20404787C0804047838444444383844446C
S1132EE2443838444444383844444438003636007C
S1132EF200384040A07800417F4000485454542098
S1132F02384242227838424222784465564D44443B
S1132F1265564D44000503000000AEA83FD30040AF
S1132F222000D9F1DB40A1C8DA1281FFA4A6D5F0B2
S1132F328D14AF0404030301040404020103010019
S1132F420200040008001000400000010004000216
S1132F520406080A0C0E009BAD36C15A6CF719829E
S1132F62B42FD84375EE32A99F04F3685EC52BB023
S1132F72861DEA7147DC64FFC952A53E08937DE6CB
S1132F82D04BBC27118A56CDFB60970C3AA14FD483
S1132F92E2798E1523B8C85365FE0992A43FD14A3B
S1132FA27CE7108BBD26FA6157CC3BA0960DE378E3
S1132FB24ED522B98F14AC37019A6DF6C05BB52E8B
S1132FC2188374EFD9429E0533A85FC4F269871C43
S1132FD22AB146DDEB700B90A63DCA5167FC1289FB
S1132FE2BF24D3487EE539A2940FF86355CE20BBA3
S1132FF28D16E17A4CD76FF4C259AE35039876ED4B
S1133002DB40B72C1A815DC6F06B9C0731AA44DF02
S1133012E972851E28B3C3586EF50299AF34DA41BA
S113302277EC1B80B62DF16A5CC730AB9D06E87362
S113303245DE29B2841FA73C0A9166FDCB50BE250A
S113304213887FE4D249950E38A354CFF9628C17C2
S113305221BA4DD6E07B3030303030303030303031
S113306230303030004D616E75616C206D6F646577
S113307200204175746F206D6F64652000415345D3
S11330820020202000455345004C434500464F454F
S1133092002D2D2D2D2D2D2D2D2D2D2D2D2D2D2D87
S11330A22D2D2D2D2D2D00257320257320257320E4
S11330B2257320257300456C65766174696F6E3AD9
S11330C2002533642F2025336400417A696D7574B9
S11330D2683A00532E502E20566F6C746167650057
S11330E22533642E2530316400532E5020437572EB
S11330F272656E743A002533642E253032640053AF
S1133102742E4D2E20566F6C746167650053742EB5
S11331124D2E2043757272656E743A004C2E4D2EFC
S113312220566F6C74616765004C2E4D2E204375DA
S10B31327272656E743A00002C
S9030000FC
