S02100004156523634444433322D4D41494E2D436F6E74726F6C6C65722E7372656320
S11300000C9448000C9465000C9465000C946500F5
S11300100C9465000C9465000C9465000C946500C8
S11300200C9465000C9465000C9465000C946500B8
S11300300C9465000C9465000C9465000C946500A8
S11300400C9465000C9465000C9465000C94650098
S11300500C9465000C9465000C9465000C94650088
S11300600C9465000C9465000C9465000C94650078
S11300700C9465000C9465000C9465000C94650068
S11300800C9465000C9465000C9465000C94650058
S113009011241FBECFEFCDBFDFE7DEBF14E6A0E023
S11300A0B0E6E2E0F2E202C005900D92A83DB1078D
S11300B0D9F725E6A8EDB4E601C01D92A433B20732
S11300C0E1F70E9495050C94FF100C94000068E67B
S11300D071E00E94B10B992314F488599E4F08953E
S11300E09C01261B370BC901992324F488279927DF
S11300F0821B930B68E671E00E94B10B853B91056E
S113010034F028E631E0A901481B590BCA010895CF
S1130110CF92DF92EF92FF920F931F93CF93DF93CF
S1130120C0912A652DE2C29FE0011124CE01865AB6
S11301309F4F0E9467008C01CE018A5591090E944D
S11301406700EC01C8014E979E012E5131098D3292
S113015041E09407E8F42D323140D0F4E090E464B7
S1130160F090E564B801C7010E9470006C01BE0103
S1130170C7010E9470008C159D051CF0902F812FE3
S113018002C09C2F8D2F90930260809303600CC05B
S11301908D32914028F4009302601093036004C0F0
S11301A0C0930260D0930360DF91CF911F910F91B0
S11301B0FF90EF90DF90CF9008954F925F926F92EF
S11301C07F928F929F92AF92BF92CF92DF92EF92E3
S11301D0FF928091F164811102C16091E664709193
S11301E0E76480E090E00E948D0A2091DC64309105
S11301F0DD644091DE645091DF640E947A096B01F2
S11302007C019F772DEC3CEC4CE45EE30E94E70913
S113021088231CF4C12CD12C76016091E464709184
S1130220E5648091026090910360681B790B80E023
S113023090E00E948D0A20E030E040E850E40E9403
S1130240E7091816D4F00E9411080E94EB07E0EEAB
S1130250F4E6138A1092DB641092DA646681778183
S113026080E090E00E948D0A6093DC647093DD640A
S11302708093DE649093DF64B2C00E94DB070E9427
S1130280FB076091E4647091E56480E090E00E9473
S11302908D0A4B015C01609102607091036080E003
S11302A090E00E948D0A2B013C0120E030E040E800
S11302B050E40E947A099B01AC01C501B4010E947B
S11302C0E709882354F581E00E9427082DEC3CECD3
S11302D04CE45EEBC701B6010E94E709882384F46D
S11302E08091DB648F5F8093DB64833008F44DC0BE
S11302F081E08093F3640E9411080E94EB0745C0DB
S11303002DEC3CEC4CE45EE3C701B6010E943F0BCC
S11303101816DCF51092DB6438C020E030E040E8C9
S113032050E4C301B2010E947B099B01AC01C501E9
S1130330B4010E943F0B181644F580E00E94270880
S11303402DEC3CEC4CE45EE3C701B6010E943F0B8C
S113035018167CF48091DB648F5F8093DB648330B8
S1130360A0F081E08093F3640E9411080E94EB07DF
S11303700CC02DEC3CEC4CE45EEBC701B6010E94D2
S1130380E709882314F41092DB6420E030E0A9012B
S1130390C701B6010E94E70981110FC08091DA6498
S11303A08F5F8093DA64833050F081E08093F3644C
S11303B00E9411080E94EB0702C01092DA64609157
S11303C0E6647091E76480E090E00E948D0A609397
S11303D0DC647093DD648093DE649093DF64FF904B
S11303E0EF90DF90CF90BF90AF909F908F907F90D1
S11303F06F905F904F90089580912965803148F007
S11304000E94880084E190E08093006090930160F2
S1130410089580912B6590912C658C32914080F0E9
S1130420A3E2B5E68D919C911197E0E0F0E682831A
S1130430938312968D919C911397808391830CC022
S1130440E0E0F0E684EB90E082839383809127657B
S113045090912865808391830E94DD000895E0E0F7
S1130460F6E087E0818381E082838083089595E0CC
S11304709093B00080930806089581E080930A0663
S113048080910D0680FFFCCFE0E0F6E081E08587F7
S113049080899189929582958F7089279F70892789
S11304A008956BE080E890E00E94AD1063E080E680
S11304B090E00E94AD108091650080FDFCCF08950E
S11304C02F923F924F925F926F927F928F929F9260
S11304D0AF92BF92CF92DF92EF92FF920F931F934E
S11304E0CF93DF93CDB7DEB72B97CDBFDEBFC22E40
S11304F0B32EA42E952E862E772E682E592EF22EEC
S1130500032F142F5A876983B72FD82EE92EE0E0E2
S1130510F0E014C031962F2D302F412F5A85698178
S11305207B2F8D2D9E2D08E00E94300CF22E032F80
S1130530142F5A876983B72FD82EE92E2F2D302FE9
S1130540412F5A8569817B2F8D2D9E2DA0E00E941D
S11305504C0C01F78FEF8A87CB86B9824A2C392C51
S1130560282C1AC08D01000F111F000F111F000F3E
S1130570111F2B853981442D532D622D772D862D06
S1130580952D0E94300C8A848226912CF401E35923
S1130590FC4980818A87FD01DF011197EF2B11F758
S11305A08A852B96CDBFDEBFDF91CF911F910F912E
S11305B0FF90EF90DF90CF90BF90AF909F908F907F
S11305C07F906F905F904F903F902F9008950F937E
S11305D0CF93C22F0E946002801302C08C2F01C0EF
S11305E080E0CF910F9108950F93CF93DF93FC0197
S11305F020E030E040E050E060E070E080E090E037
S11306003AC004E00E94150CE0EDEC0FEA3070F4FF
S1130610D0E0E097ED2FEE0FEE0B2C2B3D2B4E2B65
S11306205E2B6E2B7E2B8E2B9E2B24C0EFEBEC0FC0
S1130630E63070F4D0E0E797ED2FEE0FEE0B2C2BA5
S11306403D2B4E2B5E2B6E2B7E2B8E2B9E2B12C0A6
S1130650EFE9EC0FE630A8F4D0E0C755D109ED2F4F
S1130660EE0FEE0B2C2B3D2B4E2B5E2B6E2B7E2B8D
S11306708E2B9E2BFD01DF011196C081C111C1CFCC
S113068008C020E030E040E050E060E070E080E04E
S113069090E0DF91CF910F9108957F928F929F9276
S11306A0AF92BF92CF92DF92EF92FF920F931F937C
S11306B0CF93DF93CDB7DEB7A097CDBFDEBF6C017C
S11306C04EE050E06DE674E60E94A90D892B21F4FA
S11306D081E08093F064DCC086E0E3E4F3E6DE01CD
S11306E05B9601900D928A95E1F74FE050E0B601D8
S11306F0CE0101960E94B70D188ACE0101960E9480
S1130700F402722E832E942EA52EB62EE72EF82EEA
S1130710192F42E050E0B601615F7F4FCE01019690
S11307200E94B70D1B8240E150E060E070E0CE0112
S113073001960E946C0C062F272D382D492D5A2D19
S11307406B2D7E2D8F2D912F0E94E702811169C0A0
S11307509CC05E0181E1A80EB11C8AE0F5011192F2
S11307608A95E9F7EBE1F0E0EC0FFD1FE10FF11DD5
S1130770E080F12CA701B601C5010E94900DF5019E
S1130780EE0DFF1D1082123029F128F4112341F0DF
S1130790113099F042C0133051F11430A9F13DC029
S11307A040E150E060E070E0CE0141960E946C0CA4
S11307B06093E2647093E36430C040E150E060E031
S11307C070E0CE0141960E946C0C6093E6647093D5
S11307D0E76423C040E150E060E070E0CE01419660
S11307E00E946C0C6093E8647093E96416C040E165
S11307F050E060E070E0CE0141960E946C0C609382
S1130800EA647093EB6409C040E150E060E070E09A
S1130810CE0141960E946C0C062FCE0CDF1C1F5F8C
S113082002C010E000E0163008F493CFE0EEF4E6E6
S1130830228133813695279536952795ABE7B4E128
S11308400E94060C96958795808391832681378133
S113085036952795369527950E94060C969587958B
S113086084839583802F8170848701FB882780F996
S1130870858702FB882780F9868703FB002700F918
S11308800787108A128A118A03C081E08093F26478
S1130890A096CDBFDEBFDF91CF911F910F91FF9046
S11308A0EF90DF90CF90BF90AF909F908F907F900C
S11308B00895FF920F931F93CF93DF93CDB7DEB7C5
S11308C06497CDBFDEBFFE01319684E1DF011D9246
S11308D08A95E9F71092F36410E0F12C00E003C06C
S11308E0FF24F39400E00E9463099091F364992338
S11308F039F01F5F133021F481E08093F1642CC040
S1130900FF2039F18E33D9F4E1E0F0E0EC0FFD1F64
S1130910E00FF11D108265EF74E6CE0101960E948E
S1130920990D892B21F0CE0101960E944D03BE0141
S11309306F5F7F4F85EF94E60E94A20D0DC00431D6
S113094040F4E1E0F0E0EC0FFD1FE00FF11D8083C7
S11309500F5F8C3341F6C4CF6496CDBFDEBFDF9109
S1130960CF911F910F91FF900895E0EEF5E081E1A2
S11309708283168283E0878382E08187E0E0F4E06B
S11309808CED818382E2828388E0818B848B858BEA
S1130990E0E4F4E09189987F918B91899460918B44
S11309A09289987F928B92899460928B91E0918343
S11309B09CE290936104E0EAF4E09EE0918390E38A
S11309C09283848B858B0895E0E0F9E082E0808354
S11309D085E0868381E083838583089590E0880F92
S11309E0991F862B8093070948E853E160E070E083
S11309F009C0415051096109710921F483E08093D0
S1130A00040905C080910509807C99F380E09091E8
S1130A10050994FD81E0909105099C7009F082E03C
S1130A20882319F093E09093040980931D65089539
S1130A30282F9091050994FD02C080E001C081E057
S1130A40909105099C7009F082E0882319F093E0E5
S1130A5090930409811114C02093080948E853E1D4
S1130A6060E070E009C0415051096109710921F445
S1130A7083E08093040904C09091050996FFF3CFA5
S1130A8080931D650895CF93DF93C62FD42F60E024
S1130A900E94EE04811108C08C2F0E941805811158
S1130AA003C08D2F0E941805E0E0F9E08481836083
S1130AB08483DF91CF91089580910804869591E015
S1130AC08927817008950F931F93CF93DF938EE14D
S1130AD00E9437020E943D02985004EF11E0B801D1
S1130AE00E94B10BCEE1D5E6688379838DE10E9443
S1130AF037020E943D029850B8010E94B10B6A83EC
S1130B007B830E945C058C83DF91CF911F910F91B1
S1130B10089562E380E29EE40E944908E0E6F4E07E
S1130B2088E0868384E0858308950E9451020E94B0
S1130B30B5040E9489050E9441080E94E4040E94B1
S1130B402F020E9438090E9458090E94D5060E946B
S1130B501C070E947D060E9459040E9463050E949E
S1130B60FC0100E010E6F80181818F9380818F936E
S1130B70C0EED4E689818F9388818F931F921F9250
S1130B808CE794E69F938F930E94BD07F8018381BD
S1130B908F9382818F938D818F938C818F931F92FA
S1130BA011E01F938AE894E69F938F930E94BD07F8
S1130BB08B858F938A858F9389858F9388858F936F
S1130BC01F9282E08F9388E994E69F938F930E940B
S1130BD0BD0789891F928F931F9384E08F9388EABE
S1130BE094E69F938F930E94BD0788891F928F93E9
S1130BF01F9385E08F9388EB94E69F938F930E94D5
S1130C00BD078A892DB73EB72C5D3F4F2DBF3EBF30
S1130C101F928F931F9386E08F9387EC94E69F93A4
S1130C208F930E94BD073FEF82E597E031508040EB
S1130C309040E1F700C000000F900F900F900F90CC
S1130C400F900F9086CF813051F028F0823059F008
S1130C50833069F0089581E080934504089581E02C
S1130C6080934604089580E480930504089580E405
S1130C70809306040895EF92FF921F93CF93DF931E
S1130C80CDB7DEB72C97CDBFDEBF2CE0E9E4F3E6A9
S1130C90DE01119601900D922A95E1F766ED74E656
S1130CA00E948B0D10E01CC0E12FF0E0EE0FFF1F3F
S1130CB021E030E02C0F3D1FE20FF31FE080F180B4
S1130CC04AE050E060E070E00E946C0CF701608341
S1130CD0718366ED74E680E090E00E948B0D1F5FE7
S1130CE0009711F0163000F32C96CDBFDEBFDF91D4
S1130CF0CF911F91FF90EF900895EF92FF920F9381
S1130D001F93CF93DF93CDB7DEB76B97CDBFDEBF15
S1130D10FE0131968BE1DF011D928A95E9F708EE19
S1130D2013E0E12CF12C0E9445090150110939F11D
S1130D30EE20E1F08D3779F481E00E942306E1E0B2
S1130D40F0E0EC0FFD1FEF0DF11D1082CE010196B6
S1130D500E943B0614C0BAE1BF1540F0E1E0F0E0A8
S1130D60EC0FFD1FEF0DF11D8083F3948B37D9F643
S1130D7080E00E942306EE24E394F12CD4CF6B96FA
S1130D80CDBFDEBFDF91CF911F910F91FF90EF9008
S1130D900895482F60E08CE30E9443050895482F8E
S1130DA060E48CE30E9443050895CF9360E08CE3F4
S1130DB00E94EE04C0E008C0EC2FF0E0E75DFC49BF
S1130DC080810E941805CF5FCA31B0F3CF91089596
S1130DD01F93CF93DF93D82F80EE8D0F803628F0AA
S1130DE0D03B19F0D03C08F4D0E2D03B21F0D03C09
S1130DF020F410E203C010E501C01FE5C0E013C0F9
S1130E008D2F90E0811B9109FC01EE0FFF1FEE0F67
S1130E10FF1FE80FF91FEC5FFF49EC0FF11D808104
S1130E200E94CF06CF5FC53058F380E00E94CF0602
S1130E30DF91CF911F9108950F931F93CF93DF9369
S1130E4000E010E016C080EB800F0E94C90680E02D
S1130E500E94C90680E10E94C906C0E0D0E004C037
S1130E6080E00E94CF062196C038D105CCF30F5FF5
S1130E701F4F083011053CF3DF91CF911F910F9163
S1130E8008950F931F93CF93DF938C01D62FC0E067
S1130E9005C00E94E8060F5F1F4FCF5FF8018081F5
S1130EA0882339F0CD17A8F304C080E20E94E80635
S1130EB0CF5FCD17D0F3DF91CF911F910F9108959C
S1130EC00F931F93CF93DF938C01262FC42F80E8B9
S1130ED090E0841B910966E070E00E94B10BD62F6C
S1130EE0822F806B0E94C9068C2F82958F7080613F
S1130EF00E94C9068C2F8F700E94C9066D2FC801ED
S1130F000E944107DF91CF911F910F910895AC0189
S1130F1090E001C09F5FFA01E90FF11D20812111CA
S1130F20F9CF892F880F980F292F220F613019F0DC
S1130F30623069F00FC080E890E0AC01421B5109B7
S1130F40CA0199230CF4019695958795089580E834
S1130F50821B089580E008951F93CF93DF93EC01E3
S1130F60162F642F0E948707482F612FCE010E94FD
S1130F706007DF91CF911F910895CF93DF93CDB791
S1130F80DEB7E297CDBFDEBF9E01255C3F4F4FA980
S1130F9058AD62E370E0CE0101960E94ED0D4AADBA
S1130FA069ADCE0101960E94AC07E296CDBFDEBFCB
S1130FB0DF91CF9108958091306581110BC082E05B
S1130FC08093A60480E58A95F1F7EDE2F5E681E0E9
S1130FD08383148208958091316581110BC082E06E
S1130FE08093A50480E58A95F1F7EDE2F5E681E0CA
S1130FF084831382089580912E65811111C080919C
S11310008E0B80FFFCCFE0E8FBE080818160808371
S113101080E58A95F1F7EDE2F5E681E081831282BD
S1131020089580912F65811111C080918E0B80FFEE
S1131030FCCFE0E8FBE080818E7F808380E58A95A9
S1131040F1F7EDE2F5E681E0828311820895CF9312
S113105090912D65981799F0C82F0E941108CC2300
S113106021F088E08093A50403C088E08093A6045F
S113107080E58A95F1F70E94FB07C0932D65CF9117
S1131080089542E360E079E180E090E00E94D908AD
S113109008958F929F92AF92BF92CF92DF92EF9278
S11310A0FF920F931F93CF93DF93CDB7DEB768976B
S11310B0CDBFDEBF7C01C62E80E1E5E5F3E6DE01AF
S11310C0119601900D928A95E1F788E0E5E6F3E642
S11310D0DE01519601900D928A95E1F7D12C38C02A
S11310E00D2D10E0F801EE0FFF1F81E090E08C0F52
S11310F09D1FE80FF91F2081318140E050E060E03E
S113110076E38EE691E00E94E70B4701A12CB12C17
S1131110CA01B901A50194010E94C50BDA01C901F4
S11311200197A109B109BA01A90142505109610904
S113113071094F3F51056105710548F4F82EE1E14D
S1131140F0E0EC0FFD1FE00FF11F108106C0D394F7
S113115097E09D1528F6F12C10E02F2D30E0AC2DF2
S1131160B0E00E94060C24E630E040E050E00E942B
S1131170C50BF21608F42F2D83E08093E705E0E019
S1131180FAE081E0838380E18183F7A221A71160E3
S113119010836896CDBFDEBFDF91CF911F910F9171
S11311A0FF90EF90DF90CF90BF90AF909F908F9083
S11311B00895CF92DF92EF92FF920F931F93CF93F4
S11311C0DF93142FDC01CB01880F991FAA1FBB1FCB
S11311D0880F991FAA1FBB1F9C01AD01220F331F4B
S11311E0441F551F60E076E38EE691E00E94C50B34
S11311F0E9012197612F70E080E090E00E948F0A5E
S113120020E030E048EC52E40E94EC096B017C01E0
S1131210BE0180E090E00E948D0AA70196010E9421
S1131220440B0E945E0A6F5F7F4FCE01861B970BB3
S1131230019700E81BE0F801C6A7D7A784A795A7E4
S113124060A771A760E482E99BE00E94AD1083E08F
S1131250F801818368E680E89BE00E94AD10DF918D
S1131260CF911F910F91FF90EF90DF90CF90089551
S1131270E0E0F8E083E896E08087918781E0858369
S113128082EC868383E08783089580E88093040852
S113129088EE93E0A0E0B0E004C00197A109B10991
S11312A021F0209104082223C4F7809100080895B6
S11312B0E0E2F8E081EA91E08087918782E8868322
S11312C083E08783089580E88093240880E990ED83
S11312D0A3E0B0E008C00197A109B10921F481E0BD
S11312E08093F36404C0209124082223A4F78091FE
S11312F0200808955058BB27AA270E9492090C94ED
S1131300050B0E94F70A38F00E94FE0A20F039F417
S11313109F3F19F426F40C94F40A0EF4E095E7FBCD
S11313200C94EE0AE92F0E94160B58F3BA176207C1
S113133073078407950720F079F4A6F50C94380B0D
S11313400EF4E0950B2EBA2FA02D0B01B9019001DC
S11313500C01CA01A0011124FF27591B99F0593F20
S113136050F4503E68F11A16F040A22F232F342F68
S11313704427585FF3CF469537952795A795F040B6
S11313805395C9F77EF41F16BA0B620B730B840BCB
S1131390BAF09150A1F0FF0FBB1F661F771F881F83
S11313A0C2F70EC0BA0F621F731F841F48F48795DB
S11313B077956795B795F7959E3F08F0B0CF9395CD
S11313C0880F08F09927EE0F9795879508950E9446
S11313D0CA0A08F481E008950E94000A0C94050BDF
S11313E00E94FE0A58F00E94F70A40F029F45F3F79
S11313F029F00C94EE0A51110C94390B0C94F40A54
S11314000E94160B68F39923B1F3552391F3951BAE
S1131410550BBB27AA2762177307840738F09F5F11
S11314205F4F220F331F441FAA1FA9F335D00E2E7E
S11314303AF0E0E832D091505040E695001CCAF7EB
S11314402BD0FE2F29D0660F771F881FBB1F2617AE
S113145037074807AB07B0E809F0BB0B802DBF0185
S1131460FF2793585F4F3AF09E3F510578F00C9454
S1131470EE0A0C94390B5F3FE4F3983ED4F386955F
S113148077956795B795F7959F5FC9F7880F911D75
S11314909695879597F90895E1E0660F771F881F61
S11314A0BB1F621773078407BA0720F0621B730B14
S11314B0840BBA0BEE1F88F7E09508950E941E0B6B
S11314C088F09F5798F0B92F9927B751B0F0E1F001
S11314D0660F771F881F991F1AF0BA95C9F714C0B1
S11314E0B13091F00E94380BB1E008950C94380BA0
S11314F0672F782F8827B85F39F0B93FCCF38695EA
S113150077956795B395D9F73EF490958095709546
S113151061957F4F8F4F9F4F0895E89409C097FBC3
S11315203EF490958095709561957F4F8F4F9F4FB6
S11315309923A9F0F92F96E9BB279395F6958795FA
S113154077956795B795F111F8CFFAF4BB0F11F4BD
S113155060FF1BC06F5F7F4F8F4F9F4F16C0882364
S113156011F096E911C0772321F09EE8872F762F9A
S113157005C0662371F096E8862F70E060E02AF0DB
S11315809A95660F771F881FDAF7880F96958795C7
S113159097F90895990F0008550FAA0BE0E8FEEF9C
S11315A016161706E807F907C0F012161306E40723
S11315B0F50798F0621B730B840B950B39F40A261C
S11315C061F0232B242B252B21F408950A2609F4FA
S11315D0A140A6958FEF811D811D089597F99F67FE
S11315E080E870E060E008959FEF80EC08950024A7
S11315F00A941616170618060906089500240A9474
S113160012161306140605060895092E0394000CF9
S113161011F4882352F0BB0F40F4BF2B11F460FF88
S113162004C06F5F7F4F8F4F9F4F089557FD9058B1
S1131630440F551F59F05F3F71F04795880F97FB92
S1131640991F61F09F3F79F087950895121613064C
S11316501406551FF2CF4695F1DF08C0161617067B
S11316601806991FF1CF86957105610508940895B0
S1131670E894BB2766277727CB0197F908950E9442
S1131680CA0A08F48FEF08950E94570B0C94050BB7
S11316900E94F70A38F00E94FE0A20F0952311F008
S11316A00C94EE0A0C94F40A11240C94390B0E9445
S11316B0160B70F3959FC1F3950F50E0551F629F71
S11316C0F001729FBB27F00DB11D639FAA27F00D97
S11316D0B11DAA1F649F6627B00DA11D661F829FBE
S11316E02227B00DA11D621F739FB00DA11D621FA3
S11316F0839FA00D611D221F749F3327A00D611DC0
S1131700231F849F600D211D822F762F6A2F1124A1
S11317109F5750409AF0F1F088234AF0EE0FFF1FD4
S1131720BB1F661F771F881F91505040A9F79E3F2B
S1131730510580F00C94EE0A0C94390B5F3FE4F3EE
S1131740983ED4F3869577956795B795F795E79581
S11317509F5FC1F7FE2B880F911D9695879597F98A
S1131760089597FB072E16F4009407D077FD09D04F
S11317700E94580C07FC05D03EF4909581959F4F2C
S11317800895709561957F4F0895A1E21A2EAA1BC2
S1131790BB1BFD010DC0AA1FBB1FEE1FFF1FA2171D
S11317A0B307E407F50720F0A21BB30BE40BF50B1A
S11317B0661F771F881F991F1A9469F760957095A3
S11317C0809590959B01AC01BD01CF010895052E34
S11317D097FB1EF400940E94FE0B57FD07D00E9455
S11317E0C50B07FC03D04EF40C94FE0B50954095AA
S11317F0309521953F4F4F4F5F4F089590958095B9
S1131800709561957F4F8F4F9F4F0895A29FB001B0
S1131810B39FC001A39F700D811D1124911DB29F20
S1131820700D811D1124911D08950F93083090F0BF
S1131830982F872F762F652F542F432F322F22274F
S11318400850F4CF220F331F441F551F661F771F04
S1131850881F991F0A95B2F70F91089597FB10F806
S1131860169400080F93083098F00850232F342F53
S1131870452F562F672F782F892F902DF4CF05945D
S113188097958795779567955795479537952795B4
S11318900A95AAF70F9108950024A7FD00942A172A
S11318A030054005500560057005800590050895D4
S11318B0AA1BBB1B51E107C0AA1FBB1FA617B70772
S11318C010F0A61BB70B881F991F5A95A9F780958E
S11318D09095BC01CD010895A0E0B0E0E2E7FCE002
S11318E00C94CF105C016B017A016115710519F03C
S11318F0FB0180839183E114F10429F0C70102976D
S1131900839708F0E5C0E5012196F5011081812F48
S113191090E00E94820D892B11F05E01F4CF1D32FC
S113192029F42196F501118101E007C01B3221F44D
S1131930E5012296F501118100E0E114F10409F1B9
S1131940F0E1EF16F10429F43FC010E3E114F104CF
S113195021F128E0E216F10401F154F4E2E0EE167C
S1131960F10421F5812C912CA12CB0E4BB2E3EC0B6
S1131970FAE0EF16F10439F020E1E216F104B1F4D3
S113198030C0103319F1FAE0EF2EF12CACEC8A2EB2
S1131990982CA82CACE0BA2E29C078E0E72EF12CC4
S11319A0812C912CA12CE0E1BE2E20C060E070E0DF
S11319B080E090E897010F2C000C440B550B0E941B
S11319C0C50B49015A0112C0103359F488818F7D27
S11319D0883509F0BACF19812296026080E1E82E99
S11319E0F12C812C912CA12C68E0B62E40E060E013
S11319F070E0CB0127010F2C000C66087708FE016C
S1131A0050ED352E310E29E0231570F42FEB210F04
S1131A102A3118F439EC332E06C02FE9210F2A316C
S1131A2018F529EA322E310E232D30E02E153F050C
S1131A30DCF447FD16C086169706A806B90670F0B2
S1131A40A30192010E94B310630D711D811D911DAC
S1131A5061307105810520E8920710F04FEF01C055
S1131A6041E021961081CBCF202F2170C114D104E5
S1131A7071F0442329F02197F601C083D18307C074
S1131A8001FF19C02297F601C083D18314C047FF18
S1131A9012C0222329F060E070E080E090E804C0E6
S1131AA06FEF7FEF8FEF9FE722E230E02093326504
S1131AB03093336509C0222381F090958095709509
S1131AC061957F4F8F4F9F4F462F372F282F12C07E
S1131AD040E030E020E090E00DC097FFF5CF82E2D7
S1131AE090E080933265909333656FEF7FEF8FEFD3
S1131AF09FE7EACF642F732F822FCDB7DEB7E1E1E2
S1131B000C94E81091110C94FA0F803219F089505A
S1131B108550C8F7089548ED54E60E94C60D08950F
S1131B20FB01DC0102C001900D9241505040D8F7F6
S1131B300895FB01DC018D91019080190110D9F306
S1131B40990B0895FB01DC0101900D920020E1F74F
S1131B500895FB01DC014150504030F08D9101901B
S1131B60801919F40020B9F7881B990B0895FB011B
S1131B70DC014150504048F001900D920020C9F71B
S1131B8001C01D9241505040E0F70895FA01A1911F
S1131B90B081009719F41097E1F0CD01DC01CD017B
S1131BA00D90002011F4C00113C0FB0121912223E8
S1131BB019F02015D9F7F3CFFB012191201519F461
S1131BC01E92119606C02223C1F70D900020A1F7A2
S1131BD0D001FA01A193B0830895AEE0B0E0E3EF41
S1131BE0FDE00C94DC108C01FA0186E08C830983FF
S1131BF01A8377FF02C060E070E8CB0101978D8300
S1131C009E83A901BF01CE0101960E94190E4D8148
S1131C105E8157FD0AC02F813885421753070CF4A3
S1131C209A01F801E20FF31F10822E96E4E00C945F
S1131C30F510ABE0B0E0EFE1FEE00C94CE106C01E7
S1131C407B018A01FC0116821782838181FFCCC14A
S1131C50CE0101963C01F6019381F70193FD859134
S1131C6093FF81917F01882309F4BAC1853239F445
S1131C7093FD859193FF81917F01853229F4B6010B
S1131C8090E00E941310E7CF912C212C312CFFE11E
S1131C90F315D8F08B3279F038F4803279F083324E
S1131CA0A1F4232D20611DC08D3261F0803369F4CD
S1131CB0232D216016C0832D8260382EE32DE4602D
S1131CC03E2E2AC0F32DF8601DC037FC2DC020ED38
S1131CD0280F2A3040F08E32B9F436FC81C1232D0E
S1131CE02064322E19C036FE06C08AE0989E200D6C
S1131CF01124922E11C0EAE02E9E200D1124222ED2
S1131D00F32DF0623F2E08C08C3621F4832D8068B9
S1131D10382E02C0883641F4F70193FD859193FF74
S1131D2081917F018111B3CF982F9F7D955493307A
S1131D3028F40C5F1F4F9FE399830DC0833631F065
S1131D40833771F0833509F059C021C0F8018081CF
S1131D5089830E5F1F4F88248394912C530113C0F1
S1131D602801F2E04F0E511CF801A080B18036FE2C
S1131D7003C0692D70E002C06FEF7FEFC5010E94C0
S1131D8008104C018201F32DFF773F2E16C0280165
S1131D9022E0420E511CF801A080B18036FE03C03F
S1131DA0692D70E002C06FEF7FEFC5010E94FD0F47
S1131DB04C01F32DF0683F2E820133FC1BC0822DB1
S1131DC090E088169906B0F4B60180E290E00E9493
S1131DD013102A94F4CFF50137FC859137FE8191D5
S1131DE05F01B60190E00E94131021102A9421E0B3
S1131DF0821A91088114910471F7E8C0843611F0B5
S1131E00893641F5F80137FE07C06081718182810E
S1131E1093810C5F1F4F08C060817181072E000CF5
S1131E20880B990B0E5F1F4FF32DFF763F2E97FF04
S1131E3009C090958095709561957F4F8F4F9F4F06
S1131E40F0683F2E2AE030E0A3010E944F10882E54
S1131E50861845C0853731F4232D2F7EB22E2AE013
S1131E6030E025C0932D997FB92E8F36C1F018F438
S1131E70883579F0B5C0803719F0883721F0B0C0C3
S1131E80E92FE061BE2EB4FE0DC0FB2DF460BF2E21
S1131E9009C034FE0AC0292F2660B22E06C028E0ED
S1131EA030E005C020E130E002C020E132E0F8017A
S1131EB0B7FE07C060817181828193810C5F1F4FDF
S1131EC006C06081718180E090E00E5F1F4FA30126
S1131ED00E944F10882E8618FB2DFF773F2E36FE6A
S1131EE00DC0232D2E7FA22E891458F434FE0BC06E
S1131EF032FC09C0832D8E7EA82E05C0B82CA32CDD
S1131F0003C0B82C01C0B92CA4FE0FC0FE01E80D1B
S1131F10F11D8081803321F49A2D997EA92E09C068
S1131F20A2FE06C0B394B39404C08A2D867809F047
S1131F30B394A3FC11C0A0FE06C0B21488F4280C0C
S1131F40922C9B180EC0B21460F4B60180E290E0AB
S1131F500E941310B394F7CFB21418F42B1802C0D4
S1131F60982C212CA4FE10C0B60180E390E00E94BE
S1131F701310A2FE17C0A1FC03C088E790E002C0C2
S1131F8088E590E0B6010CC08A2D867859F0A1FE50
S1131F9002C08BE201C080E2A7FC8DE2B60190E0B2
S1131FA00E941310891438F4B60180E390E00E9473
S1131FB013109A94F7CF8A94F301E80DF11D8081F0
S1131FC0B60190E00E9413108110F5CF222009F48D
S1131FD042CEB60180E290E00E9413102A94F6CF1C
S1131FE0F6018681978102C08FEF9FEF2B96E2E185
S1131FF00C94E710992788270895FC0105906150F7
S113200070400110D8F7809590958E0F9F1F08950A
S1132010FC016150704001900110D8F780959095B3
S11320208E0F9F1F08950F931F93CF93DF93FB0190
S1132030238121FD03C08FEF9FEF2CC022FF16C028
S113204046815781248135814217530744F4A08186
S1132050B1819D012F5F3F4F208331838C93268173
S113206037812F5F3F4F2683378314C08B01EC01E8
S1132070FB010084F185E02D0995892BE1F6D80157
S113208016968D919C911797019616968D939C9315
S11320901797CE01DF91CF911F910F910895FA0107
S11320A0AA27283051F1203181F1E8946F936E7F93
S11320B06E5F7F4F8F4F9F4FAF4FB1E03ED0B4E084
S11320C03CD0670F781F891F9A1FA11D680F791FC5
S11320D08A1F911DA11D6A0F711D811D911DA11DD6
S11320E020D009F468943F912AE0269F11243019E6
S11320F0305D3193DEF6CF010895462F4770405D81
S11321004193B3E00FD0C9F7F6CF462F4F70405D2F
S11321104A3318F0495D31FD4052419302D0A9F78A
S1132120EACFB4E0A6959795879577956795BA9584
S1132130C9F700976105710508959B01AC010A2E4A
S113214006945795479537952795BA95C9F7620F21
S1132150731F841F951FA01D0895DC0128ED209393
S113216034006C930895DB018F939F930E94C310F6
S1132170BF91AF91A29F800D911DA39F900DB29F1F
S1132180900D112408950E94060CA59F900DB49FF4
S1132190900DA49F800D911D112408952F923F92BC
S11321A04F925F926F927F928F929F92AF92BF9263
S11321B0CF92DF92EF92FF920F931F93CF93DF930F
S11321C0CDB7DEB7CA1BDB0BCDBFDEBF09942A88AF
S11321D0398848885F846E847D848C849B84AA8437
S11321E0B984C884DF80EE80FD800C811B81AA81C4
S11321F0B981CE0FD11DCDBFDEBFED010895F89496
S1052200FFCF0A
S11322021E00B400000000000000005F0000000790
S1132212000700147F147F14242A7F2A1223130830
S1132222646236495522500005030000001C224115
S1132232000041221C0014083E081408083E080845
S11322420050300000080808080800606000002000
S1132252100804023E5149453E00427F400042615B
S11322625149462141454B311814127F10274545E7
S113227245393C4A494930017109050336494949FE
S113228236064949291E003636000000563600003B
S113229208142241001414141414004122140802D4
S11322A201510906324979413E7E1111117E7F495D
S11322B24949363E414141227F4141221C7F4949DD
S11322C249417F090909013E4149497A7F080808C1
S11322D27F00417F41002040413F017F0814224199
S11322E27F404040407F020C027F7F0408107F3E03
S11322F24141413E7F090909063E4151215E7F0960
S1132302192946464949493101017F01013F4040AB
S1132312403F1F2040201F3F4038403F63140814B1
S11323226307087008076151494543007F41410032
S113233202040810200041417F000402010204400B
S113234240404040000307000020545454787F4822
S11323524444383844444420384444487F3854542C
S11323625418087E090102081454543C7F080404DA
S11323727800447D40002040443D007F1028440002
S113238200417F40007C041804787C0804047838F7
S1132392444444387C14141408081414187C7C082B
S11323A20404084854545420043F4440203C404010
S11323B2207C1C2040201C3C4030403C44281028F7
S11323C2440C5050503C4464544C44000836410080
S11323D200007F0000004136080008082A1C080893
S11323E21C2A080806090906007E1111917E004183
S11323F27FC1007E1111917E3E414141227E111125
S1132402917E7E1111917E7F4949C9417F4949C913
S11324127F3C434243247E4A4B4A4162534A4742E9
S11324227E4A4B4A423E4149497A7F08142241007E
S1132432417F41007F40404040444B4A4B327F043D
S113244208107F7F0408107F3E4141413E3E4141D6
S1132452413E3E4141413E3E4141413E44281028D5
S1132462443F4040C03F7F40404040444B4A4B328F
S11324723C4141413C3C4141413C62534A474262F6
S1132482534A47423649494936205454D478004481
S11324927DC0002054545478384444442020545479
S11324A254782054545478385454D41838545554C5
S11324B218384546452038545554184465564D44F9
S11324C23854555418081454543C7F1028440000BE
S11324D2447D400000417F400048555655207C0809
S11324E20404787C08040478384444443838444466
S11324F24438384444443838444444380036360076
S113250200384040A07800417F4000485454542091
S1132512384242227838424222784465564D444435
S113252265564D44000503000000AEA83FD30040A9
S11325322000D9F1DB40A1C8DA1281FFA4A6D5F0AC
S11325428D14AF040403030102236525652765295D
S1132552652A652B65010002000400080010004092
S1132562000001000400020406080A0C0E009BADE0
S113257236C15A6CF71982B42FD84375EE32A99F2B
S113258204F3685EC52BB0861DEA7147DC64FFC99B
S113259252A53E08937DE6D04BBC27118A56CDFB4B
S11325A260970C3AA14FD4E2798E1523B8C85365CB
S11325B2FE0992A43FD14A7CE7108BBD26FA6157EB
S11325C2CC3BA0960DE3784ED522B98F14AC3701DB
S11325D29A6DF6C05BB52E188374EFD9429E05330B
S11325E2A85FC4F269871C2AB146DDEB700B90A682
S11325F23DCA5167FC1289BF24D3487EE539A294AF
S11326020FF86355CE20BB8D16E17A4CD76FF4C216
S113261259AE35039876EDDB40B72C1A815DC6F0CE
S11326226B9C0731AA44DFE972851E28B3C3586E36
S1132632F50299AF34DA4177EC1B80B62DF16A5C6E
S1132642C730AB9D06E87345DE29B2841FA73C0A56
S11326529166FDCB50BE2513887FE4D249950E388E
S1132662A354CFF9628C1721BA4DD6E07B303030B7
S113267230303030303030303030300053453A254D
S113268233642054453A2533640053413A25336474
S11326922054413A253364005343553A2534642087
S11326A25343493A253464004572726F7220706F45
S11326B27765723A20256400426164207369676E0B
S11326C2616C3A2025640064617461206661756CF2
S10B26D2743A202564007C0029
S9030000FC
